{
  "_format": "hh-sol-artifact-1",
  "contractName": "ArbitrageBalancer",
  "sourceName": "contracts/contracts/ArbitrageBalancer.sol",
  "abi": [
    {
      "inputs": [
        {
          "internalType": "address",
          "name": "_vault",
          "type": "address"
        },
        {
          "internalType": "address",
          "name": "_twapOracle",
          "type": "address"
        }
      ],
      "stateMutability": "nonpayable",
      "type": "constructor"
    },
    {
      "inputs": [],
      "name": "EnforcedPause",
      "type": "error"
    },
    {
      "inputs": [],
      "name": "ExpectedPause",
      "type": "error"
    },
    {
      "inputs": [],
      "name": "ReentrancyGuardReentrantCall",
      "type": "error"
    },
    {
      "anonymous": false,
      "inputs": [
        {
          "indexed": true,
          "internalType": "address",
          "name": "token",
          "type": "address"
        },
        {
          "indexed": false,
          "internalType": "uint256",
          "name": "loanAmount",
          "type": "uint256"
        },
        {
          "indexed": false,
          "internalType": "int256",
          "name": "netProfit",
          "type": "int256"
        }
      ],
      "name": "FlashLoanExecuted",
      "type": "event"
    },
    {
      "anonymous": false,
      "inputs": [
        {
          "indexed": false,
          "internalType": "address",
          "name": "account",
          "type": "address"
        }
      ],
      "name": "Paused",
      "type": "event"
    },
    {
      "anonymous": false,
      "inputs": [
        {
          "indexed": true,
          "internalType": "address",
          "name": "token",
          "type": "address"
        },
        {
          "indexed": false,
          "internalType": "uint256",
          "name": "amount",
          "type": "uint256"
        }
      ],
      "name": "ProfitWithdrawal",
      "type": "event"
    },
    {
      "anonymous": false,
      "inputs": [
        {
          "indexed": false,
          "internalType": "address",
          "name": "account",
          "type": "address"
        }
      ],
      "name": "Unpaused",
      "type": "event"
    },
    {
      "inputs": [],
      "name": "owner",
      "outputs": [
        {
          "internalType": "address",
          "name": "",
          "type": "address"
        }
      ],
      "stateMutability": "view",
      "type": "function"
    },
    {
      "inputs": [],
      "name": "pause",
      "outputs": [],
      "stateMutability": "nonpayable",
      "type": "function"
    },
    {
      "inputs": [],
      "name": "paused",
      "outputs": [
        {
          "internalType": "bool",
          "name": "",
          "type": "bool"
        }
      ],
      "stateMutability": "view",
      "type": "function"
    },
    {
      "inputs": [
        {
          "internalType": "address[]",
          "name": "tokens",
          "type": "address[]"
        },
        {
          "internalType": "uint256[]",
          "name": "amounts",
          "type": "uint256[]"
        },
        {
          "internalType": "uint256[]",
          "name": "feeAmounts",
          "type": "uint256[]"
        },
        {
          "internalType": "bytes",
          "name": "userData",
          "type": "bytes"
        }
      ],
      "name": "receiveFlashLoan",
      "outputs": [],
      "stateMutability": "nonpayable",
      "type": "function"
    },
    {
      "inputs": [
        {
          "internalType": "address",
          "name": "token",
          "type": "address"
        },
        {
          "internalType": "uint256",
          "name": "amount",
          "type": "uint256"
        },
        {
          "internalType": "bytes",
          "name": "userData",
          "type": "bytes"
        }
      ],
      "name": "startFlashloan",
      "outputs": [],
      "stateMutability": "nonpayable",
      "type": "function"
    },
    {
      "inputs": [],
      "name": "twapOracle",
      "outputs": [
        {
          "internalType": "contract UniswapV2TwapOracle",
          "name": "",
          "type": "address"
        }
      ],
      "stateMutability": "view",
      "type": "function"
    },
    {
      "inputs": [],
      "name": "unpause",
      "outputs": [],
      "stateMutability": "nonpayable",
      "type": "function"
    },
    {
      "inputs": [],
      "name": "vault",
      "outputs": [
        {
          "internalType": "contract IVault",
          "name": "",
          "type": "address"
        }
      ],
      "stateMutability": "view",
      "type": "function"
    },
    {
      "inputs": [
        {
          "internalType": "address",
          "name": "tokenAddress",
          "type": "address"
        }
      ],
      "name": "withdraw",
      "outputs": [],
      "stateMutability": "nonpayable",
      "type": "function"
    }
  ],
  "bytecode": "0x60e0346100dc57601f61158038819003918201601f19168301916001600160401b038311848410176100e15780849260409485528339810103126100dc57610052602061004b836100f7565b92016100f7565b6001600055336080526001600160a01b0391821660a0521660c052604051611474908161010c82396080518181816105af01528181610b1501528181610b5b01528181610c1901528181610e440152610f80015260a051818181609501528181610159015281816104ea0152610d09015260c05181818161024101528181610ad00152610cac0152f35b600080fd5b634e487b7160e01b600052604160045260246000fd5b51906001600160a01b03821682036100dc5756fe6080604052600436101561001257600080fd5b6000803560e01c80633f4ba83a14610f6957806351cff8d914610e275780635c975abb14610e045780638298a90d14610bca5780638456cb5914610b445780638da5cb5b14610aff5780639043292a14610aba578063f04f2707146100c75763fbfa77cf1461008057600080fd5b346100c457806003193601126100c4576040517f00000000000000000000000000000000000000000000000000000000000000006001600160a01b03168152602090f35b80fd5b50346100c45760803660031901126100c45767ffffffffffffffff600435818111610ab6576100fa903690600401611058565b91602435818111610ab257610113903690600401611058565b919093604435828111610aae5761012e903690600401611058565b919092606435908111610aaa5761014990369060040161102a565b906002895414610a9857600289557f00000000000000000000000000000000000000000000000000000000000000006001600160a01b03163303610a4057600183036109df5761019b9181019061122a565b9398929791959990949660018060a01b038b161515806109cd575b156109885760028a51148061096d575b80610952575b1561090d5760028951036108c857156108b4578a356001600160a01b03811690036108b0571561089c57156108885761020790358a35611343565b604051632321bc7960e21b81526001600160a01b0398891660048201528a35602482015285891660448201529097602090829060649082907f0000000000000000000000000000000000000000000000000000000000000000165afa90811561087d578b91610846575b506102bf8b6001600160a01b036102878a61117d565b51166102928961117d565b51908d60405180958194829363d06ca61f60e01b8452356004840152604060248401526044830190611306565b03915afa801561083b576102da918d91610821575b506111a0565b518180821115610812576102ed916113e0565b612710908181029181830414901517156107fe5781156107ea57041161079b5761035790899060206001600160a01b036103268961117d565b5160405163095ea7b360e01b815291166001600160a01b031660048201528b35602482015293849081906044820190565b0381858d356001600160a01b03165af1928315610790576103b993610771575b506001600160a01b036103898861117d565b51168a836103968961117d565b516040516338ed173960e01b815296879586948593429230923560048701611405565b03925af190811561076657899161074c575b50805180600019810111610738579160206103f261043b9795938c979560001901906111b0565b519283906001600160a01b03610407886111a0565b511688604051809b8195829463095ea7b360e01b84526004840160209093929193604081019460018060a01b031681520152565b03926001600160a01b03165af195861561065d576104688692610483926104a599610719575b5089611343565b946001600160a01b039061047b906111a0565b5116936111a0565b516040516338ed173960e01b8152968795869485934292309260048701611405565b03925af190811561065d5785916106f7575b5080516000198101919082116106e357906104d1916111b0565b51908082106106925760405163a9059cbb60e01b8082527f00000000000000000000000000000000000000000000000000000000000000006001600160a01b031660048301526024820183905292909190602083806044810103818a89356001600160a01b03165af19283156106875761055093610668575b506113e0565b908161059f575b506040805193358452602084019190915290356001600160a01b0316917f1736d858cebb9f1fc945933505f6898d6f81e41ee20cfb09e7031c9a817240c69190a26001815580f35b6040519081526001600160a01b037f00000000000000000000000000000000000000000000000000000000000000001660048201526024810182905291602083806044810103818885356001600160a01b03165af191821561065d577f1736d858cebb9f1fc945933505f6898d6f81e41ee20cfb09e7031c9a817240c69360409361062e575b50915091610557565b61064f9060203d602011610656575b6106478183611143565b8101906113ed565b5038610625565b503d61063d565b6040513d87823e3d90fd5b6106809060203d602011610656576106478183611143565b503861054a565b6040513d89823e3d90fd5b60405162461bcd60e51b815260206004820152602360248201527f547261646520776173206e6f742070726f66697461626c65206166746572206660448201526265657360e81b6064820152608490fd5b634e487b7160e01b86526011600452602486fd5b61071391503d8087833e61070b8183611143565b810190611366565b386104b7565b6107319060203d602011610656576106478183611143565b5038610461565b634e487b7160e01b8a52601160045260248afd5b61076091503d808b833e61070b8183611143565b386103cb565b6040513d8b823e3d90fd5b6107899060203d602011610656576106478183611143565b5038610377565b6040513d84823e3d90fd5b60405162461bcd60e51b815260206004820152602160248201527f507269636520646576696174657320746f6f206d7563682066726f6d205457416044820152600560fc1b6064820152608490fd5b634e487b7160e01b8c52601260045260248cfd5b634e487b7160e01b8c52601160045260248cfd5b9061081c916113e0565b6102ed565b61083591503d808f833e61070b8183611143565b386102d4565b6040513d8e823e3d90fd5b90506020813d602011610875575b8161086160209383611143565b81010312610870575138610271565b600080fd5b3d9150610854565b6040513d8d823e3d90fd5b634e487b7160e01b8b52603260045260248bfd5b634e487b7160e01b8c52603260045260248cfd5b8c80fd5b634e487b7160e01b8d52603260045260248dfd5b60405162461bcd60e51b815260206004820152601b60248201527f496e76616c696420706174687320636f6e66696775726174696f6e00000000006044820152606490fd5b60405162461bcd60e51b815260206004820152601c60248201527f496e76616c696420726f7574657220636f6e66696775726174696f6e000000006044820152606490fd5b506001600160a01b036109648b6111a0565b511615156101cc565b506001600160a01b0361097f8b61117d565b511615156101c6565b60405162461bcd60e51b815260206004820152601e60248201527f496e76616c696420746f6b656e20616464726573732070726f766964656400006044820152606490fd5b506001600160a01b03881615156101b6565b60405162461bcd60e51b815260206004820152603360248201527f5468697320636f6e7472616374206f6e6c792068616e646c65732073696e676c604482015272652d746f6b656e20666c617368206c6f616e7360681b6064820152608490fd5b60405162461bcd60e51b815260206004820152602a60248201527f4f6e6c792042616c616e636572205661756c742063616e2063616c6c207468696044820152693990333ab731ba34b7b760b11b6064820152608490fd5b604051633ee5aeb560e01b8152600490fd5b8780fd5b8680fd5b8480fd5b8280fd5b50346100c457806003193601126100c4576040517f00000000000000000000000000000000000000000000000000000000000000006001600160a01b03168152602090f35b50346100c457806003193601126100c4576040517f00000000000000000000000000000000000000000000000000000000000000006001600160a01b03168152602090f35b50346100c457806003193601126100c457610b89337f00000000000000000000000000000000000000000000000000000000000000006001600160a01b031614611089565b610b916110df565b600160ff19815416176001557f62e78cea01bee320cd4e420270b5ea74000d11b0c9f74754ebdbfc544b05a2586020604051338152a180f35b50346100c457600319906060368301126100c457610be6611000565b9160443567ffffffffffffffff8111610ab657610c0790369060040161102a565b9091906001600160a01b0390610c40337f0000000000000000000000000000000000000000000000000000000000000000841614611089565b610c486110df565b60405193610c5585611127565b60019384865260209788368189013784610c6e8861117d565b9116905260405194610c7f86611127565b8086528886019489368737602435610c968861117d565b52610ca38585018561122a565b505050505090827f000000000000000000000000000000000000000000000000000000000000000016803b15610e005760448c9283869384604051978896879563c640752d60e01b87521660048601521660248401525af18015610df557610de2575b507f00000000000000000000000000000000000000000000000000000000000000001695863b15610dde579089610d5b60405199632e1c224f60e11b8b523060048c0152608060248c015260848b0190611306565b92848a85030160448b01525192838152019591895b818110610dcb575050505086978685858a98968398968a9685809903016064860152818452858401378181018401859052601f01601f1916010301925af1801561079057610dbb5750f35b610dc4906110fd565b6100c45780f35b83518852968b0196928b01928201610d70565b8880fd5b610dee909991996110fd565b9738610d06565b6040513d8c823e3d90fd5b8b80fd5b50346100c457806003193601126100c457602060ff600154166040519015158152f35b50346100c457602080600319360112610f6557610e42611000565b7f0000000000000000000000000000000000000000000000000000000000000000906001600160a01b0390610e7a3383851614611089565b16916040516370a0823160e01b81523060048201528181602481875afa90811561065d578591610f38575b5080610eaf578480f35b60405163a9059cbb60e01b81526001600160a01b0393909316600484015260248301819052818360448188885af192831561065d577fd65d7b028c704b54bcbe20b09b06f59223a87a757489cba0ab12afbb7964723993610f1b575b50604051908152a2388080808480f35b610f3190833d8511610656576106478183611143565b5038610f0b565b90508181813d8311610f5e575b610f4f8183611143565b81010312610ab2575138610ea5565b503d610f45565b5080fd5b50346100c457806003193601126100c457610fae337f00000000000000000000000000000000000000000000000000000000000000006001600160a01b031614611089565b60015460ff811615610fee5760ff19166001557f5db9ee0a495bf2e6ff9c91a7834c1ba4fdd244a5e8aa4e537bd38aeae4b073aa6020604051338152a180f35b604051638dfc202b60e01b8152600490fd5b600435906001600160a01b038216820361087057565b35906001600160a01b038216820361087057565b9181601f840112156108705782359167ffffffffffffffff8311610870576020838186019501011161087057565b9181601f840112156108705782359167ffffffffffffffff8311610870576020808501948460051b01011161087057565b1561109057565b60405162461bcd60e51b815260206004820152602160248201527f4f6e6c79206f776e65722063616e2063616c6c20746869732066756e6374696f6044820152603760f91b6064820152608490fd5b60ff600154166110eb57565b60405163d93c066560e01b8152600490fd5b67ffffffffffffffff811161111157604052565b634e487b7160e01b600052604160045260246000fd5b6040810190811067ffffffffffffffff82111761111157604052565b90601f8019910116810190811067ffffffffffffffff82111761111157604052565b67ffffffffffffffff81116111115760051b60200190565b80511561118a5760200190565b634e487b7160e01b600052603260045260246000fd5b80516001101561118a5760400190565b805182101561118a5760209160051b010190565b81601f82011215610870578035916111db83611165565b926111e96040519485611143565b808452602092838086019260051b820101928311610870578301905b828210611213575050505090565b83809161121f84611016565b815201910190611205565b919060e0838203126108705761123f83611016565b9260209261124e848301611016565b9367ffffffffffffffff90604084013582811161087057856112719186016111c4565b94606085013583811161087057850181601f8201121561087057803561129681611165565b946112a46040519687611143565b818652848087019260051b8401019380851161087057858401925b8584106112e157505050505050509160808101359160c060a083013592013590565b83358381116108705787916112fb848480948a01016111c4565b8152019301926112bf565b90815180825260208080930193019160005b828110611326575050505090565b83516001600160a01b031685529381019392810192600101611318565b9190820180921161135057565b634e487b7160e01b600052601160045260246000fd5b60209081818403126108705780519067ffffffffffffffff821161087057019180601f8401121561087057825161139c81611165565b936113aa6040519586611143565b818552838086019260051b820101928311610870578301905b8282106113d1575050505090565b815181529083019083016113c3565b9190820391821161135057565b90816020910312610870575180151581036108705790565b919260809361142a92979695978452602084015260a0604084015260a0830190611306565b6001600160a01b039095166060820152015256fea2646970667358221220672ea63cf445a7bd6a2a2f97d201e9e30f9179ab7f94b81a742f55bd90625d2964736f6c63430008140033",
  "linkReferences": {},
  "deployedLinkReferences": {}
}