{"contracts/contracts/ArbitrageBalancer.sol":{"ArbitrageBalancer":{"abi":[{"inputs":[{"internalType":"address","name":"_vault","type":"address"},{"internalType":"address","name":"_twapOracle","type":"address"}],"stateMutability":"nonpayable","type":"constructor"},{"inputs":[],"name":"ReentrancyGuardReentrantCall","type":"error"},{"anonymous":false,"inputs":[{"indexed":true,"internalType":"address","name":"token","type":"address"},{"indexed":false,"internalType":"uint256","name":"loanAmount","type":"uint256"},{"indexed":false,"internalType":"int256","name":"netProfit","type":"int256"}],"name":"FlashLoanExecuted","type":"event"},{"anonymous":false,"inputs":[{"indexed":true,"internalType":"address","name":"token","type":"address"},{"indexed":false,"internalType":"uint256","name":"amount","type":"uint256"}],"name":"ProfitWithdrawal","type":"event"},{"inputs":[],"name":"owner","outputs":[{"internalType":"address","name":"","type":"address"}],"stateMutability":"view","type":"function"},{"inputs":[{"internalType":"address[]","name":"tokens","type":"address[]"},{"internalType":"uint256[]","name":"amounts","type":"uint256[]"},{"internalType":"uint256[]","name":"feeAmounts","type":"uint256[]"},{"internalType":"bytes","name":"userData","type":"bytes"}],"name":"receiveFlashLoan","outputs":[],"stateMutability":"nonpayable","type":"function"},{"inputs":[{"internalType":"address","name":"token","type":"address"},{"internalType":"uint256","name":"amount","type":"uint256"},{"internalType":"bytes","name":"userData","type":"bytes"}],"name":"startFlashloan","outputs":[],"stateMutability":"nonpayable","type":"function"},{"inputs":[],"name":"twapOracle","outputs":[{"internalType":"contract UniswapV2TwapOracle","name":"","type":"address"}],"stateMutability":"view","type":"function"},{"inputs":[],"name":"vault","outputs":[{"internalType":"contract IVault","name":"","type":"address"}],"stateMutability":"view","type":"function"},{"inputs":[{"internalType":"address","name":"tokenAddress","type":"address"}],"name":"withdraw","outputs":[],"stateMutability":"nonpayable","type":"function"}],"evm":{"bytecode":{"linkReferences":{},"object":"60e0346100ce57601f6113eb38819003918201601f19168301916001600160401b038311848410176100d35780849260409485528339810103126100ce57610052602061004b836100e9565b92016100e9565b6001600055336080526001600160a01b0391821660a0521660c0526040516112ed90816100fe823960805181818161058e01528181610af401528181610b720152610d72015260a051818181607401528181610138015281816104c90152610c5a015260c05181818161022001528181610aaf0152610bfd0152f35b600080fd5b634e487b7160e01b600052604160045260246000fd5b51906001600160a01b03821682036100ce5756fe6080604052600436101561001257600080fd5b6000803560e01c806351cff8d914610d555780638298a90d14610b235780638da5cb5b14610ade5780639043292a14610a99578063f04f2707146100a65763fbfa77cf1461005f57600080fd5b346100a357806003193601126100a3576040517f00000000000000000000000000000000000000000000000000000000000000006001600160a01b03168152602090f35b80fd5b50346100a35760803660031901126100a35767ffffffffffffffff600435818111610a95576100d9903690600401610eef565b91602435818111610a91576100f2903690600401610eef565b919093604435828111610a8d5761010d903690600401610eef565b919092606435908111610a8957610128903690600401610ec1565b906002895414610a7757600289557f00000000000000000000000000000000000000000000000000000000000000006001600160a01b03163303610a1f57600183036109be5761017a918101906110a3565b9398929791959990949660018060a01b038b161515806109ac575b156109675760028a51148061094c575b80610931575b156108ec5760028951036108a75715610893578a356001600160a01b038116900361088f571561087b5715610867576101e690358a356111bc565b604051632321bc7960e21b81526001600160a01b0398891660048201528a35602482015285891660448201529097602090829060649082907f0000000000000000000000000000000000000000000000000000000000000000165afa90811561085c578b91610825575b5061029e8b6001600160a01b036102668a610ff6565b511661027189610ff6565b51908d60405180958194829363d06ca61f60e01b845235600484015260406024840152604483019061117f565b03915afa801561081a576102b9918d91610800575b50611019565b5181808211156107f1576102cc91611259565b612710908181029181830414901517156107dd5781156107c957041161077a5761033690899060206001600160a01b0361030589610ff6565b5160405163095ea7b360e01b815291166001600160a01b031660048201528b35602482015293849081906044820190565b0381858d356001600160a01b03165af192831561076f5761039893610750575b506001600160a01b0361036888610ff6565b51168a8361037589610ff6565b516040516338ed173960e01b81529687958694859342923092356004870161127e565b03925af190811561074557899161072b575b50805180600019810111610717579160206103d161041a9795938c97956000190190611029565b519283906001600160a01b036103e688611019565b511688604051809b8195829463095ea7b360e01b84526004840160209093929193604081019460018060a01b031681520152565b03926001600160a01b03165af195861561063c57610447869261046292610484996106f8575b50896111bc565b946001600160a01b039061045a90611019565b511693611019565b516040516338ed173960e01b815296879586948593429230926004870161127e565b03925af190811561063c5785916106d6575b5080516000198101919082116106c257906104b091611029565b51908082106106715760405163a9059cbb60e01b8082527f00000000000000000000000000000000000000000000000000000000000000006001600160a01b031660048301526024820183905292909190602083806044810103818a89356001600160a01b03165af19283156106665761052f93610647575b50611259565b908161057e575b506040805193358452602084019190915290356001600160a01b0316917f1736d858cebb9f1fc945933505f6898d6f81e41ee20cfb09e7031c9a817240c69190a26001815580f35b6040519081526001600160a01b037f00000000000000000000000000000000000000000000000000000000000000001660048201526024810182905291602083806044810103818885356001600160a01b03165af191821561063c577f1736d858cebb9f1fc945933505f6898d6f81e41ee20cfb09e7031c9a817240c69360409361060d575b50915091610536565b61062e9060203d602011610635575b6106268183610fbc565b810190611266565b5038610604565b503d61061c565b6040513d87823e3d90fd5b61065f9060203d602011610635576106268183610fbc565b5038610529565b6040513d89823e3d90fd5b60405162461bcd60e51b815260206004820152602360248201527f547261646520776173206e6f742070726f66697461626c65206166746572206660448201526265657360e81b6064820152608490fd5b634e487b7160e01b86526011600452602486fd5b6106f291503d8087833e6106ea8183610fbc565b8101906111df565b38610496565b6107109060203d602011610635576106268183610fbc565b5038610440565b634e487b7160e01b8a52601160045260248afd5b61073f91503d808b833e6106ea8183610fbc565b386103aa565b6040513d8b823e3d90fd5b6107689060203d602011610635576106268183610fbc565b5038610356565b6040513d84823e3d90fd5b60405162461bcd60e51b815260206004820152602160248201527f507269636520646576696174657320746f6f206d7563682066726f6d205457416044820152600560fc1b6064820152608490fd5b634e487b7160e01b8c52601260045260248cfd5b634e487b7160e01b8c52601160045260248cfd5b906107fb91611259565b6102cc565b61081491503d808f833e6106ea8183610fbc565b386102b3565b6040513d8e823e3d90fd5b90506020813d602011610854575b8161084060209383610fbc565b8101031261084f575138610250565b600080fd5b3d9150610833565b6040513d8d823e3d90fd5b634e487b7160e01b8b52603260045260248bfd5b634e487b7160e01b8c52603260045260248cfd5b8c80fd5b634e487b7160e01b8d52603260045260248dfd5b60405162461bcd60e51b815260206004820152601b60248201527f496e76616c696420706174687320636f6e66696775726174696f6e00000000006044820152606490fd5b60405162461bcd60e51b815260206004820152601c60248201527f496e76616c696420726f7574657220636f6e66696775726174696f6e000000006044820152606490fd5b506001600160a01b036109438b611019565b511615156101ab565b506001600160a01b0361095e8b610ff6565b511615156101a5565b60405162461bcd60e51b815260206004820152601e60248201527f496e76616c696420746f6b656e20616464726573732070726f766964656400006044820152606490fd5b506001600160a01b0388161515610195565b60405162461bcd60e51b815260206004820152603360248201527f5468697320636f6e7472616374206f6e6c792068616e646c65732073696e676c604482015272652d746f6b656e20666c617368206c6f616e7360681b6064820152608490fd5b60405162461bcd60e51b815260206004820152602a60248201527f4f6e6c792042616c616e636572205661756c742063616e2063616c6c207468696044820152693990333ab731ba34b7b760b11b6064820152608490fd5b604051633ee5aeb560e01b8152600490fd5b8780fd5b8680fd5b8480fd5b8280fd5b50346100a357806003193601126100a3576040517f00000000000000000000000000000000000000000000000000000000000000006001600160a01b03168152602090f35b50346100a357806003193601126100a3576040517f00000000000000000000000000000000000000000000000000000000000000006001600160a01b03168152602090f35b50346100a357600319906060368301126100a357610b3f610e97565b9160443567ffffffffffffffff8111610a9557610b60903690600401610ec1565b9091906001600160a01b0390610b99337f0000000000000000000000000000000000000000000000000000000000000000841614610f20565b60405193610ba685610fa0565b60019384865260209788368189013784610bbf88610ff6565b9116905260405194610bd086610fa0565b8086528886019489368737602435610be788610ff6565b52610bf4858501856110a3565b505050505090827f000000000000000000000000000000000000000000000000000000000000000016803b15610d515760448c9283869384604051978896879563c640752d60e01b87521660048601521660248401525af18015610d4657610d33575b507f00000000000000000000000000000000000000000000000000000000000000001695863b15610d2f579089610cac60405199632e1c224f60e11b8b523060048c0152608060248c015260848b019061117f565b92848a85030160448b01525192838152019591895b818110610d1c575050505086978685858a98968398968a9685809903016064860152818452858401378181018401859052601f01601f1916010301925af1801561076f57610d0c5750f35b610d1590610f76565b6100a35780f35b83518852968b0196928b01928201610cc1565b8880fd5b610d3f90999199610f76565b9738610c57565b6040513d8c823e3d90fd5b8b80fd5b50346100a357602080600319360112610e9357610d70610e97565b7f0000000000000000000000000000000000000000000000000000000000000000906001600160a01b0390610da83383851614610f20565b16916040516370a0823160e01b81523060048201528181602481875afa90811561063c578591610e66575b5080610ddd578480f35b60405163a9059cbb60e01b81526001600160a01b0393909316600484015260248301819052818360448188885af192831561063c577fd65d7b028c704b54bcbe20b09b06f59223a87a757489cba0ab12afbb7964723993610e49575b50604051908152a2388080808480f35b610e5f90833d8511610635576106268183610fbc565b5038610e39565b90508181813d8311610e8c575b610e7d8183610fbc565b81010312610a91575138610dd3565b503d610e73565b5080fd5b600435906001600160a01b038216820361084f57565b35906001600160a01b038216820361084f57565b9181601f8401121561084f5782359167ffffffffffffffff831161084f576020838186019501011161084f57565b9181601f8401121561084f5782359167ffffffffffffffff831161084f576020808501948460051b01011161084f57565b15610f2757565b60405162461bcd60e51b815260206004820152602160248201527f4f6e6c79206f776e65722063616e2063616c6c20746869732066756e6374696f6044820152603760f91b6064820152608490fd5b67ffffffffffffffff8111610f8a57604052565b634e487b7160e01b600052604160045260246000fd5b6040810190811067ffffffffffffffff821117610f8a57604052565b90601f8019910116810190811067ffffffffffffffff821117610f8a57604052565b67ffffffffffffffff8111610f8a5760051b60200190565b8051156110035760200190565b634e487b7160e01b600052603260045260246000fd5b8051600110156110035760400190565b80518210156110035760209160051b010190565b81601f8201121561084f5780359161105483610fde565b926110626040519485610fbc565b808452602092838086019260051b82010192831161084f578301905b82821061108c575050505090565b83809161109884610ead565b81520191019061107e565b919060e08382031261084f576110b883610ead565b926020926110c7848301610ead565b9367ffffffffffffffff90604084013582811161084f57856110ea91860161103d565b94606085013583811161084f57850181601f8201121561084f57803561110f81610fde565b9461111d6040519687610fbc565b818652848087019260051b8401019380851161084f57858401925b85841061115a57505050505050509160808101359160c060a083013592013590565b833583811161084f578791611174848480948a010161103d565b815201930192611138565b90815180825260208080930193019160005b82811061119f575050505090565b83516001600160a01b031685529381019392810192600101611191565b919082018092116111c957565b634e487b7160e01b600052601160045260246000fd5b602090818184031261084f5780519067ffffffffffffffff821161084f57019180601f8401121561084f57825161121581610fde565b936112236040519586610fbc565b818552838086019260051b82010192831161084f578301905b82821061124a575050505090565b8151815290830190830161123c565b919082039182116111c957565b9081602091031261084f5751801515810361084f5790565b91926080936112a392979695978452602084015260a0604084015260a083019061117f565b6001600160a01b039095166060820152015256fea264697066735822122037425c8ca45ea6fe80d20c9299d30158e26c7aefb3c5ea52985aff8f1f3b59a264736f6c63430008140033","opcodes":"PUSH1 0xE0 CALLVALUE PUSH2 0xCE JUMPI PUSH1 0x1F PUSH2 0x13EB CODESIZE DUP2 SWAP1 SUB SWAP2 DUP3 ADD PUSH1 0x1F NOT AND DUP4 ADD SWAP2 PUSH1 0x1 PUSH1 0x1 PUSH1 0x40 SHL SUB DUP4 GT DUP5 DUP5 LT OR PUSH2 0xD3 JUMPI DUP1 DUP5 SWAP3 PUSH1 0x40 SWAP5 DUP6 MSTORE DUP4 CODECOPY DUP2 ADD SUB SLT PUSH2 0xCE JUMPI PUSH2 0x52 PUSH1 0x20 PUSH2 0x4B DUP4 PUSH2 0xE9 JUMP JUMPDEST SWAP3 ADD PUSH2 0xE9 JUMP JUMPDEST PUSH1 0x1 PUSH1 0x0 SSTORE CALLER PUSH1 0x80 MSTORE PUSH1 0x1 PUSH1 0x1 PUSH1 0xA0 SHL SUB SWAP2 DUP3 AND PUSH1 0xA0 MSTORE AND PUSH1 0xC0 MSTORE PUSH1 0x40 MLOAD PUSH2 0x12ED SWAP1 DUP2 PUSH2 0xFE DUP3 CODECOPY PUSH1 0x80 MLOAD DUP2 DUP2 DUP2 PUSH2 0x58E ADD MSTORE DUP2 DUP2 PUSH2 0xAF4 ADD MSTORE DUP2 DUP2 PUSH2 0xB72 ADD MSTORE PUSH2 0xD72 ADD MSTORE PUSH1 0xA0 MLOAD DUP2 DUP2 DUP2 PUSH1 0x74 ADD MSTORE DUP2 DUP2 PUSH2 0x138 ADD MSTORE DUP2 DUP2 PUSH2 0x4C9 ADD MSTORE PUSH2 0xC5A ADD MSTORE PUSH1 0xC0 MLOAD DUP2 DUP2 DUP2 PUSH2 0x220 ADD MSTORE DUP2 DUP2 PUSH2 0xAAF ADD MSTORE PUSH2 0xBFD ADD MSTORE RETURN JUMPDEST PUSH1 0x0 DUP1 REVERT JUMPDEST PUSH4 0x4E487B71 PUSH1 0xE0 SHL PUSH1 0x0 MSTORE PUSH1 0x41 PUSH1 0x4 MSTORE PUSH1 0x24 PUSH1 0x0 REVERT JUMPDEST MLOAD SWAP1 PUSH1 0x1 PUSH1 0x1 PUSH1 0xA0 SHL SUB DUP3 AND DUP3 SUB PUSH2 0xCE JUMPI JUMP INVALID PUSH1 0x80 PUSH1 0x40 MSTORE PUSH1 0x4 CALLDATASIZE LT ISZERO PUSH2 0x12 JUMPI PUSH1 0x0 DUP1 REVERT JUMPDEST PUSH1 0x0 DUP1 CALLDATALOAD PUSH1 0xE0 SHR DUP1 PUSH4 0x51CFF8D9 EQ PUSH2 0xD55 JUMPI DUP1 PUSH4 0x8298A90D EQ PUSH2 0xB23 JUMPI DUP1 PUSH4 0x8DA5CB5B EQ PUSH2 0xADE JUMPI DUP1 PUSH4 0x9043292A EQ PUSH2 0xA99 JUMPI DUP1 PUSH4 0xF04F2707 EQ PUSH2 0xA6 JUMPI PUSH4 0xFBFA77CF EQ PUSH2 0x5F JUMPI PUSH1 0x0 DUP1 REVERT JUMPDEST CALLVALUE PUSH2 0xA3 JUMPI DUP1 PUSH1 0x3 NOT CALLDATASIZE ADD SLT PUSH2 0xA3 JUMPI PUSH1 0x40 MLOAD PUSH32 0x0 PUSH1 0x1 PUSH1 0x1 PUSH1 0xA0 SHL SUB AND DUP2 MSTORE PUSH1 0x20 SWAP1 RETURN JUMPDEST DUP1 REVERT JUMPDEST POP CALLVALUE PUSH2 0xA3 JUMPI PUSH1 0x80 CALLDATASIZE PUSH1 0x3 NOT ADD SLT PUSH2 0xA3 JUMPI PUSH8 0xFFFFFFFFFFFFFFFF PUSH1 0x4 CALLDATALOAD DUP2 DUP2 GT PUSH2 0xA95 JUMPI PUSH2 0xD9 SWAP1 CALLDATASIZE SWAP1 PUSH1 0x4 ADD PUSH2 0xEEF JUMP JUMPDEST SWAP2 PUSH1 0x24 CALLDATALOAD DUP2 DUP2 GT PUSH2 0xA91 JUMPI PUSH2 0xF2 SWAP1 CALLDATASIZE SWAP1 PUSH1 0x4 ADD PUSH2 0xEEF JUMP JUMPDEST SWAP2 SWAP1 SWAP4 PUSH1 0x44 CALLDATALOAD DUP3 DUP2 GT PUSH2 0xA8D JUMPI PUSH2 0x10D SWAP1 CALLDATASIZE SWAP1 PUSH1 0x4 ADD PUSH2 0xEEF JUMP JUMPDEST SWAP2 SWAP1 SWAP3 PUSH1 0x64 CALLDATALOAD SWAP1 DUP2 GT PUSH2 0xA89 JUMPI PUSH2 0x128 SWAP1 CALLDATASIZE SWAP1 PUSH1 0x4 ADD PUSH2 0xEC1 JUMP JUMPDEST SWAP1 PUSH1 0x2 DUP10 SLOAD EQ PUSH2 0xA77 JUMPI PUSH1 0x2 DUP10 SSTORE PUSH32 0x0 PUSH1 0x1 PUSH1 0x1 PUSH1 0xA0 SHL SUB AND CALLER SUB PUSH2 0xA1F JUMPI PUSH1 0x1 DUP4 SUB PUSH2 0x9BE JUMPI PUSH2 0x17A SWAP2 DUP2 ADD SWAP1 PUSH2 0x10A3 JUMP JUMPDEST SWAP4 SWAP9 SWAP3 SWAP8 SWAP2 SWAP6 SWAP10 SWAP1 SWAP5 SWAP7 PUSH1 0x1 DUP1 PUSH1 0xA0 SHL SUB DUP12 AND ISZERO ISZERO DUP1 PUSH2 0x9AC JUMPI JUMPDEST ISZERO PUSH2 0x967 JUMPI PUSH1 0x2 DUP11 MLOAD EQ DUP1 PUSH2 0x94C JUMPI JUMPDEST DUP1 PUSH2 0x931 JUMPI JUMPDEST ISZERO PUSH2 0x8EC JUMPI PUSH1 0x2 DUP10 MLOAD SUB PUSH2 0x8A7 JUMPI ISZERO PUSH2 0x893 JUMPI DUP11 CALLDATALOAD PUSH1 0x1 PUSH1 0x1 PUSH1 0xA0 SHL SUB DUP2 AND SWAP1 SUB PUSH2 0x88F JUMPI ISZERO PUSH2 0x87B JUMPI ISZERO PUSH2 0x867 JUMPI PUSH2 0x1E6 SWAP1 CALLDATALOAD DUP11 CALLDATALOAD PUSH2 0x11BC JUMP JUMPDEST PUSH1 0x40 MLOAD PUSH4 0x2321BC79 PUSH1 0xE2 SHL DUP2 MSTORE PUSH1 0x1 PUSH1 0x1 PUSH1 0xA0 SHL SUB SWAP9 DUP10 AND PUSH1 0x4 DUP3 ADD MSTORE DUP11 CALLDATALOAD PUSH1 0x24 DUP3 ADD MSTORE DUP6 DUP10 AND PUSH1 0x44 DUP3 ADD MSTORE SWAP1 SWAP8 PUSH1 0x20 SWAP1 DUP3 SWAP1 PUSH1 0x64 SWAP1 DUP3 SWAP1 PUSH32 0x0 AND GAS STATICCALL SWAP1 DUP2 ISZERO PUSH2 0x85C JUMPI DUP12 SWAP2 PUSH2 0x825 JUMPI JUMPDEST POP PUSH2 0x29E DUP12 PUSH1 0x1 PUSH1 0x1 PUSH1 0xA0 SHL SUB PUSH2 0x266 DUP11 PUSH2 0xFF6 JUMP JUMPDEST MLOAD AND PUSH2 0x271 DUP10 PUSH2 0xFF6 JUMP JUMPDEST MLOAD SWAP1 DUP14 PUSH1 0x40 MLOAD DUP1 SWAP6 DUP2 SWAP5 DUP3 SWAP4 PUSH4 0xD06CA61F PUSH1 0xE0 SHL DUP5 MSTORE CALLDATALOAD PUSH1 0x4 DUP5 ADD MSTORE PUSH1 0x40 PUSH1 0x24 DUP5 ADD MSTORE PUSH1 0x44 DUP4 ADD SWAP1 PUSH2 0x117F JUMP JUMPDEST SUB SWAP2 GAS STATICCALL DUP1 ISZERO PUSH2 0x81A JUMPI PUSH2 0x2B9 SWAP2 DUP14 SWAP2 PUSH2 0x800 JUMPI JUMPDEST POP PUSH2 0x1019 JUMP JUMPDEST MLOAD DUP2 DUP1 DUP3 GT ISZERO PUSH2 0x7F1 JUMPI PUSH2 0x2CC SWAP2 PUSH2 0x1259 JUMP JUMPDEST PUSH2 0x2710 SWAP1 DUP2 DUP2 MUL SWAP2 DUP2 DUP4 DIV EQ SWAP1 ISZERO OR ISZERO PUSH2 0x7DD JUMPI DUP2 ISZERO PUSH2 0x7C9 JUMPI DIV GT PUSH2 0x77A JUMPI PUSH2 0x336 SWAP1 DUP10 SWAP1 PUSH1 0x20 PUSH1 0x1 PUSH1 0x1 PUSH1 0xA0 SHL SUB PUSH2 0x305 DUP10 PUSH2 0xFF6 JUMP JUMPDEST MLOAD PUSH1 0x40 MLOAD PUSH4 0x95EA7B3 PUSH1 0xE0 SHL DUP2 MSTORE SWAP2 AND PUSH1 0x1 PUSH1 0x1 PUSH1 0xA0 SHL SUB AND PUSH1 0x4 DUP3 ADD MSTORE DUP12 CALLDATALOAD PUSH1 0x24 DUP3 ADD MSTORE SWAP4 DUP5 SWAP1 DUP2 SWAP1 PUSH1 0x44 DUP3 ADD SWAP1 JUMP JUMPDEST SUB DUP2 DUP6 DUP14 CALLDATALOAD PUSH1 0x1 PUSH1 0x1 PUSH1 0xA0 SHL SUB AND GAS CALL SWAP3 DUP4 ISZERO PUSH2 0x76F JUMPI PUSH2 0x398 SWAP4 PUSH2 0x750 JUMPI JUMPDEST POP PUSH1 0x1 PUSH1 0x1 PUSH1 0xA0 SHL SUB PUSH2 0x368 DUP9 PUSH2 0xFF6 JUMP JUMPDEST MLOAD AND DUP11 DUP4 PUSH2 0x375 DUP10 PUSH2 0xFF6 JUMP JUMPDEST MLOAD PUSH1 0x40 MLOAD PUSH4 0x38ED1739 PUSH1 0xE0 SHL DUP2 MSTORE SWAP7 DUP8 SWAP6 DUP7 SWAP5 DUP6 SWAP4 TIMESTAMP SWAP3 ADDRESS SWAP3 CALLDATALOAD PUSH1 0x4 DUP8 ADD PUSH2 0x127E JUMP JUMPDEST SUB SWAP3 GAS CALL SWAP1 DUP2 ISZERO PUSH2 0x745 JUMPI DUP10 SWAP2 PUSH2 0x72B JUMPI JUMPDEST POP DUP1 MLOAD DUP1 PUSH1 0x0 NOT DUP2 ADD GT PUSH2 0x717 JUMPI SWAP2 PUSH1 0x20 PUSH2 0x3D1 PUSH2 0x41A SWAP8 SWAP6 SWAP4 DUP13 SWAP8 SWAP6 PUSH1 0x0 NOT ADD SWAP1 PUSH2 0x1029 JUMP JUMPDEST MLOAD SWAP3 DUP4 SWAP1 PUSH1 0x1 PUSH1 0x1 PUSH1 0xA0 SHL SUB PUSH2 0x3E6 DUP9 PUSH2 0x1019 JUMP JUMPDEST MLOAD AND DUP9 PUSH1 0x40 MLOAD DUP1 SWAP12 DUP2 SWAP6 DUP3 SWAP5 PUSH4 0x95EA7B3 PUSH1 0xE0 SHL DUP5 MSTORE PUSH1 0x4 DUP5 ADD PUSH1 0x20 SWAP1 SWAP4 SWAP3 SWAP2 SWAP4 PUSH1 0x40 DUP2 ADD SWAP5 PUSH1 0x1 DUP1 PUSH1 0xA0 SHL SUB AND DUP2 MSTORE ADD MSTORE JUMP JUMPDEST SUB SWAP3 PUSH1 0x1 PUSH1 0x1 PUSH1 0xA0 SHL SUB AND GAS CALL SWAP6 DUP7 ISZERO PUSH2 0x63C JUMPI PUSH2 0x447 DUP7 SWAP3 PUSH2 0x462 SWAP3 PUSH2 0x484 SWAP10 PUSH2 0x6F8 JUMPI JUMPDEST POP DUP10 PUSH2 0x11BC JUMP JUMPDEST SWAP5 PUSH1 0x1 PUSH1 0x1 PUSH1 0xA0 SHL SUB SWAP1 PUSH2 0x45A SWAP1 PUSH2 0x1019 JUMP JUMPDEST MLOAD AND SWAP4 PUSH2 0x1019 JUMP JUMPDEST MLOAD PUSH1 0x40 MLOAD PUSH4 0x38ED1739 PUSH1 0xE0 SHL DUP2 MSTORE SWAP7 DUP8 SWAP6 DUP7 SWAP5 DUP6 SWAP4 TIMESTAMP SWAP3 ADDRESS SWAP3 PUSH1 0x4 DUP8 ADD PUSH2 0x127E JUMP JUMPDEST SUB SWAP3 GAS CALL SWAP1 DUP2 ISZERO PUSH2 0x63C JUMPI DUP6 SWAP2 PUSH2 0x6D6 JUMPI JUMPDEST POP DUP1 MLOAD PUSH1 0x0 NOT DUP2 ADD SWAP2 SWAP1 DUP3 GT PUSH2 0x6C2 JUMPI SWAP1 PUSH2 0x4B0 SWAP2 PUSH2 0x1029 JUMP JUMPDEST MLOAD SWAP1 DUP1 DUP3 LT PUSH2 0x671 JUMPI PUSH1 0x40 MLOAD PUSH4 0xA9059CBB PUSH1 0xE0 SHL DUP1 DUP3 MSTORE PUSH32 0x0 PUSH1 0x1 PUSH1 0x1 PUSH1 0xA0 SHL SUB AND PUSH1 0x4 DUP4 ADD MSTORE PUSH1 0x24 DUP3 ADD DUP4 SWAP1 MSTORE SWAP3 SWAP1 SWAP2 SWAP1 PUSH1 0x20 DUP4 DUP1 PUSH1 0x44 DUP2 ADD SUB DUP2 DUP11 DUP10 CALLDATALOAD PUSH1 0x1 PUSH1 0x1 PUSH1 0xA0 SHL SUB AND GAS CALL SWAP3 DUP4 ISZERO PUSH2 0x666 JUMPI PUSH2 0x52F SWAP4 PUSH2 0x647 JUMPI JUMPDEST POP PUSH2 0x1259 JUMP JUMPDEST SWAP1 DUP2 PUSH2 0x57E JUMPI JUMPDEST POP PUSH1 0x40 DUP1 MLOAD SWAP4 CALLDATALOAD DUP5 MSTORE PUSH1 0x20 DUP5 ADD SWAP2 SWAP1 SWAP2 MSTORE SWAP1 CALLDATALOAD PUSH1 0x1 PUSH1 0x1 PUSH1 0xA0 SHL SUB AND SWAP2 PUSH32 0x1736D858CEBB9F1FC945933505F6898D6F81E41EE20CFB09E7031C9A817240C6 SWAP2 SWAP1 LOG2 PUSH1 0x1 DUP2 SSTORE DUP1 RETURN JUMPDEST PUSH1 0x40 MLOAD SWAP1 DUP2 MSTORE PUSH1 0x1 PUSH1 0x1 PUSH1 0xA0 SHL SUB PUSH32 0x0 AND PUSH1 0x4 DUP3 ADD MSTORE PUSH1 0x24 DUP2 ADD DUP3 SWAP1 MSTORE SWAP2 PUSH1 0x20 DUP4 DUP1 PUSH1 0x44 DUP2 ADD SUB DUP2 DUP9 DUP6 CALLDATALOAD PUSH1 0x1 PUSH1 0x1 PUSH1 0xA0 SHL SUB AND GAS CALL SWAP2 DUP3 ISZERO PUSH2 0x63C JUMPI PUSH32 0x1736D858CEBB9F1FC945933505F6898D6F81E41EE20CFB09E7031C9A817240C6 SWAP4 PUSH1 0x40 SWAP4 PUSH2 0x60D JUMPI JUMPDEST POP SWAP2 POP SWAP2 PUSH2 0x536 JUMP JUMPDEST PUSH2 0x62E SWAP1 PUSH1 0x20 RETURNDATASIZE PUSH1 0x20 GT PUSH2 0x635 JUMPI JUMPDEST PUSH2 0x626 DUP2 DUP4 PUSH2 0xFBC JUMP JUMPDEST DUP2 ADD SWAP1 PUSH2 0x1266 JUMP JUMPDEST POP CODESIZE PUSH2 0x604 JUMP JUMPDEST POP RETURNDATASIZE PUSH2 0x61C JUMP JUMPDEST PUSH1 0x40 MLOAD RETURNDATASIZE DUP8 DUP3 RETURNDATACOPY RETURNDATASIZE SWAP1 REVERT JUMPDEST PUSH2 0x65F SWAP1 PUSH1 0x20 RETURNDATASIZE PUSH1 0x20 GT PUSH2 0x635 JUMPI PUSH2 0x626 DUP2 DUP4 PUSH2 0xFBC JUMP JUMPDEST POP CODESIZE PUSH2 0x529 JUMP JUMPDEST PUSH1 0x40 MLOAD RETURNDATASIZE DUP10 DUP3 RETURNDATACOPY RETURNDATASIZE SWAP1 REVERT JUMPDEST PUSH1 0x40 MLOAD PUSH3 0x461BCD PUSH1 0xE5 SHL DUP2 MSTORE PUSH1 0x20 PUSH1 0x4 DUP3 ADD MSTORE PUSH1 0x23 PUSH1 0x24 DUP3 ADD MSTORE PUSH32 0x547261646520776173206E6F742070726F66697461626C652061667465722066 PUSH1 0x44 DUP3 ADD MSTORE PUSH3 0x656573 PUSH1 0xE8 SHL PUSH1 0x64 DUP3 ADD MSTORE PUSH1 0x84 SWAP1 REVERT JUMPDEST PUSH4 0x4E487B71 PUSH1 0xE0 SHL DUP7 MSTORE PUSH1 0x11 PUSH1 0x4 MSTORE PUSH1 0x24 DUP7 REVERT JUMPDEST PUSH2 0x6F2 SWAP2 POP RETURNDATASIZE DUP1 DUP8 DUP4 RETURNDATACOPY PUSH2 0x6EA DUP2 DUP4 PUSH2 0xFBC JUMP JUMPDEST DUP2 ADD SWAP1 PUSH2 0x11DF JUMP JUMPDEST CODESIZE PUSH2 0x496 JUMP JUMPDEST PUSH2 0x710 SWAP1 PUSH1 0x20 RETURNDATASIZE PUSH1 0x20 GT PUSH2 0x635 JUMPI PUSH2 0x626 DUP2 DUP4 PUSH2 0xFBC JUMP JUMPDEST POP CODESIZE PUSH2 0x440 JUMP JUMPDEST PUSH4 0x4E487B71 PUSH1 0xE0 SHL DUP11 MSTORE PUSH1 0x11 PUSH1 0x4 MSTORE PUSH1 0x24 DUP11 REVERT JUMPDEST PUSH2 0x73F SWAP2 POP RETURNDATASIZE DUP1 DUP12 DUP4 RETURNDATACOPY PUSH2 0x6EA DUP2 DUP4 PUSH2 0xFBC JUMP JUMPDEST CODESIZE PUSH2 0x3AA JUMP JUMPDEST PUSH1 0x40 MLOAD RETURNDATASIZE DUP12 DUP3 RETURNDATACOPY RETURNDATASIZE SWAP1 REVERT JUMPDEST PUSH2 0x768 SWAP1 PUSH1 0x20 RETURNDATASIZE PUSH1 0x20 GT PUSH2 0x635 JUMPI PUSH2 0x626 DUP2 DUP4 PUSH2 0xFBC JUMP JUMPDEST POP CODESIZE PUSH2 0x356 JUMP JUMPDEST PUSH1 0x40 MLOAD RETURNDATASIZE DUP5 DUP3 RETURNDATACOPY RETURNDATASIZE SWAP1 REVERT JUMPDEST PUSH1 0x40 MLOAD PUSH3 0x461BCD PUSH1 0xE5 SHL DUP2 MSTORE PUSH1 0x20 PUSH1 0x4 DUP3 ADD MSTORE PUSH1 0x21 PUSH1 0x24 DUP3 ADD MSTORE PUSH32 0x507269636520646576696174657320746F6F206D7563682066726F6D20545741 PUSH1 0x44 DUP3 ADD MSTORE PUSH1 0x5 PUSH1 0xFC SHL PUSH1 0x64 DUP3 ADD MSTORE PUSH1 0x84 SWAP1 REVERT JUMPDEST PUSH4 0x4E487B71 PUSH1 0xE0 SHL DUP13 MSTORE PUSH1 0x12 PUSH1 0x4 MSTORE PUSH1 0x24 DUP13 REVERT JUMPDEST PUSH4 0x4E487B71 PUSH1 0xE0 SHL DUP13 MSTORE PUSH1 0x11 PUSH1 0x4 MSTORE PUSH1 0x24 DUP13 REVERT JUMPDEST SWAP1 PUSH2 0x7FB SWAP2 PUSH2 0x1259 JUMP JUMPDEST PUSH2 0x2CC JUMP JUMPDEST PUSH2 0x814 SWAP2 POP RETURNDATASIZE DUP1 DUP16 DUP4 RETURNDATACOPY PUSH2 0x6EA DUP2 DUP4 PUSH2 0xFBC JUMP JUMPDEST CODESIZE PUSH2 0x2B3 JUMP JUMPDEST PUSH1 0x40 MLOAD RETURNDATASIZE DUP15 DUP3 RETURNDATACOPY RETURNDATASIZE SWAP1 REVERT JUMPDEST SWAP1 POP PUSH1 0x20 DUP2 RETURNDATASIZE PUSH1 0x20 GT PUSH2 0x854 JUMPI JUMPDEST DUP2 PUSH2 0x840 PUSH1 0x20 SWAP4 DUP4 PUSH2 0xFBC JUMP JUMPDEST DUP2 ADD SUB SLT PUSH2 0x84F JUMPI MLOAD CODESIZE PUSH2 0x250 JUMP JUMPDEST PUSH1 0x0 DUP1 REVERT JUMPDEST RETURNDATASIZE SWAP2 POP PUSH2 0x833 JUMP JUMPDEST PUSH1 0x40 MLOAD RETURNDATASIZE DUP14 DUP3 RETURNDATACOPY RETURNDATASIZE SWAP1 REVERT JUMPDEST PUSH4 0x4E487B71 PUSH1 0xE0 SHL DUP12 MSTORE PUSH1 0x32 PUSH1 0x4 MSTORE PUSH1 0x24 DUP12 REVERT JUMPDEST PUSH4 0x4E487B71 PUSH1 0xE0 SHL DUP13 MSTORE PUSH1 0x32 PUSH1 0x4 MSTORE PUSH1 0x24 DUP13 REVERT JUMPDEST DUP13 DUP1 REVERT JUMPDEST PUSH4 0x4E487B71 PUSH1 0xE0 SHL DUP14 MSTORE PUSH1 0x32 PUSH1 0x4 MSTORE PUSH1 0x24 DUP14 REVERT JUMPDEST PUSH1 0x40 MLOAD PUSH3 0x461BCD PUSH1 0xE5 SHL DUP2 MSTORE PUSH1 0x20 PUSH1 0x4 DUP3 ADD MSTORE PUSH1 0x1B PUSH1 0x24 DUP3 ADD MSTORE PUSH32 0x496E76616C696420706174687320636F6E66696775726174696F6E0000000000 PUSH1 0x44 DUP3 ADD MSTORE PUSH1 0x64 SWAP1 REVERT JUMPDEST PUSH1 0x40 MLOAD PUSH3 0x461BCD PUSH1 0xE5 SHL DUP2 MSTORE PUSH1 0x20 PUSH1 0x4 DUP3 ADD MSTORE PUSH1 0x1C PUSH1 0x24 DUP3 ADD MSTORE PUSH32 0x496E76616C696420726F7574657220636F6E66696775726174696F6E00000000 PUSH1 0x44 DUP3 ADD MSTORE PUSH1 0x64 SWAP1 REVERT JUMPDEST POP PUSH1 0x1 PUSH1 0x1 PUSH1 0xA0 SHL SUB PUSH2 0x943 DUP12 PUSH2 0x1019 JUMP JUMPDEST MLOAD AND ISZERO ISZERO PUSH2 0x1AB JUMP JUMPDEST POP PUSH1 0x1 PUSH1 0x1 PUSH1 0xA0 SHL SUB PUSH2 0x95E DUP12 PUSH2 0xFF6 JUMP JUMPDEST MLOAD AND ISZERO ISZERO PUSH2 0x1A5 JUMP JUMPDEST PUSH1 0x40 MLOAD PUSH3 0x461BCD PUSH1 0xE5 SHL DUP2 MSTORE PUSH1 0x20 PUSH1 0x4 DUP3 ADD MSTORE PUSH1 0x1E PUSH1 0x24 DUP3 ADD MSTORE PUSH32 0x496E76616C696420746F6B656E20616464726573732070726F76696465640000 PUSH1 0x44 DUP3 ADD MSTORE PUSH1 0x64 SWAP1 REVERT JUMPDEST POP PUSH1 0x1 PUSH1 0x1 PUSH1 0xA0 SHL SUB DUP9 AND ISZERO ISZERO PUSH2 0x195 JUMP JUMPDEST PUSH1 0x40 MLOAD PUSH3 0x461BCD PUSH1 0xE5 SHL DUP2 MSTORE PUSH1 0x20 PUSH1 0x4 DUP3 ADD MSTORE PUSH1 0x33 PUSH1 0x24 DUP3 ADD MSTORE PUSH32 0x5468697320636F6E7472616374206F6E6C792068616E646C65732073696E676C PUSH1 0x44 DUP3 ADD MSTORE PUSH19 0x652D746F6B656E20666C617368206C6F616E73 PUSH1 0x68 SHL PUSH1 0x64 DUP3 ADD MSTORE PUSH1 0x84 SWAP1 REVERT JUMPDEST PUSH1 0x40 MLOAD PUSH3 0x461BCD PUSH1 0xE5 SHL DUP2 MSTORE PUSH1 0x20 PUSH1 0x4 DUP3 ADD MSTORE PUSH1 0x2A PUSH1 0x24 DUP3 ADD MSTORE PUSH32 0x4F6E6C792042616C616E636572205661756C742063616E2063616C6C20746869 PUSH1 0x44 DUP3 ADD MSTORE PUSH10 0x3990333AB731BA34B7B7 PUSH1 0xB1 SHL PUSH1 0x64 DUP3 ADD MSTORE PUSH1 0x84 SWAP1 REVERT JUMPDEST PUSH1 0x40 MLOAD PUSH4 0x3EE5AEB5 PUSH1 0xE0 SHL DUP2 MSTORE PUSH1 0x4 SWAP1 REVERT JUMPDEST DUP8 DUP1 REVERT JUMPDEST DUP7 DUP1 REVERT JUMPDEST DUP5 DUP1 REVERT JUMPDEST DUP3 DUP1 REVERT JUMPDEST POP CALLVALUE PUSH2 0xA3 JUMPI DUP1 PUSH1 0x3 NOT CALLDATASIZE ADD SLT PUSH2 0xA3 JUMPI PUSH1 0x40 MLOAD PUSH32 0x0 PUSH1 0x1 PUSH1 0x1 PUSH1 0xA0 SHL SUB AND DUP2 MSTORE PUSH1 0x20 SWAP1 RETURN JUMPDEST POP CALLVALUE PUSH2 0xA3 JUMPI DUP1 PUSH1 0x3 NOT CALLDATASIZE ADD SLT PUSH2 0xA3 JUMPI PUSH1 0x40 MLOAD PUSH32 0x0 PUSH1 0x1 PUSH1 0x1 PUSH1 0xA0 SHL SUB AND DUP2 MSTORE PUSH1 0x20 SWAP1 RETURN JUMPDEST POP CALLVALUE PUSH2 0xA3 JUMPI PUSH1 0x3 NOT SWAP1 PUSH1 0x60 CALLDATASIZE DUP4 ADD SLT PUSH2 0xA3 JUMPI PUSH2 0xB3F PUSH2 0xE97 JUMP JUMPDEST SWAP2 PUSH1 0x44 CALLDATALOAD PUSH8 0xFFFFFFFFFFFFFFFF DUP2 GT PUSH2 0xA95 JUMPI PUSH2 0xB60 SWAP1 CALLDATASIZE SWAP1 PUSH1 0x4 ADD PUSH2 0xEC1 JUMP JUMPDEST SWAP1 SWAP2 SWAP1 PUSH1 0x1 PUSH1 0x1 PUSH1 0xA0 SHL SUB SWAP1 PUSH2 0xB99 CALLER PUSH32 0x0 DUP5 AND EQ PUSH2 0xF20 JUMP JUMPDEST PUSH1 0x40 MLOAD SWAP4 PUSH2 0xBA6 DUP6 PUSH2 0xFA0 JUMP JUMPDEST PUSH1 0x1 SWAP4 DUP5 DUP7 MSTORE PUSH1 0x20 SWAP8 DUP9 CALLDATASIZE DUP2 DUP10 ADD CALLDATACOPY DUP5 PUSH2 0xBBF DUP9 PUSH2 0xFF6 JUMP JUMPDEST SWAP2 AND SWAP1 MSTORE PUSH1 0x40 MLOAD SWAP5 PUSH2 0xBD0 DUP7 PUSH2 0xFA0 JUMP JUMPDEST DUP1 DUP7 MSTORE DUP9 DUP7 ADD SWAP5 DUP10 CALLDATASIZE DUP8 CALLDATACOPY PUSH1 0x24 CALLDATALOAD PUSH2 0xBE7 DUP9 PUSH2 0xFF6 JUMP JUMPDEST MSTORE PUSH2 0xBF4 DUP6 DUP6 ADD DUP6 PUSH2 0x10A3 JUMP JUMPDEST POP POP POP POP POP SWAP1 DUP3 PUSH32 0x0 AND DUP1 EXTCODESIZE ISZERO PUSH2 0xD51 JUMPI PUSH1 0x44 DUP13 SWAP3 DUP4 DUP7 SWAP4 DUP5 PUSH1 0x40 MLOAD SWAP8 DUP9 SWAP7 DUP8 SWAP6 PUSH4 0xC640752D PUSH1 0xE0 SHL DUP8 MSTORE AND PUSH1 0x4 DUP7 ADD MSTORE AND PUSH1 0x24 DUP5 ADD MSTORE GAS CALL DUP1 ISZERO PUSH2 0xD46 JUMPI PUSH2 0xD33 JUMPI JUMPDEST POP PUSH32 0x0 AND SWAP6 DUP7 EXTCODESIZE ISZERO PUSH2 0xD2F JUMPI SWAP1 DUP10 PUSH2 0xCAC PUSH1 0x40 MLOAD SWAP10 PUSH4 0x2E1C224F PUSH1 0xE1 SHL DUP12 MSTORE ADDRESS PUSH1 0x4 DUP13 ADD MSTORE PUSH1 0x80 PUSH1 0x24 DUP13 ADD MSTORE PUSH1 0x84 DUP12 ADD SWAP1 PUSH2 0x117F JUMP JUMPDEST SWAP3 DUP5 DUP11 DUP6 SUB ADD PUSH1 0x44 DUP12 ADD MSTORE MLOAD SWAP3 DUP4 DUP2 MSTORE ADD SWAP6 SWAP2 DUP10 JUMPDEST DUP2 DUP2 LT PUSH2 0xD1C JUMPI POP POP POP POP DUP7 SWAP8 DUP7 DUP6 DUP6 DUP11 SWAP9 SWAP7 DUP4 SWAP9 SWAP7 DUP11 SWAP7 DUP6 DUP1 SWAP10 SUB ADD PUSH1 0x64 DUP7 ADD MSTORE DUP2 DUP5 MSTORE DUP6 DUP5 ADD CALLDATACOPY DUP2 DUP2 ADD DUP5 ADD DUP6 SWAP1 MSTORE PUSH1 0x1F ADD PUSH1 0x1F NOT AND ADD SUB ADD SWAP3 GAS CALL DUP1 ISZERO PUSH2 0x76F JUMPI PUSH2 0xD0C JUMPI POP RETURN JUMPDEST PUSH2 0xD15 SWAP1 PUSH2 0xF76 JUMP JUMPDEST PUSH2 0xA3 JUMPI DUP1 RETURN JUMPDEST DUP4 MLOAD DUP9 MSTORE SWAP7 DUP12 ADD SWAP7 SWAP3 DUP12 ADD SWAP3 DUP3 ADD PUSH2 0xCC1 JUMP JUMPDEST DUP9 DUP1 REVERT JUMPDEST PUSH2 0xD3F SWAP1 SWAP10 SWAP2 SWAP10 PUSH2 0xF76 JUMP JUMPDEST SWAP8 CODESIZE PUSH2 0xC57 JUMP JUMPDEST PUSH1 0x40 MLOAD RETURNDATASIZE DUP13 DUP3 RETURNDATACOPY RETURNDATASIZE SWAP1 REVERT JUMPDEST DUP12 DUP1 REVERT JUMPDEST POP CALLVALUE PUSH2 0xA3 JUMPI PUSH1 0x20 DUP1 PUSH1 0x3 NOT CALLDATASIZE ADD SLT PUSH2 0xE93 JUMPI PUSH2 0xD70 PUSH2 0xE97 JUMP JUMPDEST PUSH32 0x0 SWAP1 PUSH1 0x1 PUSH1 0x1 PUSH1 0xA0 SHL SUB SWAP1 PUSH2 0xDA8 CALLER DUP4 DUP6 AND EQ PUSH2 0xF20 JUMP JUMPDEST AND SWAP2 PUSH1 0x40 MLOAD PUSH4 0x70A08231 PUSH1 0xE0 SHL DUP2 MSTORE ADDRESS PUSH1 0x4 DUP3 ADD MSTORE DUP2 DUP2 PUSH1 0x24 DUP2 DUP8 GAS STATICCALL SWAP1 DUP2 ISZERO PUSH2 0x63C JUMPI DUP6 SWAP2 PUSH2 0xE66 JUMPI JUMPDEST POP DUP1 PUSH2 0xDDD JUMPI DUP5 DUP1 RETURN JUMPDEST PUSH1 0x40 MLOAD PUSH4 0xA9059CBB PUSH1 0xE0 SHL DUP2 MSTORE PUSH1 0x1 PUSH1 0x1 PUSH1 0xA0 SHL SUB SWAP4 SWAP1 SWAP4 AND PUSH1 0x4 DUP5 ADD MSTORE PUSH1 0x24 DUP4 ADD DUP2 SWAP1 MSTORE DUP2 DUP4 PUSH1 0x44 DUP2 DUP9 DUP9 GAS CALL SWAP3 DUP4 ISZERO PUSH2 0x63C JUMPI PUSH32 0xD65D7B028C704B54BCBE20B09B06F59223A87A757489CBA0AB12AFBB79647239 SWAP4 PUSH2 0xE49 JUMPI JUMPDEST POP PUSH1 0x40 MLOAD SWAP1 DUP2 MSTORE LOG2 CODESIZE DUP1 DUP1 DUP1 DUP5 DUP1 RETURN JUMPDEST PUSH2 0xE5F SWAP1 DUP4 RETURNDATASIZE DUP6 GT PUSH2 0x635 JUMPI PUSH2 0x626 DUP2 DUP4 PUSH2 0xFBC JUMP JUMPDEST POP CODESIZE PUSH2 0xE39 JUMP JUMPDEST SWAP1 POP DUP2 DUP2 DUP2 RETURNDATASIZE DUP4 GT PUSH2 0xE8C JUMPI JUMPDEST PUSH2 0xE7D DUP2 DUP4 PUSH2 0xFBC JUMP JUMPDEST DUP2 ADD SUB SLT PUSH2 0xA91 JUMPI MLOAD CODESIZE PUSH2 0xDD3 JUMP JUMPDEST POP RETURNDATASIZE PUSH2 0xE73 JUMP JUMPDEST POP DUP1 REVERT JUMPDEST PUSH1 0x4 CALLDATALOAD SWAP1 PUSH1 0x1 PUSH1 0x1 PUSH1 0xA0 SHL SUB DUP3 AND DUP3 SUB PUSH2 0x84F JUMPI JUMP JUMPDEST CALLDATALOAD SWAP1 PUSH1 0x1 PUSH1 0x1 PUSH1 0xA0 SHL SUB DUP3 AND DUP3 SUB PUSH2 0x84F JUMPI JUMP JUMPDEST SWAP2 DUP2 PUSH1 0x1F DUP5 ADD SLT ISZERO PUSH2 0x84F JUMPI DUP3 CALLDATALOAD SWAP2 PUSH8 0xFFFFFFFFFFFFFFFF DUP4 GT PUSH2 0x84F JUMPI PUSH1 0x20 DUP4 DUP2 DUP7 ADD SWAP6 ADD ADD GT PUSH2 0x84F JUMPI JUMP JUMPDEST SWAP2 DUP2 PUSH1 0x1F DUP5 ADD SLT ISZERO PUSH2 0x84F JUMPI DUP3 CALLDATALOAD SWAP2 PUSH8 0xFFFFFFFFFFFFFFFF DUP4 GT PUSH2 0x84F JUMPI PUSH1 0x20 DUP1 DUP6 ADD SWAP5 DUP5 PUSH1 0x5 SHL ADD ADD GT PUSH2 0x84F JUMPI JUMP JUMPDEST ISZERO PUSH2 0xF27 JUMPI JUMP JUMPDEST PUSH1 0x40 MLOAD PUSH3 0x461BCD PUSH1 0xE5 SHL DUP2 MSTORE PUSH1 0x20 PUSH1 0x4 DUP3 ADD MSTORE PUSH1 0x21 PUSH1 0x24 DUP3 ADD MSTORE PUSH32 0x4F6E6C79206F776E65722063616E2063616C6C20746869732066756E6374696F PUSH1 0x44 DUP3 ADD MSTORE PUSH1 0x37 PUSH1 0xF9 SHL PUSH1 0x64 DUP3 ADD MSTORE PUSH1 0x84 SWAP1 REVERT JUMPDEST PUSH8 0xFFFFFFFFFFFFFFFF DUP2 GT PUSH2 0xF8A JUMPI PUSH1 0x40 MSTORE JUMP JUMPDEST PUSH4 0x4E487B71 PUSH1 0xE0 SHL PUSH1 0x0 MSTORE PUSH1 0x41 PUSH1 0x4 MSTORE PUSH1 0x24 PUSH1 0x0 REVERT JUMPDEST PUSH1 0x40 DUP2 ADD SWAP1 DUP2 LT PUSH8 0xFFFFFFFFFFFFFFFF DUP3 GT OR PUSH2 0xF8A JUMPI PUSH1 0x40 MSTORE JUMP JUMPDEST SWAP1 PUSH1 0x1F DUP1 NOT SWAP2 ADD AND DUP2 ADD SWAP1 DUP2 LT PUSH8 0xFFFFFFFFFFFFFFFF DUP3 GT OR PUSH2 0xF8A JUMPI PUSH1 0x40 MSTORE JUMP JUMPDEST PUSH8 0xFFFFFFFFFFFFFFFF DUP2 GT PUSH2 0xF8A JUMPI PUSH1 0x5 SHL PUSH1 0x20 ADD SWAP1 JUMP JUMPDEST DUP1 MLOAD ISZERO PUSH2 0x1003 JUMPI PUSH1 0x20 ADD SWAP1 JUMP JUMPDEST PUSH4 0x4E487B71 PUSH1 0xE0 SHL PUSH1 0x0 MSTORE PUSH1 0x32 PUSH1 0x4 MSTORE PUSH1 0x24 PUSH1 0x0 REVERT JUMPDEST DUP1 MLOAD PUSH1 0x1 LT ISZERO PUSH2 0x1003 JUMPI PUSH1 0x40 ADD SWAP1 JUMP JUMPDEST DUP1 MLOAD DUP3 LT ISZERO PUSH2 0x1003 JUMPI PUSH1 0x20 SWAP2 PUSH1 0x5 SHL ADD ADD SWAP1 JUMP JUMPDEST DUP2 PUSH1 0x1F DUP3 ADD SLT ISZERO PUSH2 0x84F JUMPI DUP1 CALLDATALOAD SWAP2 PUSH2 0x1054 DUP4 PUSH2 0xFDE JUMP JUMPDEST SWAP3 PUSH2 0x1062 PUSH1 0x40 MLOAD SWAP5 DUP6 PUSH2 0xFBC JUMP JUMPDEST DUP1 DUP5 MSTORE PUSH1 0x20 SWAP3 DUP4 DUP1 DUP7 ADD SWAP3 PUSH1 0x5 SHL DUP3 ADD ADD SWAP3 DUP4 GT PUSH2 0x84F JUMPI DUP4 ADD SWAP1 JUMPDEST DUP3 DUP3 LT PUSH2 0x108C JUMPI POP POP POP POP SWAP1 JUMP JUMPDEST DUP4 DUP1 SWAP2 PUSH2 0x1098 DUP5 PUSH2 0xEAD JUMP JUMPDEST DUP2 MSTORE ADD SWAP2 ADD SWAP1 PUSH2 0x107E JUMP JUMPDEST SWAP2 SWAP1 PUSH1 0xE0 DUP4 DUP3 SUB SLT PUSH2 0x84F JUMPI PUSH2 0x10B8 DUP4 PUSH2 0xEAD JUMP JUMPDEST SWAP3 PUSH1 0x20 SWAP3 PUSH2 0x10C7 DUP5 DUP4 ADD PUSH2 0xEAD JUMP JUMPDEST SWAP4 PUSH8 0xFFFFFFFFFFFFFFFF SWAP1 PUSH1 0x40 DUP5 ADD CALLDATALOAD DUP3 DUP2 GT PUSH2 0x84F JUMPI DUP6 PUSH2 0x10EA SWAP2 DUP7 ADD PUSH2 0x103D JUMP JUMPDEST SWAP5 PUSH1 0x60 DUP6 ADD CALLDATALOAD DUP4 DUP2 GT PUSH2 0x84F JUMPI DUP6 ADD DUP2 PUSH1 0x1F DUP3 ADD SLT ISZERO PUSH2 0x84F JUMPI DUP1 CALLDATALOAD PUSH2 0x110F DUP2 PUSH2 0xFDE JUMP JUMPDEST SWAP5 PUSH2 0x111D PUSH1 0x40 MLOAD SWAP7 DUP8 PUSH2 0xFBC JUMP JUMPDEST DUP2 DUP7 MSTORE DUP5 DUP1 DUP8 ADD SWAP3 PUSH1 0x5 SHL DUP5 ADD ADD SWAP4 DUP1 DUP6 GT PUSH2 0x84F JUMPI DUP6 DUP5 ADD SWAP3 JUMPDEST DUP6 DUP5 LT PUSH2 0x115A JUMPI POP POP POP POP POP POP POP SWAP2 PUSH1 0x80 DUP2 ADD CALLDATALOAD SWAP2 PUSH1 0xC0 PUSH1 0xA0 DUP4 ADD CALLDATALOAD SWAP3 ADD CALLDATALOAD SWAP1 JUMP JUMPDEST DUP4 CALLDATALOAD DUP4 DUP2 GT PUSH2 0x84F JUMPI DUP8 SWAP2 PUSH2 0x1174 DUP5 DUP5 DUP1 SWAP5 DUP11 ADD ADD PUSH2 0x103D JUMP JUMPDEST DUP2 MSTORE ADD SWAP4 ADD SWAP3 PUSH2 0x1138 JUMP JUMPDEST SWAP1 DUP2 MLOAD DUP1 DUP3 MSTORE PUSH1 0x20 DUP1 DUP1 SWAP4 ADD SWAP4 ADD SWAP2 PUSH1 0x0 JUMPDEST DUP3 DUP2 LT PUSH2 0x119F JUMPI POP POP POP POP SWAP1 JUMP JUMPDEST DUP4 MLOAD PUSH1 0x1 PUSH1 0x1 PUSH1 0xA0 SHL SUB AND DUP6 MSTORE SWAP4 DUP2 ADD SWAP4 SWAP3 DUP2 ADD SWAP3 PUSH1 0x1 ADD PUSH2 0x1191 JUMP JUMPDEST SWAP2 SWAP1 DUP3 ADD DUP1 SWAP3 GT PUSH2 0x11C9 JUMPI JUMP JUMPDEST PUSH4 0x4E487B71 PUSH1 0xE0 SHL PUSH1 0x0 MSTORE PUSH1 0x11 PUSH1 0x4 MSTORE PUSH1 0x24 PUSH1 0x0 REVERT JUMPDEST PUSH1 0x20 SWAP1 DUP2 DUP2 DUP5 SUB SLT PUSH2 0x84F JUMPI DUP1 MLOAD SWAP1 PUSH8 0xFFFFFFFFFFFFFFFF DUP3 GT PUSH2 0x84F JUMPI ADD SWAP2 DUP1 PUSH1 0x1F DUP5 ADD SLT ISZERO PUSH2 0x84F JUMPI DUP3 MLOAD PUSH2 0x1215 DUP2 PUSH2 0xFDE JUMP JUMPDEST SWAP4 PUSH2 0x1223 PUSH1 0x40 MLOAD SWAP6 DUP7 PUSH2 0xFBC JUMP JUMPDEST DUP2 DUP6 MSTORE DUP4 DUP1 DUP7 ADD SWAP3 PUSH1 0x5 SHL DUP3 ADD ADD SWAP3 DUP4 GT PUSH2 0x84F JUMPI DUP4 ADD SWAP1 JUMPDEST DUP3 DUP3 LT PUSH2 0x124A JUMPI POP POP POP POP SWAP1 JUMP JUMPDEST DUP2 MLOAD DUP2 MSTORE SWAP1 DUP4 ADD SWAP1 DUP4 ADD PUSH2 0x123C JUMP JUMPDEST SWAP2 SWAP1 DUP3 SUB SWAP2 DUP3 GT PUSH2 0x11C9 JUMPI JUMP JUMPDEST SWAP1 DUP2 PUSH1 0x20 SWAP2 SUB SLT PUSH2 0x84F JUMPI MLOAD DUP1 ISZERO ISZERO DUP2 SUB PUSH2 0x84F JUMPI SWAP1 JUMP JUMPDEST SWAP2 SWAP3 PUSH1 0x80 SWAP4 PUSH2 0x12A3 SWAP3 SWAP8 SWAP7 SWAP6 SWAP8 DUP5 MSTORE PUSH1 0x20 DUP5 ADD MSTORE PUSH1 0xA0 PUSH1 0x40 DUP5 ADD MSTORE PUSH1 0xA0 DUP4 ADD SWAP1 PUSH2 0x117F JUMP JUMPDEST PUSH1 0x1 PUSH1 0x1 PUSH1 0xA0 SHL SUB SWAP1 SWAP6 AND PUSH1 0x60 DUP3 ADD MSTORE ADD MSTORE JUMP INVALID LOG2 PUSH5 0x6970667358 0x22 SLT KECCAK256 CALLDATACOPY TIMESTAMP 0x5C DUP13 LOG4 0x5E 0xA6 INVALID DUP1 0xD2 0xC SWAP3 SWAP10 0xD3 ADD PC 0xE2 PUSH13 0x7AEFB3C5EA52985AFF8F1F3B59 LOG2 PUSH5 0x736F6C6343 STOP ADDMOD EQ STOP CALLER "},"methodIdentifiers":{"owner()":"8da5cb5b","receiveFlashLoan(address[],uint256[],uint256[],bytes)":"f04f2707","startFlashloan(address,uint256,bytes)":"8298a90d","twapOracle()":"9043292a","vault()":"fbfa77cf","withdraw(address)":"51cff8d9"}}}}}