{"contracts/contracts/UniswapV2TwapOracle.sol":{"UniswapV2TwapOracle":{"abi":[{"inputs":[{"internalType":"address","name":"_factory","type":"address"}],"stateMutability":"nonpayable","type":"constructor"},{"inputs":[],"name":"PERIOD","outputs":[{"internalType":"uint24","name":"","type":"uint24"}],"stateMutability":"view","type":"function"},{"inputs":[{"internalType":"address","name":"tokenIn","type":"address"},{"internalType":"uint256","name":"amountIn","type":"uint256"},{"internalType":"address","name":"tokenOut","type":"address"}],"name":"consult","outputs":[{"internalType":"uint256","name":"amountOut","type":"uint256"}],"stateMutability":"view","type":"function"},{"inputs":[],"name":"factory","outputs":[{"internalType":"address","name":"","type":"address"}],"stateMutability":"view","type":"function"},{"inputs":[{"internalType":"address","name":"","type":"address"}],"name":"pairObservations","outputs":[{"internalType":"uint32","name":"blockTimestamp","type":"uint32"},{"internalType":"uint256","name":"price0Cumulative","type":"uint256"},{"internalType":"uint256","name":"price1Cumulative","type":"uint256"}],"stateMutability":"view","type":"function"},{"inputs":[{"internalType":"address","name":"tokenA","type":"address"},{"internalType":"address","name":"tokenB","type":"address"}],"name":"update","outputs":[],"stateMutability":"nonpayable","type":"function"}],"evm":{"bytecode":{"linkReferences":{},"object":"60a03461007757601f6107e438819003918201601f19168301916001600160401b0383118484101761007c5780849260209460405283398101031261007757516001600160a01b0381168103610077576080526040516107519081610093823960805181818160b10152818161013b01526104630152f35b600080fd5b634e487b7160e01b600052604160045260246000fdfe608060408181526004918236101561001657600080fd5b600092833560e01c918263402e1abf14610393575081638c86f1e4146100fc57508063b4d1d795146100e0578063c45a01551461009d5763c640752d1461005c57600080fd5b3461009957366003190112610096576100736103e5565b6024356001600160a01b03811681036100925761008f91610454565b80f35b8280fd5b80fd5b5080fd5b5034610099578160031936011261009957517f00000000000000000000000000000000000000000000000000000000000000006001600160a01b03168152602090f35b5034610099578160031936011261009957602090516102588152f35b83915034610099576060366003190112610099576101186103e5565b926024803593604435936001600160a01b038086168603610092578061015f878a7f00000000000000000000000000000000000000000000000000000000000000006105cc565b16808452602098899285845287862092885161017a81610400565b63ffffffff916002838754169687845260018101549884019889520154958b830196875215610358578a51635909c0d560e01b815294939291908e868a81845afa958615610311578f90918a989796959493928c9761031b575b508d51635a3d549360e01b815298899182905afa968715610311578f8b986102dd575b5050518116428216038181116102cb57169a6102588c106102895761021d829184610683565b50169116146000146102765750610236925051906106f8565b868102968188041490151715610266578415610256575050505191048152f35b634e487b7160e01b825260129052fd5b634e487b7160e01b825260119052fd5b9150506102849151906106f8565b610236565b8a5162461bcd60e51b81528089018f9052601f818c01527f4f7261636c653a204e4f545f454e4f5547485f54494d455f454c4150534544006044820152606490fd5b634e487b7160e01b8a52601189528a8afd5b9080929850813d831161030a575b6102f58183610432565b81010312610306575195818f6101f7565b8980fd5b503d6102eb565b8c513d8c823e3d90fd5b92939495965096975081813d8311610351575b6103388183610432565b8101031261030657908e899796959493925195386101d4565b503d61032e565b8a5162461bcd60e51b81528089018f90526016818c01527527b930b1b6329d102727afa7a129a2a92b20aa24a7a760511b6044820152606490fd5b849084346100925760203660031901126100925760609281906001600160a01b036103bc6103e5565b16815280602052209063ffffffff82541691600260018201549101549284526020840152820152f35b600435906001600160a01b03821682036103fb57565b600080fd5b6060810190811067ffffffffffffffff82111761041c57604052565b634e487b7160e01b600052604160045260246000fd5b90601f8019910116810190811067ffffffffffffffff82111761041c57604052565b6001600160a01b0391610487917f00000000000000000000000000000000000000000000000000000000000000006105cc565b166040805190635909c0d560e01b82526020918281600481875afa9081156105c157600091610594575b508151635a3d549360e01b8152918383600481885afa9283156105895760009361055a575b508460005260008452806000209063ffffffff9182815416156105485782905416421461054057600060029582519761050e89610400565b844216895281890195865283890196875282525260002094511663ffffffff1985541617845551600184015551910155565b505050505050565b50600060029582519761050e89610400565b90928482813d8311610582575b6105718183610432565b8101031261009657505191386104d6565b503d610567565b50513d6000823e3d90fd5b908382813d83116105ba575b6105aa8183610432565b81010312610096575051386104b1565b503d6105a0565b82513d6000823e3d90fd5b916105d691610683565b919060405160208101916bffffffffffffffffffffffff199485809260601b16845260601b1660348201526028815261060e81610400565b51902060405192602084019260ff60f81b845260601b16602184015260358301527f96e8ac4277198ff8b6f785478aa9a39f403cb768dd02cbee326c3e7da348845f6055830152605582526080820182811067ffffffffffffffff82111761041c57604052905190206001600160a01b031690565b6001600160a01b038281169082168082146106a55710156106a15791565b9091565b60405162461bcd60e51b815260206004820152602560248201527f556e697377617056324c6962726172793a204944454e544943414c5f41444452604482015264455353455360d81b6064820152608490fd5b9190820391821161070557565b634e487b7160e01b600052601160045260246000fdfea264697066735822122044c947f9f2b9a6ad8b082c2ebc627000243f80f3c29bd29bd53d4a596dc987d064736f6c63430008140033","opcodes":"PUSH1 0xA0 CALLVALUE PUSH2 0x77 JUMPI PUSH1 0x1F PUSH2 0x7E4 CODESIZE DUP2 SWAP1 SUB SWAP2 DUP3 ADD PUSH1 0x1F NOT AND DUP4 ADD SWAP2 PUSH1 0x1 PUSH1 0x1 PUSH1 0x40 SHL SUB DUP4 GT DUP5 DUP5 LT OR PUSH2 0x7C JUMPI DUP1 DUP5 SWAP3 PUSH1 0x20 SWAP5 PUSH1 0x40 MSTORE DUP4 CODECOPY DUP2 ADD SUB SLT PUSH2 0x77 JUMPI MLOAD PUSH1 0x1 PUSH1 0x1 PUSH1 0xA0 SHL SUB DUP2 AND DUP2 SUB PUSH2 0x77 JUMPI PUSH1 0x80 MSTORE PUSH1 0x40 MLOAD PUSH2 0x751 SWAP1 DUP2 PUSH2 0x93 DUP3 CODECOPY PUSH1 0x80 MLOAD DUP2 DUP2 DUP2 PUSH1 0xB1 ADD MSTORE DUP2 DUP2 PUSH2 0x13B ADD MSTORE PUSH2 0x463 ADD MSTORE RETURN JUMPDEST PUSH1 0x0 DUP1 REVERT JUMPDEST PUSH4 0x4E487B71 PUSH1 0xE0 SHL PUSH1 0x0 MSTORE PUSH1 0x41 PUSH1 0x4 MSTORE PUSH1 0x24 PUSH1 0x0 REVERT INVALID PUSH1 0x80 PUSH1 0x40 DUP2 DUP2 MSTORE PUSH1 0x4 SWAP2 DUP3 CALLDATASIZE LT ISZERO PUSH2 0x16 JUMPI PUSH1 0x0 DUP1 REVERT JUMPDEST PUSH1 0x0 SWAP3 DUP4 CALLDATALOAD PUSH1 0xE0 SHR SWAP2 DUP3 PUSH4 0x402E1ABF EQ PUSH2 0x393 JUMPI POP DUP2 PUSH4 0x8C86F1E4 EQ PUSH2 0xFC JUMPI POP DUP1 PUSH4 0xB4D1D795 EQ PUSH2 0xE0 JUMPI DUP1 PUSH4 0xC45A0155 EQ PUSH2 0x9D JUMPI PUSH4 0xC640752D EQ PUSH2 0x5C JUMPI PUSH1 0x0 DUP1 REVERT JUMPDEST CALLVALUE PUSH2 0x99 JUMPI CALLDATASIZE PUSH1 0x3 NOT ADD SLT PUSH2 0x96 JUMPI PUSH2 0x73 PUSH2 0x3E5 JUMP JUMPDEST PUSH1 0x24 CALLDATALOAD PUSH1 0x1 PUSH1 0x1 PUSH1 0xA0 SHL SUB DUP2 AND DUP2 SUB PUSH2 0x92 JUMPI PUSH2 0x8F SWAP2 PUSH2 0x454 JUMP JUMPDEST DUP1 RETURN JUMPDEST DUP3 DUP1 REVERT JUMPDEST DUP1 REVERT JUMPDEST POP DUP1 REVERT JUMPDEST POP CALLVALUE PUSH2 0x99 JUMPI DUP2 PUSH1 0x3 NOT CALLDATASIZE ADD SLT PUSH2 0x99 JUMPI MLOAD PUSH32 0x0 PUSH1 0x1 PUSH1 0x1 PUSH1 0xA0 SHL SUB AND DUP2 MSTORE PUSH1 0x20 SWAP1 RETURN JUMPDEST POP CALLVALUE PUSH2 0x99 JUMPI DUP2 PUSH1 0x3 NOT CALLDATASIZE ADD SLT PUSH2 0x99 JUMPI PUSH1 0x20 SWAP1 MLOAD PUSH2 0x258 DUP2 MSTORE RETURN JUMPDEST DUP4 SWAP2 POP CALLVALUE PUSH2 0x99 JUMPI PUSH1 0x60 CALLDATASIZE PUSH1 0x3 NOT ADD SLT PUSH2 0x99 JUMPI PUSH2 0x118 PUSH2 0x3E5 JUMP JUMPDEST SWAP3 PUSH1 0x24 DUP1 CALLDATALOAD SWAP4 PUSH1 0x44 CALLDATALOAD SWAP4 PUSH1 0x1 PUSH1 0x1 PUSH1 0xA0 SHL SUB DUP1 DUP7 AND DUP7 SUB PUSH2 0x92 JUMPI DUP1 PUSH2 0x15F DUP8 DUP11 PUSH32 0x0 PUSH2 0x5CC JUMP JUMPDEST AND DUP1 DUP5 MSTORE PUSH1 0x20 SWAP9 DUP10 SWAP3 DUP6 DUP5 MSTORE DUP8 DUP7 KECCAK256 SWAP3 DUP9 MLOAD PUSH2 0x17A DUP2 PUSH2 0x400 JUMP JUMPDEST PUSH4 0xFFFFFFFF SWAP2 PUSH1 0x2 DUP4 DUP8 SLOAD AND SWAP7 DUP8 DUP5 MSTORE PUSH1 0x1 DUP2 ADD SLOAD SWAP9 DUP5 ADD SWAP9 DUP10 MSTORE ADD SLOAD SWAP6 DUP12 DUP4 ADD SWAP7 DUP8 MSTORE ISZERO PUSH2 0x358 JUMPI DUP11 MLOAD PUSH4 0x5909C0D5 PUSH1 0xE0 SHL DUP2 MSTORE SWAP5 SWAP4 SWAP3 SWAP2 SWAP1 DUP15 DUP7 DUP11 DUP2 DUP5 GAS STATICCALL SWAP6 DUP7 ISZERO PUSH2 0x311 JUMPI DUP16 SWAP1 SWAP2 DUP11 SWAP9 SWAP8 SWAP7 SWAP6 SWAP5 SWAP4 SWAP3 DUP13 SWAP8 PUSH2 0x31B JUMPI JUMPDEST POP DUP14 MLOAD PUSH4 0x5A3D5493 PUSH1 0xE0 SHL DUP2 MSTORE SWAP9 DUP10 SWAP2 DUP3 SWAP1 GAS STATICCALL SWAP7 DUP8 ISZERO PUSH2 0x311 JUMPI DUP16 DUP12 SWAP9 PUSH2 0x2DD JUMPI JUMPDEST POP POP MLOAD DUP2 AND TIMESTAMP DUP3 AND SUB DUP2 DUP2 GT PUSH2 0x2CB JUMPI AND SWAP11 PUSH2 0x258 DUP13 LT PUSH2 0x289 JUMPI PUSH2 0x21D DUP3 SWAP2 DUP5 PUSH2 0x683 JUMP JUMPDEST POP AND SWAP2 AND EQ PUSH1 0x0 EQ PUSH2 0x276 JUMPI POP PUSH2 0x236 SWAP3 POP MLOAD SWAP1 PUSH2 0x6F8 JUMP JUMPDEST DUP7 DUP2 MUL SWAP7 DUP2 DUP9 DIV EQ SWAP1 ISZERO OR ISZERO PUSH2 0x266 JUMPI DUP5 ISZERO PUSH2 0x256 JUMPI POP POP POP MLOAD SWAP2 DIV DUP2 MSTORE RETURN JUMPDEST PUSH4 0x4E487B71 PUSH1 0xE0 SHL DUP3 MSTORE PUSH1 0x12 SWAP1 MSTORE REVERT JUMPDEST PUSH4 0x4E487B71 PUSH1 0xE0 SHL DUP3 MSTORE PUSH1 0x11 SWAP1 MSTORE REVERT JUMPDEST SWAP2 POP POP PUSH2 0x284 SWAP2 MLOAD SWAP1 PUSH2 0x6F8 JUMP JUMPDEST PUSH2 0x236 JUMP JUMPDEST DUP11 MLOAD PUSH3 0x461BCD PUSH1 0xE5 SHL DUP2 MSTORE DUP1 DUP10 ADD DUP16 SWAP1 MSTORE PUSH1 0x1F DUP2 DUP13 ADD MSTORE PUSH32 0x4F7261636C653A204E4F545F454E4F5547485F54494D455F454C415053454400 PUSH1 0x44 DUP3 ADD MSTORE PUSH1 0x64 SWAP1 REVERT JUMPDEST PUSH4 0x4E487B71 PUSH1 0xE0 SHL DUP11 MSTORE PUSH1 0x11 DUP10 MSTORE DUP11 DUP11 REVERT JUMPDEST SWAP1 DUP1 SWAP3 SWAP9 POP DUP2 RETURNDATASIZE DUP4 GT PUSH2 0x30A JUMPI JUMPDEST PUSH2 0x2F5 DUP2 DUP4 PUSH2 0x432 JUMP JUMPDEST DUP2 ADD SUB SLT PUSH2 0x306 JUMPI MLOAD SWAP6 DUP2 DUP16 PUSH2 0x1F7 JUMP JUMPDEST DUP10 DUP1 REVERT JUMPDEST POP RETURNDATASIZE PUSH2 0x2EB JUMP JUMPDEST DUP13 MLOAD RETURNDATASIZE DUP13 DUP3 RETURNDATACOPY RETURNDATASIZE SWAP1 REVERT JUMPDEST SWAP3 SWAP4 SWAP5 SWAP6 SWAP7 POP SWAP7 SWAP8 POP DUP2 DUP2 RETURNDATASIZE DUP4 GT PUSH2 0x351 JUMPI JUMPDEST PUSH2 0x338 DUP2 DUP4 PUSH2 0x432 JUMP JUMPDEST DUP2 ADD SUB SLT PUSH2 0x306 JUMPI SWAP1 DUP15 DUP10 SWAP8 SWAP7 SWAP6 SWAP5 SWAP4 SWAP3 MLOAD SWAP6 CODESIZE PUSH2 0x1D4 JUMP JUMPDEST POP RETURNDATASIZE PUSH2 0x32E JUMP JUMPDEST DUP11 MLOAD PUSH3 0x461BCD PUSH1 0xE5 SHL DUP2 MSTORE DUP1 DUP10 ADD DUP16 SWAP1 MSTORE PUSH1 0x16 DUP2 DUP13 ADD MSTORE PUSH22 0x27B930B1B6329D102727AFA7A129A2A92B20AA24A7A7 PUSH1 0x51 SHL PUSH1 0x44 DUP3 ADD MSTORE PUSH1 0x64 SWAP1 REVERT JUMPDEST DUP5 SWAP1 DUP5 CALLVALUE PUSH2 0x92 JUMPI PUSH1 0x20 CALLDATASIZE PUSH1 0x3 NOT ADD SLT PUSH2 0x92 JUMPI PUSH1 0x60 SWAP3 DUP2 SWAP1 PUSH1 0x1 PUSH1 0x1 PUSH1 0xA0 SHL SUB PUSH2 0x3BC PUSH2 0x3E5 JUMP JUMPDEST AND DUP2 MSTORE DUP1 PUSH1 0x20 MSTORE KECCAK256 SWAP1 PUSH4 0xFFFFFFFF DUP3 SLOAD AND SWAP2 PUSH1 0x2 PUSH1 0x1 DUP3 ADD SLOAD SWAP2 ADD SLOAD SWAP3 DUP5 MSTORE PUSH1 0x20 DUP5 ADD MSTORE DUP3 ADD MSTORE RETURN JUMPDEST PUSH1 0x4 CALLDATALOAD SWAP1 PUSH1 0x1 PUSH1 0x1 PUSH1 0xA0 SHL SUB DUP3 AND DUP3 SUB PUSH2 0x3FB JUMPI JUMP JUMPDEST PUSH1 0x0 DUP1 REVERT JUMPDEST PUSH1 0x60 DUP2 ADD SWAP1 DUP2 LT PUSH8 0xFFFFFFFFFFFFFFFF DUP3 GT OR PUSH2 0x41C JUMPI PUSH1 0x40 MSTORE JUMP JUMPDEST PUSH4 0x4E487B71 PUSH1 0xE0 SHL PUSH1 0x0 MSTORE PUSH1 0x41 PUSH1 0x4 MSTORE PUSH1 0x24 PUSH1 0x0 REVERT JUMPDEST SWAP1 PUSH1 0x1F DUP1 NOT SWAP2 ADD AND DUP2 ADD SWAP1 DUP2 LT PUSH8 0xFFFFFFFFFFFFFFFF DUP3 GT OR PUSH2 0x41C JUMPI PUSH1 0x40 MSTORE JUMP JUMPDEST PUSH1 0x1 PUSH1 0x1 PUSH1 0xA0 SHL SUB SWAP2 PUSH2 0x487 SWAP2 PUSH32 0x0 PUSH2 0x5CC JUMP JUMPDEST AND PUSH1 0x40 DUP1 MLOAD SWAP1 PUSH4 0x5909C0D5 PUSH1 0xE0 SHL DUP3 MSTORE PUSH1 0x20 SWAP2 DUP3 DUP2 PUSH1 0x4 DUP2 DUP8 GAS STATICCALL SWAP1 DUP2 ISZERO PUSH2 0x5C1 JUMPI PUSH1 0x0 SWAP2 PUSH2 0x594 JUMPI JUMPDEST POP DUP2 MLOAD PUSH4 0x5A3D5493 PUSH1 0xE0 SHL DUP2 MSTORE SWAP2 DUP4 DUP4 PUSH1 0x4 DUP2 DUP9 GAS STATICCALL SWAP3 DUP4 ISZERO PUSH2 0x589 JUMPI PUSH1 0x0 SWAP4 PUSH2 0x55A JUMPI JUMPDEST POP DUP5 PUSH1 0x0 MSTORE PUSH1 0x0 DUP5 MSTORE DUP1 PUSH1 0x0 KECCAK256 SWAP1 PUSH4 0xFFFFFFFF SWAP2 DUP3 DUP2 SLOAD AND ISZERO PUSH2 0x548 JUMPI DUP3 SWAP1 SLOAD AND TIMESTAMP EQ PUSH2 0x540 JUMPI PUSH1 0x0 PUSH1 0x2 SWAP6 DUP3 MLOAD SWAP8 PUSH2 0x50E DUP10 PUSH2 0x400 JUMP JUMPDEST DUP5 TIMESTAMP AND DUP10 MSTORE DUP2 DUP10 ADD SWAP6 DUP7 MSTORE DUP4 DUP10 ADD SWAP7 DUP8 MSTORE DUP3 MSTORE MSTORE PUSH1 0x0 KECCAK256 SWAP5 MLOAD AND PUSH4 0xFFFFFFFF NOT DUP6 SLOAD AND OR DUP5 SSTORE MLOAD PUSH1 0x1 DUP5 ADD SSTORE MLOAD SWAP2 ADD SSTORE JUMP JUMPDEST POP POP POP POP POP POP JUMP JUMPDEST POP PUSH1 0x0 PUSH1 0x2 SWAP6 DUP3 MLOAD SWAP8 PUSH2 0x50E DUP10 PUSH2 0x400 JUMP JUMPDEST SWAP1 SWAP3 DUP5 DUP3 DUP2 RETURNDATASIZE DUP4 GT PUSH2 0x582 JUMPI JUMPDEST PUSH2 0x571 DUP2 DUP4 PUSH2 0x432 JUMP JUMPDEST DUP2 ADD SUB SLT PUSH2 0x96 JUMPI POP MLOAD SWAP2 CODESIZE PUSH2 0x4D6 JUMP JUMPDEST POP RETURNDATASIZE PUSH2 0x567 JUMP JUMPDEST POP MLOAD RETURNDATASIZE PUSH1 0x0 DUP3 RETURNDATACOPY RETURNDATASIZE SWAP1 REVERT JUMPDEST SWAP1 DUP4 DUP3 DUP2 RETURNDATASIZE DUP4 GT PUSH2 0x5BA JUMPI JUMPDEST PUSH2 0x5AA DUP2 DUP4 PUSH2 0x432 JUMP JUMPDEST DUP2 ADD SUB SLT PUSH2 0x96 JUMPI POP MLOAD CODESIZE PUSH2 0x4B1 JUMP JUMPDEST POP RETURNDATASIZE PUSH2 0x5A0 JUMP JUMPDEST DUP3 MLOAD RETURNDATASIZE PUSH1 0x0 DUP3 RETURNDATACOPY RETURNDATASIZE SWAP1 REVERT JUMPDEST SWAP2 PUSH2 0x5D6 SWAP2 PUSH2 0x683 JUMP JUMPDEST SWAP2 SWAP1 PUSH1 0x40 MLOAD PUSH1 0x20 DUP2 ADD SWAP2 PUSH12 0xFFFFFFFFFFFFFFFFFFFFFFFF NOT SWAP5 DUP6 DUP1 SWAP3 PUSH1 0x60 SHL AND DUP5 MSTORE PUSH1 0x60 SHL AND PUSH1 0x34 DUP3 ADD MSTORE PUSH1 0x28 DUP2 MSTORE PUSH2 0x60E DUP2 PUSH2 0x400 JUMP JUMPDEST MLOAD SWAP1 KECCAK256 PUSH1 0x40 MLOAD SWAP3 PUSH1 0x20 DUP5 ADD SWAP3 PUSH1 0xFF PUSH1 0xF8 SHL DUP5 MSTORE PUSH1 0x60 SHL AND PUSH1 0x21 DUP5 ADD MSTORE PUSH1 0x35 DUP4 ADD MSTORE PUSH32 0x96E8AC4277198FF8B6F785478AA9A39F403CB768DD02CBEE326C3E7DA348845F PUSH1 0x55 DUP4 ADD MSTORE PUSH1 0x55 DUP3 MSTORE PUSH1 0x80 DUP3 ADD DUP3 DUP2 LT PUSH8 0xFFFFFFFFFFFFFFFF DUP3 GT OR PUSH2 0x41C JUMPI PUSH1 0x40 MSTORE SWAP1 MLOAD SWAP1 KECCAK256 PUSH1 0x1 PUSH1 0x1 PUSH1 0xA0 SHL SUB AND SWAP1 JUMP JUMPDEST PUSH1 0x1 PUSH1 0x1 PUSH1 0xA0 SHL SUB DUP3 DUP2 AND SWAP1 DUP3 AND DUP1 DUP3 EQ PUSH2 0x6A5 JUMPI LT ISZERO PUSH2 0x6A1 JUMPI SWAP2 JUMP JUMPDEST SWAP1 SWAP2 JUMP JUMPDEST PUSH1 0x40 MLOAD PUSH3 0x461BCD PUSH1 0xE5 SHL DUP2 MSTORE PUSH1 0x20 PUSH1 0x4 DUP3 ADD MSTORE PUSH1 0x25 PUSH1 0x24 DUP3 ADD MSTORE PUSH32 0x556E697377617056324C6962726172793A204944454E544943414C5F41444452 PUSH1 0x44 DUP3 ADD MSTORE PUSH5 0x4553534553 PUSH1 0xD8 SHL PUSH1 0x64 DUP3 ADD MSTORE PUSH1 0x84 SWAP1 REVERT JUMPDEST SWAP2 SWAP1 DUP3 SUB SWAP2 DUP3 GT PUSH2 0x705 JUMPI JUMP JUMPDEST PUSH4 0x4E487B71 PUSH1 0xE0 SHL PUSH1 0x0 MSTORE PUSH1 0x11 PUSH1 0x4 MSTORE PUSH1 0x24 PUSH1 0x0 REVERT INVALID LOG2 PUSH5 0x6970667358 0x22 SLT KECCAK256 PREVRANDAO 0xC9 SELFBALANCE 0xF9 CALLCODE 0xB9 0xA6 0xAD DUP12 ADDMOD 0x2C 0x2E 0xBC PUSH3 0x700024 EXTCODEHASH DUP1 RETURN 0xC2 SWAP12 0xD2 SWAP12 0xD5 RETURNDATASIZE 0x4A MSIZE PUSH14 0xC987D064736F6C63430008140033 "},"methodIdentifiers":{"PERIOD()":"b4d1d795","consult(address,uint256,address)":"8c86f1e4","factory()":"c45a0155","pairObservations(address)":"402e1abf","update(address,address)":"c640752d"}}}}}