{"contracts/contracts/ArbitrageBalancer.sol":{"ArbitrageBalancer":{"abi":[{"inputs":[{"internalType":"address","name":"_vault","type":"address"},{"internalType":"address","name":"_twapOracle","type":"address"}],"stateMutability":"nonpayable","type":"constructor"},{"inputs":[],"name":"EnforcedPause","type":"error"},{"inputs":[],"name":"ExpectedPause","type":"error"},{"inputs":[],"name":"ReentrancyGuardReentrantCall","type":"error"},{"anonymous":false,"inputs":[{"indexed":true,"internalType":"address","name":"token","type":"address"},{"indexed":false,"internalType":"uint256","name":"loanAmount","type":"uint256"},{"indexed":false,"internalType":"int256","name":"netProfit","type":"int256"}],"name":"FlashLoanExecuted","type":"event"},{"anonymous":false,"inputs":[{"indexed":false,"internalType":"address","name":"account","type":"address"}],"name":"Paused","type":"event"},{"anonymous":false,"inputs":[{"indexed":true,"internalType":"address","name":"token","type":"address"},{"indexed":false,"internalType":"uint256","name":"amount","type":"uint256"}],"name":"ProfitWithdrawal","type":"event"},{"anonymous":false,"inputs":[{"indexed":false,"internalType":"address","name":"account","type":"address"}],"name":"Unpaused","type":"event"},{"inputs":[],"name":"owner","outputs":[{"internalType":"address","name":"","type":"address"}],"stateMutability":"view","type":"function"},{"inputs":[],"name":"pause","outputs":[],"stateMutability":"nonpayable","type":"function"},{"inputs":[],"name":"paused","outputs":[{"internalType":"bool","name":"","type":"bool"}],"stateMutability":"view","type":"function"},{"inputs":[{"internalType":"address[]","name":"tokens","type":"address[]"},{"internalType":"uint256[]","name":"amounts","type":"uint256[]"},{"internalType":"uint256[]","name":"feeAmounts","type":"uint256[]"},{"internalType":"bytes","name":"userData","type":"bytes"}],"name":"receiveFlashLoan","outputs":[],"stateMutability":"nonpayable","type":"function"},{"inputs":[{"internalType":"address","name":"token","type":"address"},{"internalType":"uint256","name":"amount","type":"uint256"},{"internalType":"bytes","name":"userData","type":"bytes"}],"name":"startFlashloan","outputs":[],"stateMutability":"nonpayable","type":"function"},{"inputs":[],"name":"twapOracle","outputs":[{"internalType":"contract UniswapV2TwapOracle","name":"","type":"address"}],"stateMutability":"view","type":"function"},{"inputs":[],"name":"unpause","outputs":[],"stateMutability":"nonpayable","type":"function"},{"inputs":[],"name":"vault","outputs":[{"internalType":"contract IVault","name":"","type":"address"}],"stateMutability":"view","type":"function"},{"inputs":[{"internalType":"address","name":"tokenAddress","type":"address"}],"name":"withdraw","outputs":[],"stateMutability":"nonpayable","type":"function"}],"evm":{"bytecode":{"linkReferences":{},"object":"60e0346100dc57601f61158038819003918201601f19168301916001600160401b038311848410176100e15780849260409485528339810103126100dc57610052602061004b836100f7565b92016100f7565b6001600055336080526001600160a01b0391821660a0521660c052604051611474908161010c82396080518181816105af01528181610b1501528181610b5b01528181610c1901528181610e440152610f80015260a051818181609501528181610159015281816104ea0152610d09015260c05181818161024101528181610ad00152610cac0152f35b600080fd5b634e487b7160e01b600052604160045260246000fd5b51906001600160a01b03821682036100dc5756fe6080604052600436101561001257600080fd5b6000803560e01c80633f4ba83a14610f6957806351cff8d914610e275780635c975abb14610e045780638298a90d14610bca5780638456cb5914610b445780638da5cb5b14610aff5780639043292a14610aba578063f04f2707146100c75763fbfa77cf1461008057600080fd5b346100c457806003193601126100c4576040517f00000000000000000000000000000000000000000000000000000000000000006001600160a01b03168152602090f35b80fd5b50346100c45760803660031901126100c45767ffffffffffffffff600435818111610ab6576100fa903690600401611058565b91602435818111610ab257610113903690600401611058565b919093604435828111610aae5761012e903690600401611058565b919092606435908111610aaa5761014990369060040161102a565b906002895414610a9857600289557f00000000000000000000000000000000000000000000000000000000000000006001600160a01b03163303610a4057600183036109df5761019b9181019061122a565b9398929791959990949660018060a01b038b161515806109cd575b156109885760028a51148061096d575b80610952575b1561090d5760028951036108c857156108b4578a356001600160a01b03811690036108b0571561089c57156108885761020790358a35611343565b604051632321bc7960e21b81526001600160a01b0398891660048201528a35602482015285891660448201529097602090829060649082907f0000000000000000000000000000000000000000000000000000000000000000165afa90811561087d578b91610846575b506102bf8b6001600160a01b036102878a61117d565b51166102928961117d565b51908d60405180958194829363d06ca61f60e01b8452356004840152604060248401526044830190611306565b03915afa801561083b576102da918d91610821575b506111a0565b518180821115610812576102ed916113e0565b612710908181029181830414901517156107fe5781156107ea57041161079b5761035790899060206001600160a01b036103268961117d565b5160405163095ea7b360e01b815291166001600160a01b031660048201528b35602482015293849081906044820190565b0381858d356001600160a01b03165af1928315610790576103b993610771575b506001600160a01b036103898861117d565b51168a836103968961117d565b516040516338ed173960e01b815296879586948593429230923560048701611405565b03925af190811561076657899161074c575b50805180600019810111610738579160206103f261043b9795938c979560001901906111b0565b519283906001600160a01b03610407886111a0565b511688604051809b8195829463095ea7b360e01b84526004840160209093929193604081019460018060a01b031681520152565b03926001600160a01b03165af195861561065d576104688692610483926104a599610719575b5089611343565b946001600160a01b039061047b906111a0565b5116936111a0565b516040516338ed173960e01b8152968795869485934292309260048701611405565b03925af190811561065d5785916106f7575b5080516000198101919082116106e357906104d1916111b0565b51908082106106925760405163a9059cbb60e01b8082527f00000000000000000000000000000000000000000000000000000000000000006001600160a01b031660048301526024820183905292909190602083806044810103818a89356001600160a01b03165af19283156106875761055093610668575b506113e0565b908161059f575b506040805193358452602084019190915290356001600160a01b0316917f1736d858cebb9f1fc945933505f6898d6f81e41ee20cfb09e7031c9a817240c69190a26001815580f35b6040519081526001600160a01b037f00000000000000000000000000000000000000000000000000000000000000001660048201526024810182905291602083806044810103818885356001600160a01b03165af191821561065d577f1736d858cebb9f1fc945933505f6898d6f81e41ee20cfb09e7031c9a817240c69360409361062e575b50915091610557565b61064f9060203d602011610656575b6106478183611143565b8101906113ed565b5038610625565b503d61063d565b6040513d87823e3d90fd5b6106809060203d602011610656576106478183611143565b503861054a565b6040513d89823e3d90fd5b60405162461bcd60e51b815260206004820152602360248201527f547261646520776173206e6f742070726f66697461626c65206166746572206660448201526265657360e81b6064820152608490fd5b634e487b7160e01b86526011600452602486fd5b61071391503d8087833e61070b8183611143565b810190611366565b386104b7565b6107319060203d602011610656576106478183611143565b5038610461565b634e487b7160e01b8a52601160045260248afd5b61076091503d808b833e61070b8183611143565b386103cb565b6040513d8b823e3d90fd5b6107899060203d602011610656576106478183611143565b5038610377565b6040513d84823e3d90fd5b60405162461bcd60e51b815260206004820152602160248201527f507269636520646576696174657320746f6f206d7563682066726f6d205457416044820152600560fc1b6064820152608490fd5b634e487b7160e01b8c52601260045260248cfd5b634e487b7160e01b8c52601160045260248cfd5b9061081c916113e0565b6102ed565b61083591503d808f833e61070b8183611143565b386102d4565b6040513d8e823e3d90fd5b90506020813d602011610875575b8161086160209383611143565b81010312610870575138610271565b600080fd5b3d9150610854565b6040513d8d823e3d90fd5b634e487b7160e01b8b52603260045260248bfd5b634e487b7160e01b8c52603260045260248cfd5b8c80fd5b634e487b7160e01b8d52603260045260248dfd5b60405162461bcd60e51b815260206004820152601b60248201527f496e76616c696420706174687320636f6e66696775726174696f6e00000000006044820152606490fd5b60405162461bcd60e51b815260206004820152601c60248201527f496e76616c696420726f7574657220636f6e66696775726174696f6e000000006044820152606490fd5b506001600160a01b036109648b6111a0565b511615156101cc565b506001600160a01b0361097f8b61117d565b511615156101c6565b60405162461bcd60e51b815260206004820152601e60248201527f496e76616c696420746f6b656e20616464726573732070726f766964656400006044820152606490fd5b506001600160a01b03881615156101b6565b60405162461bcd60e51b815260206004820152603360248201527f5468697320636f6e7472616374206f6e6c792068616e646c65732073696e676c604482015272652d746f6b656e20666c617368206c6f616e7360681b6064820152608490fd5b60405162461bcd60e51b815260206004820152602a60248201527f4f6e6c792042616c616e636572205661756c742063616e2063616c6c207468696044820152693990333ab731ba34b7b760b11b6064820152608490fd5b604051633ee5aeb560e01b8152600490fd5b8780fd5b8680fd5b8480fd5b8280fd5b50346100c457806003193601126100c4576040517f00000000000000000000000000000000000000000000000000000000000000006001600160a01b03168152602090f35b50346100c457806003193601126100c4576040517f00000000000000000000000000000000000000000000000000000000000000006001600160a01b03168152602090f35b50346100c457806003193601126100c457610b89337f00000000000000000000000000000000000000000000000000000000000000006001600160a01b031614611089565b610b916110df565b600160ff19815416176001557f62e78cea01bee320cd4e420270b5ea74000d11b0c9f74754ebdbfc544b05a2586020604051338152a180f35b50346100c457600319906060368301126100c457610be6611000565b9160443567ffffffffffffffff8111610ab657610c0790369060040161102a565b9091906001600160a01b0390610c40337f0000000000000000000000000000000000000000000000000000000000000000841614611089565b610c486110df565b60405193610c5585611127565b60019384865260209788368189013784610c6e8861117d565b9116905260405194610c7f86611127565b8086528886019489368737602435610c968861117d565b52610ca38585018561122a565b505050505090827f000000000000000000000000000000000000000000000000000000000000000016803b15610e005760448c9283869384604051978896879563c640752d60e01b87521660048601521660248401525af18015610df557610de2575b507f00000000000000000000000000000000000000000000000000000000000000001695863b15610dde579089610d5b60405199632e1c224f60e11b8b523060048c0152608060248c015260848b0190611306565b92848a85030160448b01525192838152019591895b818110610dcb575050505086978685858a98968398968a9685809903016064860152818452858401378181018401859052601f01601f1916010301925af1801561079057610dbb5750f35b610dc4906110fd565b6100c45780f35b83518852968b0196928b01928201610d70565b8880fd5b610dee909991996110fd565b9738610d06565b6040513d8c823e3d90fd5b8b80fd5b50346100c457806003193601126100c457602060ff600154166040519015158152f35b50346100c457602080600319360112610f6557610e42611000565b7f0000000000000000000000000000000000000000000000000000000000000000906001600160a01b0390610e7a3383851614611089565b16916040516370a0823160e01b81523060048201528181602481875afa90811561065d578591610f38575b5080610eaf578480f35b60405163a9059cbb60e01b81526001600160a01b0393909316600484015260248301819052818360448188885af192831561065d577fd65d7b028c704b54bcbe20b09b06f59223a87a757489cba0ab12afbb7964723993610f1b575b50604051908152a2388080808480f35b610f3190833d8511610656576106478183611143565b5038610f0b565b90508181813d8311610f5e575b610f4f8183611143565b81010312610ab2575138610ea5565b503d610f45565b5080fd5b50346100c457806003193601126100c457610fae337f00000000000000000000000000000000000000000000000000000000000000006001600160a01b031614611089565b60015460ff811615610fee5760ff19166001557f5db9ee0a495bf2e6ff9c91a7834c1ba4fdd244a5e8aa4e537bd38aeae4b073aa6020604051338152a180f35b604051638dfc202b60e01b8152600490fd5b600435906001600160a01b038216820361087057565b35906001600160a01b038216820361087057565b9181601f840112156108705782359167ffffffffffffffff8311610870576020838186019501011161087057565b9181601f840112156108705782359167ffffffffffffffff8311610870576020808501948460051b01011161087057565b1561109057565b60405162461bcd60e51b815260206004820152602160248201527f4f6e6c79206f776e65722063616e2063616c6c20746869732066756e6374696f6044820152603760f91b6064820152608490fd5b60ff600154166110eb57565b60405163d93c066560e01b8152600490fd5b67ffffffffffffffff811161111157604052565b634e487b7160e01b600052604160045260246000fd5b6040810190811067ffffffffffffffff82111761111157604052565b90601f8019910116810190811067ffffffffffffffff82111761111157604052565b67ffffffffffffffff81116111115760051b60200190565b80511561118a5760200190565b634e487b7160e01b600052603260045260246000fd5b80516001101561118a5760400190565b805182101561118a5760209160051b010190565b81601f82011215610870578035916111db83611165565b926111e96040519485611143565b808452602092838086019260051b820101928311610870578301905b828210611213575050505090565b83809161121f84611016565b815201910190611205565b919060e0838203126108705761123f83611016565b9260209261124e848301611016565b9367ffffffffffffffff90604084013582811161087057856112719186016111c4565b94606085013583811161087057850181601f8201121561087057803561129681611165565b946112a46040519687611143565b818652848087019260051b8401019380851161087057858401925b8584106112e157505050505050509160808101359160c060a083013592013590565b83358381116108705787916112fb848480948a01016111c4565b8152019301926112bf565b90815180825260208080930193019160005b828110611326575050505090565b83516001600160a01b031685529381019392810192600101611318565b9190820180921161135057565b634e487b7160e01b600052601160045260246000fd5b60209081818403126108705780519067ffffffffffffffff821161087057019180601f8401121561087057825161139c81611165565b936113aa6040519586611143565b818552838086019260051b820101928311610870578301905b8282106113d1575050505090565b815181529083019083016113c3565b9190820391821161135057565b90816020910312610870575180151581036108705790565b919260809361142a92979695978452602084015260a0604084015260a0830190611306565b6001600160a01b039095166060820152015256fea2646970667358221220672ea63cf445a7bd6a2a2f97d201e9e30f9179ab7f94b81a742f55bd90625d2964736f6c63430008140033","opcodes":"PUSH1 0xE0 CALLVALUE PUSH2 0xDC JUMPI PUSH1 0x1F PUSH2 0x1580 CODESIZE DUP2 SWAP1 SUB SWAP2 DUP3 ADD PUSH1 0x1F NOT AND DUP4 ADD SWAP2 PUSH1 0x1 PUSH1 0x1 PUSH1 0x40 SHL SUB DUP4 GT DUP5 DUP5 LT OR PUSH2 0xE1 JUMPI DUP1 DUP5 SWAP3 PUSH1 0x40 SWAP5 DUP6 MSTORE DUP4 CODECOPY DUP2 ADD SUB SLT PUSH2 0xDC JUMPI PUSH2 0x52 PUSH1 0x20 PUSH2 0x4B DUP4 PUSH2 0xF7 JUMP JUMPDEST SWAP3 ADD PUSH2 0xF7 JUMP JUMPDEST PUSH1 0x1 PUSH1 0x0 SSTORE CALLER PUSH1 0x80 MSTORE PUSH1 0x1 PUSH1 0x1 PUSH1 0xA0 SHL SUB SWAP2 DUP3 AND PUSH1 0xA0 MSTORE AND PUSH1 0xC0 MSTORE PUSH1 0x40 MLOAD PUSH2 0x1474 SWAP1 DUP2 PUSH2 0x10C DUP3 CODECOPY PUSH1 0x80 MLOAD DUP2 DUP2 DUP2 PUSH2 0x5AF ADD MSTORE DUP2 DUP2 PUSH2 0xB15 ADD MSTORE DUP2 DUP2 PUSH2 0xB5B ADD MSTORE DUP2 DUP2 PUSH2 0xC19 ADD MSTORE DUP2 DUP2 PUSH2 0xE44 ADD MSTORE PUSH2 0xF80 ADD MSTORE PUSH1 0xA0 MLOAD DUP2 DUP2 DUP2 PUSH1 0x95 ADD MSTORE DUP2 DUP2 PUSH2 0x159 ADD MSTORE DUP2 DUP2 PUSH2 0x4EA ADD MSTORE PUSH2 0xD09 ADD MSTORE PUSH1 0xC0 MLOAD DUP2 DUP2 DUP2 PUSH2 0x241 ADD MSTORE DUP2 DUP2 PUSH2 0xAD0 ADD MSTORE PUSH2 0xCAC ADD MSTORE RETURN JUMPDEST PUSH1 0x0 DUP1 REVERT JUMPDEST PUSH4 0x4E487B71 PUSH1 0xE0 SHL PUSH1 0x0 MSTORE PUSH1 0x41 PUSH1 0x4 MSTORE PUSH1 0x24 PUSH1 0x0 REVERT JUMPDEST MLOAD SWAP1 PUSH1 0x1 PUSH1 0x1 PUSH1 0xA0 SHL SUB DUP3 AND DUP3 SUB PUSH2 0xDC JUMPI JUMP INVALID PUSH1 0x80 PUSH1 0x40 MSTORE PUSH1 0x4 CALLDATASIZE LT ISZERO PUSH2 0x12 JUMPI PUSH1 0x0 DUP1 REVERT JUMPDEST PUSH1 0x0 DUP1 CALLDATALOAD PUSH1 0xE0 SHR DUP1 PUSH4 0x3F4BA83A EQ PUSH2 0xF69 JUMPI DUP1 PUSH4 0x51CFF8D9 EQ PUSH2 0xE27 JUMPI DUP1 PUSH4 0x5C975ABB EQ PUSH2 0xE04 JUMPI DUP1 PUSH4 0x8298A90D EQ PUSH2 0xBCA JUMPI DUP1 PUSH4 0x8456CB59 EQ PUSH2 0xB44 JUMPI DUP1 PUSH4 0x8DA5CB5B EQ PUSH2 0xAFF JUMPI DUP1 PUSH4 0x9043292A EQ PUSH2 0xABA JUMPI DUP1 PUSH4 0xF04F2707 EQ PUSH2 0xC7 JUMPI PUSH4 0xFBFA77CF EQ PUSH2 0x80 JUMPI PUSH1 0x0 DUP1 REVERT JUMPDEST CALLVALUE PUSH2 0xC4 JUMPI DUP1 PUSH1 0x3 NOT CALLDATASIZE ADD SLT PUSH2 0xC4 JUMPI PUSH1 0x40 MLOAD PUSH32 0x0 PUSH1 0x1 PUSH1 0x1 PUSH1 0xA0 SHL SUB AND DUP2 MSTORE PUSH1 0x20 SWAP1 RETURN JUMPDEST DUP1 REVERT JUMPDEST POP CALLVALUE PUSH2 0xC4 JUMPI PUSH1 0x80 CALLDATASIZE PUSH1 0x3 NOT ADD SLT PUSH2 0xC4 JUMPI PUSH8 0xFFFFFFFFFFFFFFFF PUSH1 0x4 CALLDATALOAD DUP2 DUP2 GT PUSH2 0xAB6 JUMPI PUSH2 0xFA SWAP1 CALLDATASIZE SWAP1 PUSH1 0x4 ADD PUSH2 0x1058 JUMP JUMPDEST SWAP2 PUSH1 0x24 CALLDATALOAD DUP2 DUP2 GT PUSH2 0xAB2 JUMPI PUSH2 0x113 SWAP1 CALLDATASIZE SWAP1 PUSH1 0x4 ADD PUSH2 0x1058 JUMP JUMPDEST SWAP2 SWAP1 SWAP4 PUSH1 0x44 CALLDATALOAD DUP3 DUP2 GT PUSH2 0xAAE JUMPI PUSH2 0x12E SWAP1 CALLDATASIZE SWAP1 PUSH1 0x4 ADD PUSH2 0x1058 JUMP JUMPDEST SWAP2 SWAP1 SWAP3 PUSH1 0x64 CALLDATALOAD SWAP1 DUP2 GT PUSH2 0xAAA JUMPI PUSH2 0x149 SWAP1 CALLDATASIZE SWAP1 PUSH1 0x4 ADD PUSH2 0x102A JUMP JUMPDEST SWAP1 PUSH1 0x2 DUP10 SLOAD EQ PUSH2 0xA98 JUMPI PUSH1 0x2 DUP10 SSTORE PUSH32 0x0 PUSH1 0x1 PUSH1 0x1 PUSH1 0xA0 SHL SUB AND CALLER SUB PUSH2 0xA40 JUMPI PUSH1 0x1 DUP4 SUB PUSH2 0x9DF JUMPI PUSH2 0x19B SWAP2 DUP2 ADD SWAP1 PUSH2 0x122A JUMP JUMPDEST SWAP4 SWAP9 SWAP3 SWAP8 SWAP2 SWAP6 SWAP10 SWAP1 SWAP5 SWAP7 PUSH1 0x1 DUP1 PUSH1 0xA0 SHL SUB DUP12 AND ISZERO ISZERO DUP1 PUSH2 0x9CD JUMPI JUMPDEST ISZERO PUSH2 0x988 JUMPI PUSH1 0x2 DUP11 MLOAD EQ DUP1 PUSH2 0x96D JUMPI JUMPDEST DUP1 PUSH2 0x952 JUMPI JUMPDEST ISZERO PUSH2 0x90D JUMPI PUSH1 0x2 DUP10 MLOAD SUB PUSH2 0x8C8 JUMPI ISZERO PUSH2 0x8B4 JUMPI DUP11 CALLDATALOAD PUSH1 0x1 PUSH1 0x1 PUSH1 0xA0 SHL SUB DUP2 AND SWAP1 SUB PUSH2 0x8B0 JUMPI ISZERO PUSH2 0x89C JUMPI ISZERO PUSH2 0x888 JUMPI PUSH2 0x207 SWAP1 CALLDATALOAD DUP11 CALLDATALOAD PUSH2 0x1343 JUMP JUMPDEST PUSH1 0x40 MLOAD PUSH4 0x2321BC79 PUSH1 0xE2 SHL DUP2 MSTORE PUSH1 0x1 PUSH1 0x1 PUSH1 0xA0 SHL SUB SWAP9 DUP10 AND PUSH1 0x4 DUP3 ADD MSTORE DUP11 CALLDATALOAD PUSH1 0x24 DUP3 ADD MSTORE DUP6 DUP10 AND PUSH1 0x44 DUP3 ADD MSTORE SWAP1 SWAP8 PUSH1 0x20 SWAP1 DUP3 SWAP1 PUSH1 0x64 SWAP1 DUP3 SWAP1 PUSH32 0x0 AND GAS STATICCALL SWAP1 DUP2 ISZERO PUSH2 0x87D JUMPI DUP12 SWAP2 PUSH2 0x846 JUMPI JUMPDEST POP PUSH2 0x2BF DUP12 PUSH1 0x1 PUSH1 0x1 PUSH1 0xA0 SHL SUB PUSH2 0x287 DUP11 PUSH2 0x117D JUMP JUMPDEST MLOAD AND PUSH2 0x292 DUP10 PUSH2 0x117D JUMP JUMPDEST MLOAD SWAP1 DUP14 PUSH1 0x40 MLOAD DUP1 SWAP6 DUP2 SWAP5 DUP3 SWAP4 PUSH4 0xD06CA61F PUSH1 0xE0 SHL DUP5 MSTORE CALLDATALOAD PUSH1 0x4 DUP5 ADD MSTORE PUSH1 0x40 PUSH1 0x24 DUP5 ADD MSTORE PUSH1 0x44 DUP4 ADD SWAP1 PUSH2 0x1306 JUMP JUMPDEST SUB SWAP2 GAS STATICCALL DUP1 ISZERO PUSH2 0x83B JUMPI PUSH2 0x2DA SWAP2 DUP14 SWAP2 PUSH2 0x821 JUMPI JUMPDEST POP PUSH2 0x11A0 JUMP JUMPDEST MLOAD DUP2 DUP1 DUP3 GT ISZERO PUSH2 0x812 JUMPI PUSH2 0x2ED SWAP2 PUSH2 0x13E0 JUMP JUMPDEST PUSH2 0x2710 SWAP1 DUP2 DUP2 MUL SWAP2 DUP2 DUP4 DIV EQ SWAP1 ISZERO OR ISZERO PUSH2 0x7FE JUMPI DUP2 ISZERO PUSH2 0x7EA JUMPI DIV GT PUSH2 0x79B JUMPI PUSH2 0x357 SWAP1 DUP10 SWAP1 PUSH1 0x20 PUSH1 0x1 PUSH1 0x1 PUSH1 0xA0 SHL SUB PUSH2 0x326 DUP10 PUSH2 0x117D JUMP JUMPDEST MLOAD PUSH1 0x40 MLOAD PUSH4 0x95EA7B3 PUSH1 0xE0 SHL DUP2 MSTORE SWAP2 AND PUSH1 0x1 PUSH1 0x1 PUSH1 0xA0 SHL SUB AND PUSH1 0x4 DUP3 ADD MSTORE DUP12 CALLDATALOAD PUSH1 0x24 DUP3 ADD MSTORE SWAP4 DUP5 SWAP1 DUP2 SWAP1 PUSH1 0x44 DUP3 ADD SWAP1 JUMP JUMPDEST SUB DUP2 DUP6 DUP14 CALLDATALOAD PUSH1 0x1 PUSH1 0x1 PUSH1 0xA0 SHL SUB AND GAS CALL SWAP3 DUP4 ISZERO PUSH2 0x790 JUMPI PUSH2 0x3B9 SWAP4 PUSH2 0x771 JUMPI JUMPDEST POP PUSH1 0x1 PUSH1 0x1 PUSH1 0xA0 SHL SUB PUSH2 0x389 DUP9 PUSH2 0x117D JUMP JUMPDEST MLOAD AND DUP11 DUP4 PUSH2 0x396 DUP10 PUSH2 0x117D JUMP JUMPDEST MLOAD PUSH1 0x40 MLOAD PUSH4 0x38ED1739 PUSH1 0xE0 SHL DUP2 MSTORE SWAP7 DUP8 SWAP6 DUP7 SWAP5 DUP6 SWAP4 TIMESTAMP SWAP3 ADDRESS SWAP3 CALLDATALOAD PUSH1 0x4 DUP8 ADD PUSH2 0x1405 JUMP JUMPDEST SUB SWAP3 GAS CALL SWAP1 DUP2 ISZERO PUSH2 0x766 JUMPI DUP10 SWAP2 PUSH2 0x74C JUMPI JUMPDEST POP DUP1 MLOAD DUP1 PUSH1 0x0 NOT DUP2 ADD GT PUSH2 0x738 JUMPI SWAP2 PUSH1 0x20 PUSH2 0x3F2 PUSH2 0x43B SWAP8 SWAP6 SWAP4 DUP13 SWAP8 SWAP6 PUSH1 0x0 NOT ADD SWAP1 PUSH2 0x11B0 JUMP JUMPDEST MLOAD SWAP3 DUP4 SWAP1 PUSH1 0x1 PUSH1 0x1 PUSH1 0xA0 SHL SUB PUSH2 0x407 DUP9 PUSH2 0x11A0 JUMP JUMPDEST MLOAD AND DUP9 PUSH1 0x40 MLOAD DUP1 SWAP12 DUP2 SWAP6 DUP3 SWAP5 PUSH4 0x95EA7B3 PUSH1 0xE0 SHL DUP5 MSTORE PUSH1 0x4 DUP5 ADD PUSH1 0x20 SWAP1 SWAP4 SWAP3 SWAP2 SWAP4 PUSH1 0x40 DUP2 ADD SWAP5 PUSH1 0x1 DUP1 PUSH1 0xA0 SHL SUB AND DUP2 MSTORE ADD MSTORE JUMP JUMPDEST SUB SWAP3 PUSH1 0x1 PUSH1 0x1 PUSH1 0xA0 SHL SUB AND GAS CALL SWAP6 DUP7 ISZERO PUSH2 0x65D JUMPI PUSH2 0x468 DUP7 SWAP3 PUSH2 0x483 SWAP3 PUSH2 0x4A5 SWAP10 PUSH2 0x719 JUMPI JUMPDEST POP DUP10 PUSH2 0x1343 JUMP JUMPDEST SWAP5 PUSH1 0x1 PUSH1 0x1 PUSH1 0xA0 SHL SUB SWAP1 PUSH2 0x47B SWAP1 PUSH2 0x11A0 JUMP JUMPDEST MLOAD AND SWAP4 PUSH2 0x11A0 JUMP JUMPDEST MLOAD PUSH1 0x40 MLOAD PUSH4 0x38ED1739 PUSH1 0xE0 SHL DUP2 MSTORE SWAP7 DUP8 SWAP6 DUP7 SWAP5 DUP6 SWAP4 TIMESTAMP SWAP3 ADDRESS SWAP3 PUSH1 0x4 DUP8 ADD PUSH2 0x1405 JUMP JUMPDEST SUB SWAP3 GAS CALL SWAP1 DUP2 ISZERO PUSH2 0x65D JUMPI DUP6 SWAP2 PUSH2 0x6F7 JUMPI JUMPDEST POP DUP1 MLOAD PUSH1 0x0 NOT DUP2 ADD SWAP2 SWAP1 DUP3 GT PUSH2 0x6E3 JUMPI SWAP1 PUSH2 0x4D1 SWAP2 PUSH2 0x11B0 JUMP JUMPDEST MLOAD SWAP1 DUP1 DUP3 LT PUSH2 0x692 JUMPI PUSH1 0x40 MLOAD PUSH4 0xA9059CBB PUSH1 0xE0 SHL DUP1 DUP3 MSTORE PUSH32 0x0 PUSH1 0x1 PUSH1 0x1 PUSH1 0xA0 SHL SUB AND PUSH1 0x4 DUP4 ADD MSTORE PUSH1 0x24 DUP3 ADD DUP4 SWAP1 MSTORE SWAP3 SWAP1 SWAP2 SWAP1 PUSH1 0x20 DUP4 DUP1 PUSH1 0x44 DUP2 ADD SUB DUP2 DUP11 DUP10 CALLDATALOAD PUSH1 0x1 PUSH1 0x1 PUSH1 0xA0 SHL SUB AND GAS CALL SWAP3 DUP4 ISZERO PUSH2 0x687 JUMPI PUSH2 0x550 SWAP4 PUSH2 0x668 JUMPI JUMPDEST POP PUSH2 0x13E0 JUMP JUMPDEST SWAP1 DUP2 PUSH2 0x59F JUMPI JUMPDEST POP PUSH1 0x40 DUP1 MLOAD SWAP4 CALLDATALOAD DUP5 MSTORE PUSH1 0x20 DUP5 ADD SWAP2 SWAP1 SWAP2 MSTORE SWAP1 CALLDATALOAD PUSH1 0x1 PUSH1 0x1 PUSH1 0xA0 SHL SUB AND SWAP2 PUSH32 0x1736D858CEBB9F1FC945933505F6898D6F81E41EE20CFB09E7031C9A817240C6 SWAP2 SWAP1 LOG2 PUSH1 0x1 DUP2 SSTORE DUP1 RETURN JUMPDEST PUSH1 0x40 MLOAD SWAP1 DUP2 MSTORE PUSH1 0x1 PUSH1 0x1 PUSH1 0xA0 SHL SUB PUSH32 0x0 AND PUSH1 0x4 DUP3 ADD MSTORE PUSH1 0x24 DUP2 ADD DUP3 SWAP1 MSTORE SWAP2 PUSH1 0x20 DUP4 DUP1 PUSH1 0x44 DUP2 ADD SUB DUP2 DUP9 DUP6 CALLDATALOAD PUSH1 0x1 PUSH1 0x1 PUSH1 0xA0 SHL SUB AND GAS CALL SWAP2 DUP3 ISZERO PUSH2 0x65D JUMPI PUSH32 0x1736D858CEBB9F1FC945933505F6898D6F81E41EE20CFB09E7031C9A817240C6 SWAP4 PUSH1 0x40 SWAP4 PUSH2 0x62E JUMPI JUMPDEST POP SWAP2 POP SWAP2 PUSH2 0x557 JUMP JUMPDEST PUSH2 0x64F SWAP1 PUSH1 0x20 RETURNDATASIZE PUSH1 0x20 GT PUSH2 0x656 JUMPI JUMPDEST PUSH2 0x647 DUP2 DUP4 PUSH2 0x1143 JUMP JUMPDEST DUP2 ADD SWAP1 PUSH2 0x13ED JUMP JUMPDEST POP CODESIZE PUSH2 0x625 JUMP JUMPDEST POP RETURNDATASIZE PUSH2 0x63D JUMP JUMPDEST PUSH1 0x40 MLOAD RETURNDATASIZE DUP8 DUP3 RETURNDATACOPY RETURNDATASIZE SWAP1 REVERT JUMPDEST PUSH2 0x680 SWAP1 PUSH1 0x20 RETURNDATASIZE PUSH1 0x20 GT PUSH2 0x656 JUMPI PUSH2 0x647 DUP2 DUP4 PUSH2 0x1143 JUMP JUMPDEST POP CODESIZE PUSH2 0x54A JUMP JUMPDEST PUSH1 0x40 MLOAD RETURNDATASIZE DUP10 DUP3 RETURNDATACOPY RETURNDATASIZE SWAP1 REVERT JUMPDEST PUSH1 0x40 MLOAD PUSH3 0x461BCD PUSH1 0xE5 SHL DUP2 MSTORE PUSH1 0x20 PUSH1 0x4 DUP3 ADD MSTORE PUSH1 0x23 PUSH1 0x24 DUP3 ADD MSTORE PUSH32 0x547261646520776173206E6F742070726F66697461626C652061667465722066 PUSH1 0x44 DUP3 ADD MSTORE PUSH3 0x656573 PUSH1 0xE8 SHL PUSH1 0x64 DUP3 ADD MSTORE PUSH1 0x84 SWAP1 REVERT JUMPDEST PUSH4 0x4E487B71 PUSH1 0xE0 SHL DUP7 MSTORE PUSH1 0x11 PUSH1 0x4 MSTORE PUSH1 0x24 DUP7 REVERT JUMPDEST PUSH2 0x713 SWAP2 POP RETURNDATASIZE DUP1 DUP8 DUP4 RETURNDATACOPY PUSH2 0x70B DUP2 DUP4 PUSH2 0x1143 JUMP JUMPDEST DUP2 ADD SWAP1 PUSH2 0x1366 JUMP JUMPDEST CODESIZE PUSH2 0x4B7 JUMP JUMPDEST PUSH2 0x731 SWAP1 PUSH1 0x20 RETURNDATASIZE PUSH1 0x20 GT PUSH2 0x656 JUMPI PUSH2 0x647 DUP2 DUP4 PUSH2 0x1143 JUMP JUMPDEST POP CODESIZE PUSH2 0x461 JUMP JUMPDEST PUSH4 0x4E487B71 PUSH1 0xE0 SHL DUP11 MSTORE PUSH1 0x11 PUSH1 0x4 MSTORE PUSH1 0x24 DUP11 REVERT JUMPDEST PUSH2 0x760 SWAP2 POP RETURNDATASIZE DUP1 DUP12 DUP4 RETURNDATACOPY PUSH2 0x70B DUP2 DUP4 PUSH2 0x1143 JUMP JUMPDEST CODESIZE PUSH2 0x3CB JUMP JUMPDEST PUSH1 0x40 MLOAD RETURNDATASIZE DUP12 DUP3 RETURNDATACOPY RETURNDATASIZE SWAP1 REVERT JUMPDEST PUSH2 0x789 SWAP1 PUSH1 0x20 RETURNDATASIZE PUSH1 0x20 GT PUSH2 0x656 JUMPI PUSH2 0x647 DUP2 DUP4 PUSH2 0x1143 JUMP JUMPDEST POP CODESIZE PUSH2 0x377 JUMP JUMPDEST PUSH1 0x40 MLOAD RETURNDATASIZE DUP5 DUP3 RETURNDATACOPY RETURNDATASIZE SWAP1 REVERT JUMPDEST PUSH1 0x40 MLOAD PUSH3 0x461BCD PUSH1 0xE5 SHL DUP2 MSTORE PUSH1 0x20 PUSH1 0x4 DUP3 ADD MSTORE PUSH1 0x21 PUSH1 0x24 DUP3 ADD MSTORE PUSH32 0x507269636520646576696174657320746F6F206D7563682066726F6D20545741 PUSH1 0x44 DUP3 ADD MSTORE PUSH1 0x5 PUSH1 0xFC SHL PUSH1 0x64 DUP3 ADD MSTORE PUSH1 0x84 SWAP1 REVERT JUMPDEST PUSH4 0x4E487B71 PUSH1 0xE0 SHL DUP13 MSTORE PUSH1 0x12 PUSH1 0x4 MSTORE PUSH1 0x24 DUP13 REVERT JUMPDEST PUSH4 0x4E487B71 PUSH1 0xE0 SHL DUP13 MSTORE PUSH1 0x11 PUSH1 0x4 MSTORE PUSH1 0x24 DUP13 REVERT JUMPDEST SWAP1 PUSH2 0x81C SWAP2 PUSH2 0x13E0 JUMP JUMPDEST PUSH2 0x2ED JUMP JUMPDEST PUSH2 0x835 SWAP2 POP RETURNDATASIZE DUP1 DUP16 DUP4 RETURNDATACOPY PUSH2 0x70B DUP2 DUP4 PUSH2 0x1143 JUMP JUMPDEST CODESIZE PUSH2 0x2D4 JUMP JUMPDEST PUSH1 0x40 MLOAD RETURNDATASIZE DUP15 DUP3 RETURNDATACOPY RETURNDATASIZE SWAP1 REVERT JUMPDEST SWAP1 POP PUSH1 0x20 DUP2 RETURNDATASIZE PUSH1 0x20 GT PUSH2 0x875 JUMPI JUMPDEST DUP2 PUSH2 0x861 PUSH1 0x20 SWAP4 DUP4 PUSH2 0x1143 JUMP JUMPDEST DUP2 ADD SUB SLT PUSH2 0x870 JUMPI MLOAD CODESIZE PUSH2 0x271 JUMP JUMPDEST PUSH1 0x0 DUP1 REVERT JUMPDEST RETURNDATASIZE SWAP2 POP PUSH2 0x854 JUMP JUMPDEST PUSH1 0x40 MLOAD RETURNDATASIZE DUP14 DUP3 RETURNDATACOPY RETURNDATASIZE SWAP1 REVERT JUMPDEST PUSH4 0x4E487B71 PUSH1 0xE0 SHL DUP12 MSTORE PUSH1 0x32 PUSH1 0x4 MSTORE PUSH1 0x24 DUP12 REVERT JUMPDEST PUSH4 0x4E487B71 PUSH1 0xE0 SHL DUP13 MSTORE PUSH1 0x32 PUSH1 0x4 MSTORE PUSH1 0x24 DUP13 REVERT JUMPDEST DUP13 DUP1 REVERT JUMPDEST PUSH4 0x4E487B71 PUSH1 0xE0 SHL DUP14 MSTORE PUSH1 0x32 PUSH1 0x4 MSTORE PUSH1 0x24 DUP14 REVERT JUMPDEST PUSH1 0x40 MLOAD PUSH3 0x461BCD PUSH1 0xE5 SHL DUP2 MSTORE PUSH1 0x20 PUSH1 0x4 DUP3 ADD MSTORE PUSH1 0x1B PUSH1 0x24 DUP3 ADD MSTORE PUSH32 0x496E76616C696420706174687320636F6E66696775726174696F6E0000000000 PUSH1 0x44 DUP3 ADD MSTORE PUSH1 0x64 SWAP1 REVERT JUMPDEST PUSH1 0x40 MLOAD PUSH3 0x461BCD PUSH1 0xE5 SHL DUP2 MSTORE PUSH1 0x20 PUSH1 0x4 DUP3 ADD MSTORE PUSH1 0x1C PUSH1 0x24 DUP3 ADD MSTORE PUSH32 0x496E76616C696420726F7574657220636F6E66696775726174696F6E00000000 PUSH1 0x44 DUP3 ADD MSTORE PUSH1 0x64 SWAP1 REVERT JUMPDEST POP PUSH1 0x1 PUSH1 0x1 PUSH1 0xA0 SHL SUB PUSH2 0x964 DUP12 PUSH2 0x11A0 JUMP JUMPDEST MLOAD AND ISZERO ISZERO PUSH2 0x1CC JUMP JUMPDEST POP PUSH1 0x1 PUSH1 0x1 PUSH1 0xA0 SHL SUB PUSH2 0x97F DUP12 PUSH2 0x117D JUMP JUMPDEST MLOAD AND ISZERO ISZERO PUSH2 0x1C6 JUMP JUMPDEST PUSH1 0x40 MLOAD PUSH3 0x461BCD PUSH1 0xE5 SHL DUP2 MSTORE PUSH1 0x20 PUSH1 0x4 DUP3 ADD MSTORE PUSH1 0x1E PUSH1 0x24 DUP3 ADD MSTORE PUSH32 0x496E76616C696420746F6B656E20616464726573732070726F76696465640000 PUSH1 0x44 DUP3 ADD MSTORE PUSH1 0x64 SWAP1 REVERT JUMPDEST POP PUSH1 0x1 PUSH1 0x1 PUSH1 0xA0 SHL SUB DUP9 AND ISZERO ISZERO PUSH2 0x1B6 JUMP JUMPDEST PUSH1 0x40 MLOAD PUSH3 0x461BCD PUSH1 0xE5 SHL DUP2 MSTORE PUSH1 0x20 PUSH1 0x4 DUP3 ADD MSTORE PUSH1 0x33 PUSH1 0x24 DUP3 ADD MSTORE PUSH32 0x5468697320636F6E7472616374206F6E6C792068616E646C65732073696E676C PUSH1 0x44 DUP3 ADD MSTORE PUSH19 0x652D746F6B656E20666C617368206C6F616E73 PUSH1 0x68 SHL PUSH1 0x64 DUP3 ADD MSTORE PUSH1 0x84 SWAP1 REVERT JUMPDEST PUSH1 0x40 MLOAD PUSH3 0x461BCD PUSH1 0xE5 SHL DUP2 MSTORE PUSH1 0x20 PUSH1 0x4 DUP3 ADD MSTORE PUSH1 0x2A PUSH1 0x24 DUP3 ADD MSTORE PUSH32 0x4F6E6C792042616C616E636572205661756C742063616E2063616C6C20746869 PUSH1 0x44 DUP3 ADD MSTORE PUSH10 0x3990333AB731BA34B7B7 PUSH1 0xB1 SHL PUSH1 0x64 DUP3 ADD MSTORE PUSH1 0x84 SWAP1 REVERT JUMPDEST PUSH1 0x40 MLOAD PUSH4 0x3EE5AEB5 PUSH1 0xE0 SHL DUP2 MSTORE PUSH1 0x4 SWAP1 REVERT JUMPDEST DUP8 DUP1 REVERT JUMPDEST DUP7 DUP1 REVERT JUMPDEST DUP5 DUP1 REVERT JUMPDEST DUP3 DUP1 REVERT JUMPDEST POP CALLVALUE PUSH2 0xC4 JUMPI DUP1 PUSH1 0x3 NOT CALLDATASIZE ADD SLT PUSH2 0xC4 JUMPI PUSH1 0x40 MLOAD PUSH32 0x0 PUSH1 0x1 PUSH1 0x1 PUSH1 0xA0 SHL SUB AND DUP2 MSTORE PUSH1 0x20 SWAP1 RETURN JUMPDEST POP CALLVALUE PUSH2 0xC4 JUMPI DUP1 PUSH1 0x3 NOT CALLDATASIZE ADD SLT PUSH2 0xC4 JUMPI PUSH1 0x40 MLOAD PUSH32 0x0 PUSH1 0x1 PUSH1 0x1 PUSH1 0xA0 SHL SUB AND DUP2 MSTORE PUSH1 0x20 SWAP1 RETURN JUMPDEST POP CALLVALUE PUSH2 0xC4 JUMPI DUP1 PUSH1 0x3 NOT CALLDATASIZE ADD SLT PUSH2 0xC4 JUMPI PUSH2 0xB89 CALLER PUSH32 0x0 PUSH1 0x1 PUSH1 0x1 PUSH1 0xA0 SHL SUB AND EQ PUSH2 0x1089 JUMP JUMPDEST PUSH2 0xB91 PUSH2 0x10DF JUMP JUMPDEST PUSH1 0x1 PUSH1 0xFF NOT DUP2 SLOAD AND OR PUSH1 0x1 SSTORE PUSH32 0x62E78CEA01BEE320CD4E420270B5EA74000D11B0C9F74754EBDBFC544B05A258 PUSH1 0x20 PUSH1 0x40 MLOAD CALLER DUP2 MSTORE LOG1 DUP1 RETURN JUMPDEST POP CALLVALUE PUSH2 0xC4 JUMPI PUSH1 0x3 NOT SWAP1 PUSH1 0x60 CALLDATASIZE DUP4 ADD SLT PUSH2 0xC4 JUMPI PUSH2 0xBE6 PUSH2 0x1000 JUMP JUMPDEST SWAP2 PUSH1 0x44 CALLDATALOAD PUSH8 0xFFFFFFFFFFFFFFFF DUP2 GT PUSH2 0xAB6 JUMPI PUSH2 0xC07 SWAP1 CALLDATASIZE SWAP1 PUSH1 0x4 ADD PUSH2 0x102A JUMP JUMPDEST SWAP1 SWAP2 SWAP1 PUSH1 0x1 PUSH1 0x1 PUSH1 0xA0 SHL SUB SWAP1 PUSH2 0xC40 CALLER PUSH32 0x0 DUP5 AND EQ PUSH2 0x1089 JUMP JUMPDEST PUSH2 0xC48 PUSH2 0x10DF JUMP JUMPDEST PUSH1 0x40 MLOAD SWAP4 PUSH2 0xC55 DUP6 PUSH2 0x1127 JUMP JUMPDEST PUSH1 0x1 SWAP4 DUP5 DUP7 MSTORE PUSH1 0x20 SWAP8 DUP9 CALLDATASIZE DUP2 DUP10 ADD CALLDATACOPY DUP5 PUSH2 0xC6E DUP9 PUSH2 0x117D JUMP JUMPDEST SWAP2 AND SWAP1 MSTORE PUSH1 0x40 MLOAD SWAP5 PUSH2 0xC7F DUP7 PUSH2 0x1127 JUMP JUMPDEST DUP1 DUP7 MSTORE DUP9 DUP7 ADD SWAP5 DUP10 CALLDATASIZE DUP8 CALLDATACOPY PUSH1 0x24 CALLDATALOAD PUSH2 0xC96 DUP9 PUSH2 0x117D JUMP JUMPDEST MSTORE PUSH2 0xCA3 DUP6 DUP6 ADD DUP6 PUSH2 0x122A JUMP JUMPDEST POP POP POP POP POP SWAP1 DUP3 PUSH32 0x0 AND DUP1 EXTCODESIZE ISZERO PUSH2 0xE00 JUMPI PUSH1 0x44 DUP13 SWAP3 DUP4 DUP7 SWAP4 DUP5 PUSH1 0x40 MLOAD SWAP8 DUP9 SWAP7 DUP8 SWAP6 PUSH4 0xC640752D PUSH1 0xE0 SHL DUP8 MSTORE AND PUSH1 0x4 DUP7 ADD MSTORE AND PUSH1 0x24 DUP5 ADD MSTORE GAS CALL DUP1 ISZERO PUSH2 0xDF5 JUMPI PUSH2 0xDE2 JUMPI JUMPDEST POP PUSH32 0x0 AND SWAP6 DUP7 EXTCODESIZE ISZERO PUSH2 0xDDE JUMPI SWAP1 DUP10 PUSH2 0xD5B PUSH1 0x40 MLOAD SWAP10 PUSH4 0x2E1C224F PUSH1 0xE1 SHL DUP12 MSTORE ADDRESS PUSH1 0x4 DUP13 ADD MSTORE PUSH1 0x80 PUSH1 0x24 DUP13 ADD MSTORE PUSH1 0x84 DUP12 ADD SWAP1 PUSH2 0x1306 JUMP JUMPDEST SWAP3 DUP5 DUP11 DUP6 SUB ADD PUSH1 0x44 DUP12 ADD MSTORE MLOAD SWAP3 DUP4 DUP2 MSTORE ADD SWAP6 SWAP2 DUP10 JUMPDEST DUP2 DUP2 LT PUSH2 0xDCB JUMPI POP POP POP POP DUP7 SWAP8 DUP7 DUP6 DUP6 DUP11 SWAP9 SWAP7 DUP4 SWAP9 SWAP7 DUP11 SWAP7 DUP6 DUP1 SWAP10 SUB ADD PUSH1 0x64 DUP7 ADD MSTORE DUP2 DUP5 MSTORE DUP6 DUP5 ADD CALLDATACOPY DUP2 DUP2 ADD DUP5 ADD DUP6 SWAP1 MSTORE PUSH1 0x1F ADD PUSH1 0x1F NOT AND ADD SUB ADD SWAP3 GAS CALL DUP1 ISZERO PUSH2 0x790 JUMPI PUSH2 0xDBB JUMPI POP RETURN JUMPDEST PUSH2 0xDC4 SWAP1 PUSH2 0x10FD JUMP JUMPDEST PUSH2 0xC4 JUMPI DUP1 RETURN JUMPDEST DUP4 MLOAD DUP9 MSTORE SWAP7 DUP12 ADD SWAP7 SWAP3 DUP12 ADD SWAP3 DUP3 ADD PUSH2 0xD70 JUMP JUMPDEST DUP9 DUP1 REVERT JUMPDEST PUSH2 0xDEE SWAP1 SWAP10 SWAP2 SWAP10 PUSH2 0x10FD JUMP JUMPDEST SWAP8 CODESIZE PUSH2 0xD06 JUMP JUMPDEST PUSH1 0x40 MLOAD RETURNDATASIZE DUP13 DUP3 RETURNDATACOPY RETURNDATASIZE SWAP1 REVERT JUMPDEST DUP12 DUP1 REVERT JUMPDEST POP CALLVALUE PUSH2 0xC4 JUMPI DUP1 PUSH1 0x3 NOT CALLDATASIZE ADD SLT PUSH2 0xC4 JUMPI PUSH1 0x20 PUSH1 0xFF PUSH1 0x1 SLOAD AND PUSH1 0x40 MLOAD SWAP1 ISZERO ISZERO DUP2 MSTORE RETURN JUMPDEST POP CALLVALUE PUSH2 0xC4 JUMPI PUSH1 0x20 DUP1 PUSH1 0x3 NOT CALLDATASIZE ADD SLT PUSH2 0xF65 JUMPI PUSH2 0xE42 PUSH2 0x1000 JUMP JUMPDEST PUSH32 0x0 SWAP1 PUSH1 0x1 PUSH1 0x1 PUSH1 0xA0 SHL SUB SWAP1 PUSH2 0xE7A CALLER DUP4 DUP6 AND EQ PUSH2 0x1089 JUMP JUMPDEST AND SWAP2 PUSH1 0x40 MLOAD PUSH4 0x70A08231 PUSH1 0xE0 SHL DUP2 MSTORE ADDRESS PUSH1 0x4 DUP3 ADD MSTORE DUP2 DUP2 PUSH1 0x24 DUP2 DUP8 GAS STATICCALL SWAP1 DUP2 ISZERO PUSH2 0x65D JUMPI DUP6 SWAP2 PUSH2 0xF38 JUMPI JUMPDEST POP DUP1 PUSH2 0xEAF JUMPI DUP5 DUP1 RETURN JUMPDEST PUSH1 0x40 MLOAD PUSH4 0xA9059CBB PUSH1 0xE0 SHL DUP2 MSTORE PUSH1 0x1 PUSH1 0x1 PUSH1 0xA0 SHL SUB SWAP4 SWAP1 SWAP4 AND PUSH1 0x4 DUP5 ADD MSTORE PUSH1 0x24 DUP4 ADD DUP2 SWAP1 MSTORE DUP2 DUP4 PUSH1 0x44 DUP2 DUP9 DUP9 GAS CALL SWAP3 DUP4 ISZERO PUSH2 0x65D JUMPI PUSH32 0xD65D7B028C704B54BCBE20B09B06F59223A87A757489CBA0AB12AFBB79647239 SWAP4 PUSH2 0xF1B JUMPI JUMPDEST POP PUSH1 0x40 MLOAD SWAP1 DUP2 MSTORE LOG2 CODESIZE DUP1 DUP1 DUP1 DUP5 DUP1 RETURN JUMPDEST PUSH2 0xF31 SWAP1 DUP4 RETURNDATASIZE DUP6 GT PUSH2 0x656 JUMPI PUSH2 0x647 DUP2 DUP4 PUSH2 0x1143 JUMP JUMPDEST POP CODESIZE PUSH2 0xF0B JUMP JUMPDEST SWAP1 POP DUP2 DUP2 DUP2 RETURNDATASIZE DUP4 GT PUSH2 0xF5E JUMPI JUMPDEST PUSH2 0xF4F DUP2 DUP4 PUSH2 0x1143 JUMP JUMPDEST DUP2 ADD SUB SLT PUSH2 0xAB2 JUMPI MLOAD CODESIZE PUSH2 0xEA5 JUMP JUMPDEST POP RETURNDATASIZE PUSH2 0xF45 JUMP JUMPDEST POP DUP1 REVERT JUMPDEST POP CALLVALUE PUSH2 0xC4 JUMPI DUP1 PUSH1 0x3 NOT CALLDATASIZE ADD SLT PUSH2 0xC4 JUMPI PUSH2 0xFAE CALLER PUSH32 0x0 PUSH1 0x1 PUSH1 0x1 PUSH1 0xA0 SHL SUB AND EQ PUSH2 0x1089 JUMP JUMPDEST PUSH1 0x1 SLOAD PUSH1 0xFF DUP2 AND ISZERO PUSH2 0xFEE JUMPI PUSH1 0xFF NOT AND PUSH1 0x1 SSTORE PUSH32 0x5DB9EE0A495BF2E6FF9C91A7834C1BA4FDD244A5E8AA4E537BD38AEAE4B073AA PUSH1 0x20 PUSH1 0x40 MLOAD CALLER DUP2 MSTORE LOG1 DUP1 RETURN JUMPDEST PUSH1 0x40 MLOAD PUSH4 0x8DFC202B PUSH1 0xE0 SHL DUP2 MSTORE PUSH1 0x4 SWAP1 REVERT JUMPDEST PUSH1 0x4 CALLDATALOAD SWAP1 PUSH1 0x1 PUSH1 0x1 PUSH1 0xA0 SHL SUB DUP3 AND DUP3 SUB PUSH2 0x870 JUMPI JUMP JUMPDEST CALLDATALOAD SWAP1 PUSH1 0x1 PUSH1 0x1 PUSH1 0xA0 SHL SUB DUP3 AND DUP3 SUB PUSH2 0x870 JUMPI JUMP JUMPDEST SWAP2 DUP2 PUSH1 0x1F DUP5 ADD SLT ISZERO PUSH2 0x870 JUMPI DUP3 CALLDATALOAD SWAP2 PUSH8 0xFFFFFFFFFFFFFFFF DUP4 GT PUSH2 0x870 JUMPI PUSH1 0x20 DUP4 DUP2 DUP7 ADD SWAP6 ADD ADD GT PUSH2 0x870 JUMPI JUMP JUMPDEST SWAP2 DUP2 PUSH1 0x1F DUP5 ADD SLT ISZERO PUSH2 0x870 JUMPI DUP3 CALLDATALOAD SWAP2 PUSH8 0xFFFFFFFFFFFFFFFF DUP4 GT PUSH2 0x870 JUMPI PUSH1 0x20 DUP1 DUP6 ADD SWAP5 DUP5 PUSH1 0x5 SHL ADD ADD GT PUSH2 0x870 JUMPI JUMP JUMPDEST ISZERO PUSH2 0x1090 JUMPI JUMP JUMPDEST PUSH1 0x40 MLOAD PUSH3 0x461BCD PUSH1 0xE5 SHL DUP2 MSTORE PUSH1 0x20 PUSH1 0x4 DUP3 ADD MSTORE PUSH1 0x21 PUSH1 0x24 DUP3 ADD MSTORE PUSH32 0x4F6E6C79206F776E65722063616E2063616C6C20746869732066756E6374696F PUSH1 0x44 DUP3 ADD MSTORE PUSH1 0x37 PUSH1 0xF9 SHL PUSH1 0x64 DUP3 ADD MSTORE PUSH1 0x84 SWAP1 REVERT JUMPDEST PUSH1 0xFF PUSH1 0x1 SLOAD AND PUSH2 0x10EB JUMPI JUMP JUMPDEST PUSH1 0x40 MLOAD PUSH4 0xD93C0665 PUSH1 0xE0 SHL DUP2 MSTORE PUSH1 0x4 SWAP1 REVERT JUMPDEST PUSH8 0xFFFFFFFFFFFFFFFF DUP2 GT PUSH2 0x1111 JUMPI PUSH1 0x40 MSTORE JUMP JUMPDEST PUSH4 0x4E487B71 PUSH1 0xE0 SHL PUSH1 0x0 MSTORE PUSH1 0x41 PUSH1 0x4 MSTORE PUSH1 0x24 PUSH1 0x0 REVERT JUMPDEST PUSH1 0x40 DUP2 ADD SWAP1 DUP2 LT PUSH8 0xFFFFFFFFFFFFFFFF DUP3 GT OR PUSH2 0x1111 JUMPI PUSH1 0x40 MSTORE JUMP JUMPDEST SWAP1 PUSH1 0x1F DUP1 NOT SWAP2 ADD AND DUP2 ADD SWAP1 DUP2 LT PUSH8 0xFFFFFFFFFFFFFFFF DUP3 GT OR PUSH2 0x1111 JUMPI PUSH1 0x40 MSTORE JUMP JUMPDEST PUSH8 0xFFFFFFFFFFFFFFFF DUP2 GT PUSH2 0x1111 JUMPI PUSH1 0x5 SHL PUSH1 0x20 ADD SWAP1 JUMP JUMPDEST DUP1 MLOAD ISZERO PUSH2 0x118A JUMPI PUSH1 0x20 ADD SWAP1 JUMP JUMPDEST PUSH4 0x4E487B71 PUSH1 0xE0 SHL PUSH1 0x0 MSTORE PUSH1 0x32 PUSH1 0x4 MSTORE PUSH1 0x24 PUSH1 0x0 REVERT JUMPDEST DUP1 MLOAD PUSH1 0x1 LT ISZERO PUSH2 0x118A JUMPI PUSH1 0x40 ADD SWAP1 JUMP JUMPDEST DUP1 MLOAD DUP3 LT ISZERO PUSH2 0x118A JUMPI PUSH1 0x20 SWAP2 PUSH1 0x5 SHL ADD ADD SWAP1 JUMP JUMPDEST DUP2 PUSH1 0x1F DUP3 ADD SLT ISZERO PUSH2 0x870 JUMPI DUP1 CALLDATALOAD SWAP2 PUSH2 0x11DB DUP4 PUSH2 0x1165 JUMP JUMPDEST SWAP3 PUSH2 0x11E9 PUSH1 0x40 MLOAD SWAP5 DUP6 PUSH2 0x1143 JUMP JUMPDEST DUP1 DUP5 MSTORE PUSH1 0x20 SWAP3 DUP4 DUP1 DUP7 ADD SWAP3 PUSH1 0x5 SHL DUP3 ADD ADD SWAP3 DUP4 GT PUSH2 0x870 JUMPI DUP4 ADD SWAP1 JUMPDEST DUP3 DUP3 LT PUSH2 0x1213 JUMPI POP POP POP POP SWAP1 JUMP JUMPDEST DUP4 DUP1 SWAP2 PUSH2 0x121F DUP5 PUSH2 0x1016 JUMP JUMPDEST DUP2 MSTORE ADD SWAP2 ADD SWAP1 PUSH2 0x1205 JUMP JUMPDEST SWAP2 SWAP1 PUSH1 0xE0 DUP4 DUP3 SUB SLT PUSH2 0x870 JUMPI PUSH2 0x123F DUP4 PUSH2 0x1016 JUMP JUMPDEST SWAP3 PUSH1 0x20 SWAP3 PUSH2 0x124E DUP5 DUP4 ADD PUSH2 0x1016 JUMP JUMPDEST SWAP4 PUSH8 0xFFFFFFFFFFFFFFFF SWAP1 PUSH1 0x40 DUP5 ADD CALLDATALOAD DUP3 DUP2 GT PUSH2 0x870 JUMPI DUP6 PUSH2 0x1271 SWAP2 DUP7 ADD PUSH2 0x11C4 JUMP JUMPDEST SWAP5 PUSH1 0x60 DUP6 ADD CALLDATALOAD DUP4 DUP2 GT PUSH2 0x870 JUMPI DUP6 ADD DUP2 PUSH1 0x1F DUP3 ADD SLT ISZERO PUSH2 0x870 JUMPI DUP1 CALLDATALOAD PUSH2 0x1296 DUP2 PUSH2 0x1165 JUMP JUMPDEST SWAP5 PUSH2 0x12A4 PUSH1 0x40 MLOAD SWAP7 DUP8 PUSH2 0x1143 JUMP JUMPDEST DUP2 DUP7 MSTORE DUP5 DUP1 DUP8 ADD SWAP3 PUSH1 0x5 SHL DUP5 ADD ADD SWAP4 DUP1 DUP6 GT PUSH2 0x870 JUMPI DUP6 DUP5 ADD SWAP3 JUMPDEST DUP6 DUP5 LT PUSH2 0x12E1 JUMPI POP POP POP POP POP POP POP SWAP2 PUSH1 0x80 DUP2 ADD CALLDATALOAD SWAP2 PUSH1 0xC0 PUSH1 0xA0 DUP4 ADD CALLDATALOAD SWAP3 ADD CALLDATALOAD SWAP1 JUMP JUMPDEST DUP4 CALLDATALOAD DUP4 DUP2 GT PUSH2 0x870 JUMPI DUP8 SWAP2 PUSH2 0x12FB DUP5 DUP5 DUP1 SWAP5 DUP11 ADD ADD PUSH2 0x11C4 JUMP JUMPDEST DUP2 MSTORE ADD SWAP4 ADD SWAP3 PUSH2 0x12BF JUMP JUMPDEST SWAP1 DUP2 MLOAD DUP1 DUP3 MSTORE PUSH1 0x20 DUP1 DUP1 SWAP4 ADD SWAP4 ADD SWAP2 PUSH1 0x0 JUMPDEST DUP3 DUP2 LT PUSH2 0x1326 JUMPI POP POP POP POP SWAP1 JUMP JUMPDEST DUP4 MLOAD PUSH1 0x1 PUSH1 0x1 PUSH1 0xA0 SHL SUB AND DUP6 MSTORE SWAP4 DUP2 ADD SWAP4 SWAP3 DUP2 ADD SWAP3 PUSH1 0x1 ADD PUSH2 0x1318 JUMP JUMPDEST SWAP2 SWAP1 DUP3 ADD DUP1 SWAP3 GT PUSH2 0x1350 JUMPI JUMP JUMPDEST PUSH4 0x4E487B71 PUSH1 0xE0 SHL PUSH1 0x0 MSTORE PUSH1 0x11 PUSH1 0x4 MSTORE PUSH1 0x24 PUSH1 0x0 REVERT JUMPDEST PUSH1 0x20 SWAP1 DUP2 DUP2 DUP5 SUB SLT PUSH2 0x870 JUMPI DUP1 MLOAD SWAP1 PUSH8 0xFFFFFFFFFFFFFFFF DUP3 GT PUSH2 0x870 JUMPI ADD SWAP2 DUP1 PUSH1 0x1F DUP5 ADD SLT ISZERO PUSH2 0x870 JUMPI DUP3 MLOAD PUSH2 0x139C DUP2 PUSH2 0x1165 JUMP JUMPDEST SWAP4 PUSH2 0x13AA PUSH1 0x40 MLOAD SWAP6 DUP7 PUSH2 0x1143 JUMP JUMPDEST DUP2 DUP6 MSTORE DUP4 DUP1 DUP7 ADD SWAP3 PUSH1 0x5 SHL DUP3 ADD ADD SWAP3 DUP4 GT PUSH2 0x870 JUMPI DUP4 ADD SWAP1 JUMPDEST DUP3 DUP3 LT PUSH2 0x13D1 JUMPI POP POP POP POP SWAP1 JUMP JUMPDEST DUP2 MLOAD DUP2 MSTORE SWAP1 DUP4 ADD SWAP1 DUP4 ADD PUSH2 0x13C3 JUMP JUMPDEST SWAP2 SWAP1 DUP3 SUB SWAP2 DUP3 GT PUSH2 0x1350 JUMPI JUMP JUMPDEST SWAP1 DUP2 PUSH1 0x20 SWAP2 SUB SLT PUSH2 0x870 JUMPI MLOAD DUP1 ISZERO ISZERO DUP2 SUB PUSH2 0x870 JUMPI SWAP1 JUMP JUMPDEST SWAP2 SWAP3 PUSH1 0x80 SWAP4 PUSH2 0x142A SWAP3 SWAP8 SWAP7 SWAP6 SWAP8 DUP5 MSTORE PUSH1 0x20 DUP5 ADD MSTORE PUSH1 0xA0 PUSH1 0x40 DUP5 ADD MSTORE PUSH1 0xA0 DUP4 ADD SWAP1 PUSH2 0x1306 JUMP JUMPDEST PUSH1 0x1 PUSH1 0x1 PUSH1 0xA0 SHL SUB SWAP1 SWAP6 AND PUSH1 0x60 DUP3 ADD MSTORE ADD MSTORE JUMP INVALID LOG2 PUSH5 0x6970667358 0x22 SLT KECCAK256 PUSH8 0x2EA63CF445A7BD6A 0x2A 0x2F SWAP8 0xD2 ADD 0xE9 0xE3 0xF SWAP2 PUSH26 0xAB7F94B81A742F55BD90625D2964736F6C634300081400330000 "},"methodIdentifiers":{"owner()":"8da5cb5b","pause()":"8456cb59","paused()":"5c975abb","receiveFlashLoan(address[],uint256[],uint256[],bytes)":"f04f2707","startFlashloan(address,uint256,bytes)":"8298a90d","twapOracle()":"9043292a","unpause()":"3f4ba83a","vault()":"fbfa77cf","withdraw(address)":"51cff8d9"}}}}}