{"contracts/contracts/MockVault.sol":{"MockVault":{"abi":[{"inputs":[{"internalType":"address","name":"recipient","type":"address"},{"internalType":"address[]","name":"tokens","type":"address[]"},{"internalType":"uint256[]","name":"amounts","type":"uint256[]"},{"internalType":"bytes","name":"userData","type":"bytes"}],"name":"flashLoan","outputs":[],"stateMutability":"nonpayable","type":"function"}],"evm":{"bytecode":{"linkReferences":{},"object":"608080604052346100165761044a908161001c8239f35b600080fdfe6080604052600436101561001257600080fd5b6000803560e01c635c38449e1461002857600080fd5b34610365576080366003190112610365576004356001600160a01b03811681036103615760243567ffffffffffffffff811161035d5761006c903690600401610368565b919060443567ffffffffffffffff81116103595761008e903690600401610368565b9167ffffffffffffffff60643511610355573660236064350112156103555767ffffffffffffffff6064356004013511610355573660246064356004013560643501011161035557855b85811061028457506100e9856103fc565b926100f760405194856103c4565b858452601f19610106876103fc565b013660208601376001600160a01b0385163b156102525760405163f04f270760e01b815260806004820152608481018790529560a48701929088905b808210610256575050508582036003190160248701528082526001600160fb1b038111610252579185939187959360051b80926020830137016020604081830192601c878203016044880152845180945201920190855b818110610236575050508360208480936003198282030160648301526064356004013581526064356004013560246064350184830137600460643501358181018401859052601f01601f1916010301926001600160a01b03165af1801561022b57610202575080f35b67ffffffffffffffff81116102175760405280f35b634e487b7160e01b82526041600452602482fd5b6040513d84823e3d90fd5b8251845288965087955060209384019390920191600101610199565b8680fd5b90919384359060018060a01b03821680920361028057602081600193829352019501920190610142565b8a80fd5b61028f81878461039e565b356001600160a01b0381169081900361033f57876102ae83878761039e565b60405163a9059cbb60e01b81526001600160a01b03891660048201529035602482015291602091829184916044918391905af1801561034a57610313575b505060001981146102ff576001016100d8565b634e487b7160e01b87526011600452602487fd5b81813d8311610343575b61032781836103c4565b8101031261033f5751801515036102525738806102ec565b8780fd5b503d61031d565b6040513d8b823e3d90fd5b8580fd5b8480fd5b8280fd5b5080fd5b80fd5b9181601f840112156103995782359167ffffffffffffffff8311610399576020808501948460051b01011161039957565b600080fd5b91908110156103ae5760051b0190565b634e487b7160e01b600052603260045260246000fd5b90601f8019910116810190811067ffffffffffffffff8211176103e657604052565b634e487b7160e01b600052604160045260246000fd5b67ffffffffffffffff81116103e65760051b6020019056fea26469706673582212201fff7856c3faf002ff78f6c03d7a7083b8355736ca05440869f1d54bd5e39a9964736f6c63430008140033","opcodes":"PUSH1 0x80 DUP1 PUSH1 0x40 MSTORE CALLVALUE PUSH2 0x16 JUMPI PUSH2 0x44A SWAP1 DUP2 PUSH2 0x1C DUP3 CODECOPY RETURN JUMPDEST PUSH1 0x0 DUP1 REVERT INVALID PUSH1 0x80 PUSH1 0x40 MSTORE PUSH1 0x4 CALLDATASIZE LT ISZERO PUSH2 0x12 JUMPI PUSH1 0x0 DUP1 REVERT JUMPDEST PUSH1 0x0 DUP1 CALLDATALOAD PUSH1 0xE0 SHR PUSH4 0x5C38449E EQ PUSH2 0x28 JUMPI PUSH1 0x0 DUP1 REVERT JUMPDEST CALLVALUE PUSH2 0x365 JUMPI PUSH1 0x80 CALLDATASIZE PUSH1 0x3 NOT ADD SLT PUSH2 0x365 JUMPI PUSH1 0x4 CALLDATALOAD PUSH1 0x1 PUSH1 0x1 PUSH1 0xA0 SHL SUB DUP2 AND DUP2 SUB PUSH2 0x361 JUMPI PUSH1 0x24 CALLDATALOAD PUSH8 0xFFFFFFFFFFFFFFFF DUP2 GT PUSH2 0x35D JUMPI PUSH2 0x6C SWAP1 CALLDATASIZE SWAP1 PUSH1 0x4 ADD PUSH2 0x368 JUMP JUMPDEST SWAP2 SWAP1 PUSH1 0x44 CALLDATALOAD PUSH8 0xFFFFFFFFFFFFFFFF DUP2 GT PUSH2 0x359 JUMPI PUSH2 0x8E SWAP1 CALLDATASIZE SWAP1 PUSH1 0x4 ADD PUSH2 0x368 JUMP JUMPDEST SWAP2 PUSH8 0xFFFFFFFFFFFFFFFF PUSH1 0x64 CALLDATALOAD GT PUSH2 0x355 JUMPI CALLDATASIZE PUSH1 0x23 PUSH1 0x64 CALLDATALOAD ADD SLT ISZERO PUSH2 0x355 JUMPI PUSH8 0xFFFFFFFFFFFFFFFF PUSH1 0x64 CALLDATALOAD PUSH1 0x4 ADD CALLDATALOAD GT PUSH2 0x355 JUMPI CALLDATASIZE PUSH1 0x24 PUSH1 0x64 CALLDATALOAD PUSH1 0x4 ADD CALLDATALOAD PUSH1 0x64 CALLDATALOAD ADD ADD GT PUSH2 0x355 JUMPI DUP6 JUMPDEST DUP6 DUP2 LT PUSH2 0x284 JUMPI POP PUSH2 0xE9 DUP6 PUSH2 0x3FC JUMP JUMPDEST SWAP3 PUSH2 0xF7 PUSH1 0x40 MLOAD SWAP5 DUP6 PUSH2 0x3C4 JUMP JUMPDEST DUP6 DUP5 MSTORE PUSH1 0x1F NOT PUSH2 0x106 DUP8 PUSH2 0x3FC JUMP JUMPDEST ADD CALLDATASIZE PUSH1 0x20 DUP7 ADD CALLDATACOPY PUSH1 0x1 PUSH1 0x1 PUSH1 0xA0 SHL SUB DUP6 AND EXTCODESIZE ISZERO PUSH2 0x252 JUMPI PUSH1 0x40 MLOAD PUSH4 0xF04F2707 PUSH1 0xE0 SHL DUP2 MSTORE PUSH1 0x80 PUSH1 0x4 DUP3 ADD MSTORE PUSH1 0x84 DUP2 ADD DUP8 SWAP1 MSTORE SWAP6 PUSH1 0xA4 DUP8 ADD SWAP3 SWAP1 DUP9 SWAP1 JUMPDEST DUP1 DUP3 LT PUSH2 0x256 JUMPI POP POP POP DUP6 DUP3 SUB PUSH1 0x3 NOT ADD PUSH1 0x24 DUP8 ADD MSTORE DUP1 DUP3 MSTORE PUSH1 0x1 PUSH1 0x1 PUSH1 0xFB SHL SUB DUP2 GT PUSH2 0x252 JUMPI SWAP2 DUP6 SWAP4 SWAP2 DUP8 SWAP6 SWAP4 PUSH1 0x5 SHL DUP1 SWAP3 PUSH1 0x20 DUP4 ADD CALLDATACOPY ADD PUSH1 0x20 PUSH1 0x40 DUP2 DUP4 ADD SWAP3 PUSH1 0x1C DUP8 DUP3 SUB ADD PUSH1 0x44 DUP9 ADD MSTORE DUP5 MLOAD DUP1 SWAP5 MSTORE ADD SWAP3 ADD SWAP1 DUP6 JUMPDEST DUP2 DUP2 LT PUSH2 0x236 JUMPI POP POP POP DUP4 PUSH1 0x20 DUP5 DUP1 SWAP4 PUSH1 0x3 NOT DUP3 DUP3 SUB ADD PUSH1 0x64 DUP4 ADD MSTORE PUSH1 0x64 CALLDATALOAD PUSH1 0x4 ADD CALLDATALOAD DUP2 MSTORE PUSH1 0x64 CALLDATALOAD PUSH1 0x4 ADD CALLDATALOAD PUSH1 0x24 PUSH1 0x64 CALLDATALOAD ADD DUP5 DUP4 ADD CALLDATACOPY PUSH1 0x4 PUSH1 0x64 CALLDATALOAD ADD CALLDATALOAD DUP2 DUP2 ADD DUP5 ADD DUP6 SWAP1 MSTORE PUSH1 0x1F ADD PUSH1 0x1F NOT AND ADD SUB ADD SWAP3 PUSH1 0x1 PUSH1 0x1 PUSH1 0xA0 SHL SUB AND GAS CALL DUP1 ISZERO PUSH2 0x22B JUMPI PUSH2 0x202 JUMPI POP DUP1 RETURN JUMPDEST PUSH8 0xFFFFFFFFFFFFFFFF DUP2 GT PUSH2 0x217 JUMPI PUSH1 0x40 MSTORE DUP1 RETURN JUMPDEST PUSH4 0x4E487B71 PUSH1 0xE0 SHL DUP3 MSTORE PUSH1 0x41 PUSH1 0x4 MSTORE PUSH1 0x24 DUP3 REVERT JUMPDEST PUSH1 0x40 MLOAD RETURNDATASIZE DUP5 DUP3 RETURNDATACOPY RETURNDATASIZE SWAP1 REVERT JUMPDEST DUP3 MLOAD DUP5 MSTORE DUP9 SWAP7 POP DUP8 SWAP6 POP PUSH1 0x20 SWAP4 DUP5 ADD SWAP4 SWAP1 SWAP3 ADD SWAP2 PUSH1 0x1 ADD PUSH2 0x199 JUMP JUMPDEST DUP7 DUP1 REVERT JUMPDEST SWAP1 SWAP2 SWAP4 DUP5 CALLDATALOAD SWAP1 PUSH1 0x1 DUP1 PUSH1 0xA0 SHL SUB DUP3 AND DUP1 SWAP3 SUB PUSH2 0x280 JUMPI PUSH1 0x20 DUP2 PUSH1 0x1 SWAP4 DUP3 SWAP4 MSTORE ADD SWAP6 ADD SWAP3 ADD SWAP1 PUSH2 0x142 JUMP JUMPDEST DUP11 DUP1 REVERT JUMPDEST PUSH2 0x28F DUP2 DUP8 DUP5 PUSH2 0x39E JUMP JUMPDEST CALLDATALOAD PUSH1 0x1 PUSH1 0x1 PUSH1 0xA0 SHL SUB DUP2 AND SWAP1 DUP2 SWAP1 SUB PUSH2 0x33F JUMPI DUP8 PUSH2 0x2AE DUP4 DUP8 DUP8 PUSH2 0x39E JUMP JUMPDEST PUSH1 0x40 MLOAD PUSH4 0xA9059CBB PUSH1 0xE0 SHL DUP2 MSTORE PUSH1 0x1 PUSH1 0x1 PUSH1 0xA0 SHL SUB DUP10 AND PUSH1 0x4 DUP3 ADD MSTORE SWAP1 CALLDATALOAD PUSH1 0x24 DUP3 ADD MSTORE SWAP2 PUSH1 0x20 SWAP2 DUP3 SWAP2 DUP5 SWAP2 PUSH1 0x44 SWAP2 DUP4 SWAP2 SWAP1 GAS CALL DUP1 ISZERO PUSH2 0x34A JUMPI PUSH2 0x313 JUMPI JUMPDEST POP POP PUSH1 0x0 NOT DUP2 EQ PUSH2 0x2FF JUMPI PUSH1 0x1 ADD PUSH2 0xD8 JUMP JUMPDEST PUSH4 0x4E487B71 PUSH1 0xE0 SHL DUP8 MSTORE PUSH1 0x11 PUSH1 0x4 MSTORE PUSH1 0x24 DUP8 REVERT JUMPDEST DUP2 DUP2 RETURNDATASIZE DUP4 GT PUSH2 0x343 JUMPI JUMPDEST PUSH2 0x327 DUP2 DUP4 PUSH2 0x3C4 JUMP JUMPDEST DUP2 ADD SUB SLT PUSH2 0x33F JUMPI MLOAD DUP1 ISZERO ISZERO SUB PUSH2 0x252 JUMPI CODESIZE DUP1 PUSH2 0x2EC JUMP JUMPDEST DUP8 DUP1 REVERT JUMPDEST POP RETURNDATASIZE PUSH2 0x31D JUMP JUMPDEST PUSH1 0x40 MLOAD RETURNDATASIZE DUP12 DUP3 RETURNDATACOPY RETURNDATASIZE SWAP1 REVERT JUMPDEST DUP6 DUP1 REVERT JUMPDEST DUP5 DUP1 REVERT JUMPDEST DUP3 DUP1 REVERT JUMPDEST POP DUP1 REVERT JUMPDEST DUP1 REVERT JUMPDEST SWAP2 DUP2 PUSH1 0x1F DUP5 ADD SLT ISZERO PUSH2 0x399 JUMPI DUP3 CALLDATALOAD SWAP2 PUSH8 0xFFFFFFFFFFFFFFFF DUP4 GT PUSH2 0x399 JUMPI PUSH1 0x20 DUP1 DUP6 ADD SWAP5 DUP5 PUSH1 0x5 SHL ADD ADD GT PUSH2 0x399 JUMPI JUMP JUMPDEST PUSH1 0x0 DUP1 REVERT JUMPDEST SWAP2 SWAP1 DUP2 LT ISZERO PUSH2 0x3AE JUMPI PUSH1 0x5 SHL ADD SWAP1 JUMP JUMPDEST PUSH4 0x4E487B71 PUSH1 0xE0 SHL PUSH1 0x0 MSTORE PUSH1 0x32 PUSH1 0x4 MSTORE PUSH1 0x24 PUSH1 0x0 REVERT JUMPDEST SWAP1 PUSH1 0x1F DUP1 NOT SWAP2 ADD AND DUP2 ADD SWAP1 DUP2 LT PUSH8 0xFFFFFFFFFFFFFFFF DUP3 GT OR PUSH2 0x3E6 JUMPI PUSH1 0x40 MSTORE JUMP JUMPDEST PUSH4 0x4E487B71 PUSH1 0xE0 SHL PUSH1 0x0 MSTORE PUSH1 0x41 PUSH1 0x4 MSTORE PUSH1 0x24 PUSH1 0x0 REVERT JUMPDEST PUSH8 0xFFFFFFFFFFFFFFFF DUP2 GT PUSH2 0x3E6 JUMPI PUSH1 0x5 SHL PUSH1 0x20 ADD SWAP1 JUMP INVALID LOG2 PUSH5 0x6970667358 0x22 SLT KECCAK256 0x1F SELFDESTRUCT PUSH25 0x56C3FAF002FF78F6C03D7A7083B8355736CA05440869F1D54B 0xD5 0xE3 SWAP11 SWAP10 PUSH5 0x736F6C6343 STOP ADDMOD EQ STOP CALLER "},"methodIdentifiers":{"flashLoan(address,address[],uint256[],bytes)":"5c38449e"}}}}}