{"contracts/contracts/ArbitrageBalancer.sol":{"ArbitrageBalancer":{"abi":[{"inputs":[{"internalType":"address","name":"_vault","type":"address"},{"internalType":"address","name":"_twapOracle","type":"address"}],"stateMutability":"nonpayable","type":"constructor"},{"inputs":[],"name":"ReentrancyGuardReentrantCall","type":"error"},{"anonymous":false,"inputs":[{"indexed":true,"internalType":"address","name":"token","type":"address"},{"indexed":false,"internalType":"uint256","name":"loanAmount","type":"uint256"},{"indexed":false,"internalType":"int256","name":"netProfit","type":"int256"}],"name":"FlashLoanExecuted","type":"event"},{"anonymous":false,"inputs":[{"indexed":true,"internalType":"address","name":"token","type":"address"},{"indexed":false,"internalType":"uint256","name":"amount","type":"uint256"}],"name":"ProfitWithdrawal","type":"event"},{"inputs":[],"name":"owner","outputs":[{"internalType":"address","name":"","type":"address"}],"stateMutability":"view","type":"function"},{"inputs":[{"internalType":"address[]","name":"tokens","type":"address[]"},{"internalType":"uint256[]","name":"amounts","type":"uint256[]"},{"internalType":"uint256[]","name":"feeAmounts","type":"uint256[]"},{"internalType":"bytes","name":"userData","type":"bytes"}],"name":"receiveFlashLoan","outputs":[],"stateMutability":"nonpayable","type":"function"},{"inputs":[{"internalType":"address","name":"token","type":"address"},{"internalType":"uint256","name":"amount","type":"uint256"},{"internalType":"bytes","name":"userData","type":"bytes"}],"name":"startFlashloan","outputs":[],"stateMutability":"nonpayable","type":"function"},{"inputs":[],"name":"twapOracle","outputs":[{"internalType":"contract IUniswapV2TwapOracle","name":"","type":"address"}],"stateMutability":"view","type":"function"},{"inputs":[],"name":"vault","outputs":[{"internalType":"contract IVault","name":"","type":"address"}],"stateMutability":"view","type":"function"},{"inputs":[{"internalType":"address","name":"tokenAddress","type":"address"}],"name":"withdraw","outputs":[],"stateMutability":"nonpayable","type":"function"}],"evm":{"bytecode":{"linkReferences":{},"object":"60e0346100c757601f61138838819003918201601f19168301916001600160401b038311848410176100cc5780849260409485528339810103126100c757610052602061004b836100e2565b92016100e2565b6001600055336080526001600160a01b0391821660a0521660c05260405161129190816100f7823960805181818161067501528181610bf501528181610c730152610e10015260a051818181607401528181610148015281816105b00152610ceb015260c0518181816102f90152610bb00152f35b600080fd5b634e487b7160e01b600052604160045260246000fd5b51906001600160a01b03821682036100c75756fe6080604052600436101561001257600080fd5b6000803560e01c806351cff8d914610df35780638298a90d14610c245780638da5cb5b14610bdf5780639043292a14610b9a578063f04f2707146100a65763fbfa77cf1461005f57600080fd5b346100a357806003193601126100a3576040517f00000000000000000000000000000000000000000000000000000000000000006001600160a01b03168152602090f35b80fd5b50346100a35760803660031901126100a3576004356001600160401b038111610b96576100d7903690600401610f88565b906024356001600160401b038111610b92576100f7903690600401610f88565b6044939193356001600160401b038111610b8e57610119903690600401610f88565b6064356001600160401b038111610b8a57610138903690600401610f5b565b926002895414610b7857600289557f00000000000000000000000000000000000000000000000000000000000000006001600160a01b03163303610b205760018603610abf57610100828581010312610abb5761019482610f47565b906101a160208401610f47565b9360408401356001600160401b03811161094d576101c4908786019086016110fb565b9660608501356001600160401b038111610a7c57878601601f828801011215610a7c576101f381870135611060565b97610201604051998a61103f565b8682018035808b526020808c019492848b0160059390931b010111610ab757602081890101925b888201803560051b016020018410610a80575050505060c08501359862ffffff8a168a03610a7c576001600160a01b038516151580610a6a575b15610a2557600289511480610a0a575b806109ef575b156109aa57600288510361096557156109515789356001600160a01b038116900361094d57156109395715610925576102b762ffffff91358a35611161565b6040516301d5813160e61b81526001600160a01b0393841660048201528a356024820152858416604482015291909716606482015290602090829060849082907f0000000000000000000000000000000000000000000000000000000000000000165afa90811561082c5789916108ee575b50610377896001600160a01b0361033f88611077565b511661034a87611077565b51908b60405180958194829363d06ca61f60e01b84523560048401526040602484015260448301906110be565b03915afa80156108e357610392918b916108c9575b5061109a565b5181808211156108b9576103a5916111fd565b905b612710918281029281840414901517156107fe5780156108a55760e08301359104116108565761041460206001600160a01b036103e387611077565b5160405163095ea7b360e01b815291166001600160a01b031660048201528935602482015291829081906044820190565b03818c8b356001600160a01b03165af1801561082c57610837575b5061047b886001600160a01b0361044587611077565b511661045086611077565b51908a836040518096819582946338ed173960e01b84524291309160a08d0135903560048701611222565b03925af190811561082c578991610812575b508051806000198101116107fe579160206104b46104fd9795938c979560001901906110aa565b519283906001600160a01b036104c98861109a565b511688604051809b8195829463095ea7b360e01b84526004840160209093929193604081019460018060a01b031681520152565b03926001600160a01b03165af19081156107235761052e60806105499261056b9989956107df575b50013589611161565b946001600160a01b03906105419061109a565b51169361109a565b516040516338ed173960e01b8152968795869485934292309260048701611222565b03925af19081156107235785916107bd575b5080516000198101919082116107a95790610597916110aa565b51908082106107585760405163a9059cbb60e01b8082527f00000000000000000000000000000000000000000000000000000000000000006001600160a01b031660048301526024820183905292909190602083806044810103818a89356001600160a01b03165af192831561074d576106169361072e575b506111fd565b9081610665575b506040805193358452602084019190915290356001600160a01b0316917f1736d858cebb9f1fc945933505f6898d6f81e41ee20cfb09e7031c9a817240c69190a26001815580f35b6040519081526001600160a01b037f00000000000000000000000000000000000000000000000000000000000000001660048201526024810182905291602083806044810103818885356001600160a01b03165af1918215610723577f1736d858cebb9f1fc945933505f6898d6f81e41ee20cfb09e7031c9a817240c6936040936106f4575b5091509161061d565b6107159060203d60201161071c575b61070d818361103f565b81019061120a565b50386106eb565b503d610703565b6040513d87823e3d90fd5b6107469060203d60201161071c5761070d818361103f565b5038610610565b6040513d89823e3d90fd5b60405162461bcd60e51b815260206004820152602360248201527f547261646520776173206e6f742070726f66697461626c65206166746572206660448201526265657360e81b6064820152608490fd5b634e487b7160e01b86526011600452602486fd5b6107d991503d8087833e6107d1818361103f565b810190611184565b3861057d565b6107f79060203d60201161071c5761070d818361103f565b5038610525565b634e487b7160e01b8a52601160045260248afd5b61082691503d808b833e6107d1818361103f565b3861048d565b6040513d8b823e3d90fd5b61084f9060203d60201161071c5761070d818361103f565b503861042f565b60405162461bcd60e51b815260206004820152602160248201527f507269636520646576696174657320746f6f206d7563682066726f6d205457416044820152600560fc1b6064820152608490fd5b634e487b7160e01b8a52601260045260248afd5b906108c3916111fd565b906103a7565b6108dd91503d808d833e6107d1818361103f565b3861038c565b6040513d8c823e3d90fd5b90506020813d60201161091d575b816109096020938361103f565b81010312610918575138610329565b600080fd5b3d91506108fc565b634e487b7160e01b8a52603260045260248afd5b634e487b7160e01b8b52603260045260248bfd5b8b80fd5b634e487b7160e01b8c52603260045260248cfd5b60405162461bcd60e51b815260206004820152601b60248201527f496e76616c696420706174687320636f6e66696775726174696f6e00000000006044820152606490fd5b60405162461bcd60e51b815260206004820152601c60248201527f496e76616c696420726f7574657220636f6e66696775726174696f6e000000006044820152606490fd5b506001600160a01b03610a018a61109a565b51161515610278565b506001600160a01b03610a1c8a611077565b51161515610272565b60405162461bcd60e51b815260206004820152601e60248201527f496e76616c696420746f6b656e20616464726573732070726f766964656400006044820152606490fd5b506001600160a01b0387161515610262565b8c80fd5b83356001600160401b038111610ab257602091610aa78b84809487898401930101016110fb565b815201930192610228565b508f80fd5b8e80fd5b8880fd5b60405162461bcd60e51b815260206004820152603360248201527f5468697320636f6e7472616374206f6e6c792068616e646c65732073696e676c604482015272652d746f6b656e20666c617368206c6f616e7360681b6064820152608490fd5b60405162461bcd60e51b815260206004820152602a60248201527f4f6e6c792042616c616e636572205661756c742063616e2063616c6c207468696044820152693990333ab731ba34b7b760b11b6064820152608490fd5b604051633ee5aeb560e01b8152600490fd5b8780fd5b8580fd5b8380fd5b5080fd5b50346100a357806003193601126100a3576040517f00000000000000000000000000000000000000000000000000000000000000006001600160a01b03168152602090f35b50346100a357806003193601126100a3576040517f00000000000000000000000000000000000000000000000000000000000000006001600160a01b03168152602090f35b50346100a357600319606036820112610b9657610c3f610f31565b906001600160401b0390604435828111610def57610c61903690600401610f5b565b9093906001600160a01b0390610c9a337f0000000000000000000000000000000000000000000000000000000000000000841614610fb8565b60405195610ca78761100e565b6001948588526020948536818b013784610cc08a611077565b9116905260405195610cd18761100e565b8087528587019486368737602435610ce889611077565b527f00000000000000000000000000000000000000000000000000000000000000001696873b15610deb57918694928b98969492610d489b986040519c8d9a632e1c224f60e11b8c523060048d0152608060248d015260848c01906110be565b92848b85030160448c015251928381520195918a5b818110610dd25750505050928287959386938a96858503016064860152818452858401378181018401859052601f01601f1916010301925af18015610dc757610da4578280f35b8111610db35760405238808280f35b634e487b7160e01b82526041600452602482fd5b6040513d85823e3d90fd5b835188528e9b508d9a5096880196928801928201610d5d565b8a80fd5b8480fd5b50346100a357602080600319360112610b9657610e0e610f31565b7f0000000000000000000000000000000000000000000000000000000000000000906001600160a01b0390610e463383851614610fb8565b16916040516370a0823160e01b81523060048201528181602481875afa908115610723578591610f04575b5080610e7b578480f35b60405163a9059cbb60e01b81526001600160a01b0393909316600484015260248301819052818360448188885af1928315610723577fd65d7b028c704b54bcbe20b09b06f59223a87a757489cba0ab12afbb7964723993610ee7575b50604051908152a2388080808480f35b610efd90833d851161071c5761070d818361103f565b5038610ed7565b90508181813d8311610f2a575b610f1b818361103f565b81010312610def575138610e71565b503d610f11565b600435906001600160a01b038216820361091857565b35906001600160a01b038216820361091857565b9181601f84011215610918578235916001600160401b038311610918576020838186019501011161091857565b9181601f84011215610918578235916001600160401b038311610918576020808501948460051b01011161091857565b15610fbf57565b60405162461bcd60e51b815260206004820152602160248201527f4f6e6c79206f776e65722063616e2063616c6c20746869732066756e6374696f6044820152603760f91b6064820152608490fd5b604081019081106001600160401b0382111761102957604052565b634e487b7160e01b600052604160045260246000fd5b90601f801991011681019081106001600160401b0382111761102957604052565b6001600160401b0381116110295760051b60200190565b8051156110845760200190565b634e487b7160e01b600052603260045260246000fd5b8051600110156110845760400190565b80518210156110845760209160051b010190565b90815180825260208080930193019160005b8281106110de575050505090565b83516001600160a01b0316855293810193928101926001016110d0565b81601f820112156109185780359161111283611060565b92611120604051948561103f565b808452602092838086019260051b820101928311610918578301905b82821061114a575050505090565b83809161115684610f47565b81520191019061113c565b9190820180921161116e57565b634e487b7160e01b600052601160045260246000fd5b6020908181840312610918578051906001600160401b03821161091857019180601f840112156109185782516111b981611060565b936111c7604051958661103f565b818552838086019260051b820101928311610918578301905b8282106111ee575050505090565b815181529083019083016111e0565b9190820391821161116e57565b90816020910312610918575180151581036109185790565b919260809361124792979695978452602084015260a0604084015260a08301906110be565b6001600160a01b039095166060820152015256fea2646970667358221220c023857ee9d7d45c32fe524d5d3392a76dde1e1f033f0c4cdc71bec8f8624afe64736f6c63430008140033","opcodes":"PUSH1 0xE0 CALLVALUE PUSH2 0xC7 JUMPI PUSH1 0x1F PUSH2 0x1388 CODESIZE DUP2 SWAP1 SUB SWAP2 DUP3 ADD PUSH1 0x1F NOT AND DUP4 ADD SWAP2 PUSH1 0x1 PUSH1 0x1 PUSH1 0x40 SHL SUB DUP4 GT DUP5 DUP5 LT OR PUSH2 0xCC JUMPI DUP1 DUP5 SWAP3 PUSH1 0x40 SWAP5 DUP6 MSTORE DUP4 CODECOPY DUP2 ADD SUB SLT PUSH2 0xC7 JUMPI PUSH2 0x52 PUSH1 0x20 PUSH2 0x4B DUP4 PUSH2 0xE2 JUMP JUMPDEST SWAP3 ADD PUSH2 0xE2 JUMP JUMPDEST PUSH1 0x1 PUSH1 0x0 SSTORE CALLER PUSH1 0x80 MSTORE PUSH1 0x1 PUSH1 0x1 PUSH1 0xA0 SHL SUB SWAP2 DUP3 AND PUSH1 0xA0 MSTORE AND PUSH1 0xC0 MSTORE PUSH1 0x40 MLOAD PUSH2 0x1291 SWAP1 DUP2 PUSH2 0xF7 DUP3 CODECOPY PUSH1 0x80 MLOAD DUP2 DUP2 DUP2 PUSH2 0x675 ADD MSTORE DUP2 DUP2 PUSH2 0xBF5 ADD MSTORE DUP2 DUP2 PUSH2 0xC73 ADD MSTORE PUSH2 0xE10 ADD MSTORE PUSH1 0xA0 MLOAD DUP2 DUP2 DUP2 PUSH1 0x74 ADD MSTORE DUP2 DUP2 PUSH2 0x148 ADD MSTORE DUP2 DUP2 PUSH2 0x5B0 ADD MSTORE PUSH2 0xCEB ADD MSTORE PUSH1 0xC0 MLOAD DUP2 DUP2 DUP2 PUSH2 0x2F9 ADD MSTORE PUSH2 0xBB0 ADD MSTORE RETURN JUMPDEST PUSH1 0x0 DUP1 REVERT JUMPDEST PUSH4 0x4E487B71 PUSH1 0xE0 SHL PUSH1 0x0 MSTORE PUSH1 0x41 PUSH1 0x4 MSTORE PUSH1 0x24 PUSH1 0x0 REVERT JUMPDEST MLOAD SWAP1 PUSH1 0x1 PUSH1 0x1 PUSH1 0xA0 SHL SUB DUP3 AND DUP3 SUB PUSH2 0xC7 JUMPI JUMP INVALID PUSH1 0x80 PUSH1 0x40 MSTORE PUSH1 0x4 CALLDATASIZE LT ISZERO PUSH2 0x12 JUMPI PUSH1 0x0 DUP1 REVERT JUMPDEST PUSH1 0x0 DUP1 CALLDATALOAD PUSH1 0xE0 SHR DUP1 PUSH4 0x51CFF8D9 EQ PUSH2 0xDF3 JUMPI DUP1 PUSH4 0x8298A90D EQ PUSH2 0xC24 JUMPI DUP1 PUSH4 0x8DA5CB5B EQ PUSH2 0xBDF JUMPI DUP1 PUSH4 0x9043292A EQ PUSH2 0xB9A JUMPI DUP1 PUSH4 0xF04F2707 EQ PUSH2 0xA6 JUMPI PUSH4 0xFBFA77CF EQ PUSH2 0x5F JUMPI PUSH1 0x0 DUP1 REVERT JUMPDEST CALLVALUE PUSH2 0xA3 JUMPI DUP1 PUSH1 0x3 NOT CALLDATASIZE ADD SLT PUSH2 0xA3 JUMPI PUSH1 0x40 MLOAD PUSH32 0x0 PUSH1 0x1 PUSH1 0x1 PUSH1 0xA0 SHL SUB AND DUP2 MSTORE PUSH1 0x20 SWAP1 RETURN JUMPDEST DUP1 REVERT JUMPDEST POP CALLVALUE PUSH2 0xA3 JUMPI PUSH1 0x80 CALLDATASIZE PUSH1 0x3 NOT ADD SLT PUSH2 0xA3 JUMPI PUSH1 0x4 CALLDATALOAD PUSH1 0x1 PUSH1 0x1 PUSH1 0x40 SHL SUB DUP2 GT PUSH2 0xB96 JUMPI PUSH2 0xD7 SWAP1 CALLDATASIZE SWAP1 PUSH1 0x4 ADD PUSH2 0xF88 JUMP JUMPDEST SWAP1 PUSH1 0x24 CALLDATALOAD PUSH1 0x1 PUSH1 0x1 PUSH1 0x40 SHL SUB DUP2 GT PUSH2 0xB92 JUMPI PUSH2 0xF7 SWAP1 CALLDATASIZE SWAP1 PUSH1 0x4 ADD PUSH2 0xF88 JUMP JUMPDEST PUSH1 0x44 SWAP4 SWAP2 SWAP4 CALLDATALOAD PUSH1 0x1 PUSH1 0x1 PUSH1 0x40 SHL SUB DUP2 GT PUSH2 0xB8E JUMPI PUSH2 0x119 SWAP1 CALLDATASIZE SWAP1 PUSH1 0x4 ADD PUSH2 0xF88 JUMP JUMPDEST PUSH1 0x64 CALLDATALOAD PUSH1 0x1 PUSH1 0x1 PUSH1 0x40 SHL SUB DUP2 GT PUSH2 0xB8A JUMPI PUSH2 0x138 SWAP1 CALLDATASIZE SWAP1 PUSH1 0x4 ADD PUSH2 0xF5B JUMP JUMPDEST SWAP3 PUSH1 0x2 DUP10 SLOAD EQ PUSH2 0xB78 JUMPI PUSH1 0x2 DUP10 SSTORE PUSH32 0x0 PUSH1 0x1 PUSH1 0x1 PUSH1 0xA0 SHL SUB AND CALLER SUB PUSH2 0xB20 JUMPI PUSH1 0x1 DUP7 SUB PUSH2 0xABF JUMPI PUSH2 0x100 DUP3 DUP6 DUP2 ADD SUB SLT PUSH2 0xABB JUMPI PUSH2 0x194 DUP3 PUSH2 0xF47 JUMP JUMPDEST SWAP1 PUSH2 0x1A1 PUSH1 0x20 DUP5 ADD PUSH2 0xF47 JUMP JUMPDEST SWAP4 PUSH1 0x40 DUP5 ADD CALLDATALOAD PUSH1 0x1 PUSH1 0x1 PUSH1 0x40 SHL SUB DUP2 GT PUSH2 0x94D JUMPI PUSH2 0x1C4 SWAP1 DUP8 DUP7 ADD SWAP1 DUP7 ADD PUSH2 0x10FB JUMP JUMPDEST SWAP7 PUSH1 0x60 DUP6 ADD CALLDATALOAD PUSH1 0x1 PUSH1 0x1 PUSH1 0x40 SHL SUB DUP2 GT PUSH2 0xA7C JUMPI DUP8 DUP7 ADD PUSH1 0x1F DUP3 DUP9 ADD ADD SLT ISZERO PUSH2 0xA7C JUMPI PUSH2 0x1F3 DUP2 DUP8 ADD CALLDATALOAD PUSH2 0x1060 JUMP JUMPDEST SWAP8 PUSH2 0x201 PUSH1 0x40 MLOAD SWAP10 DUP11 PUSH2 0x103F JUMP JUMPDEST DUP7 DUP3 ADD DUP1 CALLDATALOAD DUP1 DUP12 MSTORE PUSH1 0x20 DUP1 DUP13 ADD SWAP5 SWAP3 DUP5 DUP12 ADD PUSH1 0x5 SWAP4 SWAP1 SWAP4 SHL ADD ADD GT PUSH2 0xAB7 JUMPI PUSH1 0x20 DUP2 DUP10 ADD ADD SWAP3 JUMPDEST DUP9 DUP3 ADD DUP1 CALLDATALOAD PUSH1 0x5 SHL ADD PUSH1 0x20 ADD DUP5 LT PUSH2 0xA80 JUMPI POP POP POP POP PUSH1 0xC0 DUP6 ADD CALLDATALOAD SWAP9 PUSH3 0xFFFFFF DUP11 AND DUP11 SUB PUSH2 0xA7C JUMPI PUSH1 0x1 PUSH1 0x1 PUSH1 0xA0 SHL SUB DUP6 AND ISZERO ISZERO DUP1 PUSH2 0xA6A JUMPI JUMPDEST ISZERO PUSH2 0xA25 JUMPI PUSH1 0x2 DUP10 MLOAD EQ DUP1 PUSH2 0xA0A JUMPI JUMPDEST DUP1 PUSH2 0x9EF JUMPI JUMPDEST ISZERO PUSH2 0x9AA JUMPI PUSH1 0x2 DUP9 MLOAD SUB PUSH2 0x965 JUMPI ISZERO PUSH2 0x951 JUMPI DUP10 CALLDATALOAD PUSH1 0x1 PUSH1 0x1 PUSH1 0xA0 SHL SUB DUP2 AND SWAP1 SUB PUSH2 0x94D JUMPI ISZERO PUSH2 0x939 JUMPI ISZERO PUSH2 0x925 JUMPI PUSH2 0x2B7 PUSH3 0xFFFFFF SWAP2 CALLDATALOAD DUP11 CALLDATALOAD PUSH2 0x1161 JUMP JUMPDEST PUSH1 0x40 MLOAD PUSH4 0x1D58131 PUSH1 0xE6 SHL DUP2 MSTORE PUSH1 0x1 PUSH1 0x1 PUSH1 0xA0 SHL SUB SWAP4 DUP5 AND PUSH1 0x4 DUP3 ADD MSTORE DUP11 CALLDATALOAD PUSH1 0x24 DUP3 ADD MSTORE DUP6 DUP5 AND PUSH1 0x44 DUP3 ADD MSTORE SWAP2 SWAP1 SWAP8 AND PUSH1 0x64 DUP3 ADD MSTORE SWAP1 PUSH1 0x20 SWAP1 DUP3 SWAP1 PUSH1 0x84 SWAP1 DUP3 SWAP1 PUSH32 0x0 AND GAS STATICCALL SWAP1 DUP2 ISZERO PUSH2 0x82C JUMPI DUP10 SWAP2 PUSH2 0x8EE JUMPI JUMPDEST POP PUSH2 0x377 DUP10 PUSH1 0x1 PUSH1 0x1 PUSH1 0xA0 SHL SUB PUSH2 0x33F DUP9 PUSH2 0x1077 JUMP JUMPDEST MLOAD AND PUSH2 0x34A DUP8 PUSH2 0x1077 JUMP JUMPDEST MLOAD SWAP1 DUP12 PUSH1 0x40 MLOAD DUP1 SWAP6 DUP2 SWAP5 DUP3 SWAP4 PUSH4 0xD06CA61F PUSH1 0xE0 SHL DUP5 MSTORE CALLDATALOAD PUSH1 0x4 DUP5 ADD MSTORE PUSH1 0x40 PUSH1 0x24 DUP5 ADD MSTORE PUSH1 0x44 DUP4 ADD SWAP1 PUSH2 0x10BE JUMP JUMPDEST SUB SWAP2 GAS STATICCALL DUP1 ISZERO PUSH2 0x8E3 JUMPI PUSH2 0x392 SWAP2 DUP12 SWAP2 PUSH2 0x8C9 JUMPI JUMPDEST POP PUSH2 0x109A JUMP JUMPDEST MLOAD DUP2 DUP1 DUP3 GT ISZERO PUSH2 0x8B9 JUMPI PUSH2 0x3A5 SWAP2 PUSH2 0x11FD JUMP JUMPDEST SWAP1 JUMPDEST PUSH2 0x2710 SWAP2 DUP3 DUP2 MUL SWAP3 DUP2 DUP5 DIV EQ SWAP1 ISZERO OR ISZERO PUSH2 0x7FE JUMPI DUP1 ISZERO PUSH2 0x8A5 JUMPI PUSH1 0xE0 DUP4 ADD CALLDATALOAD SWAP2 DIV GT PUSH2 0x856 JUMPI PUSH2 0x414 PUSH1 0x20 PUSH1 0x1 PUSH1 0x1 PUSH1 0xA0 SHL SUB PUSH2 0x3E3 DUP8 PUSH2 0x1077 JUMP JUMPDEST MLOAD PUSH1 0x40 MLOAD PUSH4 0x95EA7B3 PUSH1 0xE0 SHL DUP2 MSTORE SWAP2 AND PUSH1 0x1 PUSH1 0x1 PUSH1 0xA0 SHL SUB AND PUSH1 0x4 DUP3 ADD MSTORE DUP10 CALLDATALOAD PUSH1 0x24 DUP3 ADD MSTORE SWAP2 DUP3 SWAP1 DUP2 SWAP1 PUSH1 0x44 DUP3 ADD SWAP1 JUMP JUMPDEST SUB DUP2 DUP13 DUP12 CALLDATALOAD PUSH1 0x1 PUSH1 0x1 PUSH1 0xA0 SHL SUB AND GAS CALL DUP1 ISZERO PUSH2 0x82C JUMPI PUSH2 0x837 JUMPI JUMPDEST POP PUSH2 0x47B DUP9 PUSH1 0x1 PUSH1 0x1 PUSH1 0xA0 SHL SUB PUSH2 0x445 DUP8 PUSH2 0x1077 JUMP JUMPDEST MLOAD AND PUSH2 0x450 DUP7 PUSH2 0x1077 JUMP JUMPDEST MLOAD SWAP1 DUP11 DUP4 PUSH1 0x40 MLOAD DUP1 SWAP7 DUP2 SWAP6 DUP3 SWAP5 PUSH4 0x38ED1739 PUSH1 0xE0 SHL DUP5 MSTORE TIMESTAMP SWAP2 ADDRESS SWAP2 PUSH1 0xA0 DUP14 ADD CALLDATALOAD SWAP1 CALLDATALOAD PUSH1 0x4 DUP8 ADD PUSH2 0x1222 JUMP JUMPDEST SUB SWAP3 GAS CALL SWAP1 DUP2 ISZERO PUSH2 0x82C JUMPI DUP10 SWAP2 PUSH2 0x812 JUMPI JUMPDEST POP DUP1 MLOAD DUP1 PUSH1 0x0 NOT DUP2 ADD GT PUSH2 0x7FE JUMPI SWAP2 PUSH1 0x20 PUSH2 0x4B4 PUSH2 0x4FD SWAP8 SWAP6 SWAP4 DUP13 SWAP8 SWAP6 PUSH1 0x0 NOT ADD SWAP1 PUSH2 0x10AA JUMP JUMPDEST MLOAD SWAP3 DUP4 SWAP1 PUSH1 0x1 PUSH1 0x1 PUSH1 0xA0 SHL SUB PUSH2 0x4C9 DUP9 PUSH2 0x109A JUMP JUMPDEST MLOAD AND DUP9 PUSH1 0x40 MLOAD DUP1 SWAP12 DUP2 SWAP6 DUP3 SWAP5 PUSH4 0x95EA7B3 PUSH1 0xE0 SHL DUP5 MSTORE PUSH1 0x4 DUP5 ADD PUSH1 0x20 SWAP1 SWAP4 SWAP3 SWAP2 SWAP4 PUSH1 0x40 DUP2 ADD SWAP5 PUSH1 0x1 DUP1 PUSH1 0xA0 SHL SUB AND DUP2 MSTORE ADD MSTORE JUMP JUMPDEST SUB SWAP3 PUSH1 0x1 PUSH1 0x1 PUSH1 0xA0 SHL SUB AND GAS CALL SWAP1 DUP2 ISZERO PUSH2 0x723 JUMPI PUSH2 0x52E PUSH1 0x80 PUSH2 0x549 SWAP3 PUSH2 0x56B SWAP10 DUP10 SWAP6 PUSH2 0x7DF JUMPI JUMPDEST POP ADD CALLDATALOAD DUP10 PUSH2 0x1161 JUMP JUMPDEST SWAP5 PUSH1 0x1 PUSH1 0x1 PUSH1 0xA0 SHL SUB SWAP1 PUSH2 0x541 SWAP1 PUSH2 0x109A JUMP JUMPDEST MLOAD AND SWAP4 PUSH2 0x109A JUMP JUMPDEST MLOAD PUSH1 0x40 MLOAD PUSH4 0x38ED1739 PUSH1 0xE0 SHL DUP2 MSTORE SWAP7 DUP8 SWAP6 DUP7 SWAP5 DUP6 SWAP4 TIMESTAMP SWAP3 ADDRESS SWAP3 PUSH1 0x4 DUP8 ADD PUSH2 0x1222 JUMP JUMPDEST SUB SWAP3 GAS CALL SWAP1 DUP2 ISZERO PUSH2 0x723 JUMPI DUP6 SWAP2 PUSH2 0x7BD JUMPI JUMPDEST POP DUP1 MLOAD PUSH1 0x0 NOT DUP2 ADD SWAP2 SWAP1 DUP3 GT PUSH2 0x7A9 JUMPI SWAP1 PUSH2 0x597 SWAP2 PUSH2 0x10AA JUMP JUMPDEST MLOAD SWAP1 DUP1 DUP3 LT PUSH2 0x758 JUMPI PUSH1 0x40 MLOAD PUSH4 0xA9059CBB PUSH1 0xE0 SHL DUP1 DUP3 MSTORE PUSH32 0x0 PUSH1 0x1 PUSH1 0x1 PUSH1 0xA0 SHL SUB AND PUSH1 0x4 DUP4 ADD MSTORE PUSH1 0x24 DUP3 ADD DUP4 SWAP1 MSTORE SWAP3 SWAP1 SWAP2 SWAP1 PUSH1 0x20 DUP4 DUP1 PUSH1 0x44 DUP2 ADD SUB DUP2 DUP11 DUP10 CALLDATALOAD PUSH1 0x1 PUSH1 0x1 PUSH1 0xA0 SHL SUB AND GAS CALL SWAP3 DUP4 ISZERO PUSH2 0x74D JUMPI PUSH2 0x616 SWAP4 PUSH2 0x72E JUMPI JUMPDEST POP PUSH2 0x11FD JUMP JUMPDEST SWAP1 DUP2 PUSH2 0x665 JUMPI JUMPDEST POP PUSH1 0x40 DUP1 MLOAD SWAP4 CALLDATALOAD DUP5 MSTORE PUSH1 0x20 DUP5 ADD SWAP2 SWAP1 SWAP2 MSTORE SWAP1 CALLDATALOAD PUSH1 0x1 PUSH1 0x1 PUSH1 0xA0 SHL SUB AND SWAP2 PUSH32 0x1736D858CEBB9F1FC945933505F6898D6F81E41EE20CFB09E7031C9A817240C6 SWAP2 SWAP1 LOG2 PUSH1 0x1 DUP2 SSTORE DUP1 RETURN JUMPDEST PUSH1 0x40 MLOAD SWAP1 DUP2 MSTORE PUSH1 0x1 PUSH1 0x1 PUSH1 0xA0 SHL SUB PUSH32 0x0 AND PUSH1 0x4 DUP3 ADD MSTORE PUSH1 0x24 DUP2 ADD DUP3 SWAP1 MSTORE SWAP2 PUSH1 0x20 DUP4 DUP1 PUSH1 0x44 DUP2 ADD SUB DUP2 DUP9 DUP6 CALLDATALOAD PUSH1 0x1 PUSH1 0x1 PUSH1 0xA0 SHL SUB AND GAS CALL SWAP2 DUP3 ISZERO PUSH2 0x723 JUMPI PUSH32 0x1736D858CEBB9F1FC945933505F6898D6F81E41EE20CFB09E7031C9A817240C6 SWAP4 PUSH1 0x40 SWAP4 PUSH2 0x6F4 JUMPI JUMPDEST POP SWAP2 POP SWAP2 PUSH2 0x61D JUMP JUMPDEST PUSH2 0x715 SWAP1 PUSH1 0x20 RETURNDATASIZE PUSH1 0x20 GT PUSH2 0x71C JUMPI JUMPDEST PUSH2 0x70D DUP2 DUP4 PUSH2 0x103F JUMP JUMPDEST DUP2 ADD SWAP1 PUSH2 0x120A JUMP JUMPDEST POP CODESIZE PUSH2 0x6EB JUMP JUMPDEST POP RETURNDATASIZE PUSH2 0x703 JUMP JUMPDEST PUSH1 0x40 MLOAD RETURNDATASIZE DUP8 DUP3 RETURNDATACOPY RETURNDATASIZE SWAP1 REVERT JUMPDEST PUSH2 0x746 SWAP1 PUSH1 0x20 RETURNDATASIZE PUSH1 0x20 GT PUSH2 0x71C JUMPI PUSH2 0x70D DUP2 DUP4 PUSH2 0x103F JUMP JUMPDEST POP CODESIZE PUSH2 0x610 JUMP JUMPDEST PUSH1 0x40 MLOAD RETURNDATASIZE DUP10 DUP3 RETURNDATACOPY RETURNDATASIZE SWAP1 REVERT JUMPDEST PUSH1 0x40 MLOAD PUSH3 0x461BCD PUSH1 0xE5 SHL DUP2 MSTORE PUSH1 0x20 PUSH1 0x4 DUP3 ADD MSTORE PUSH1 0x23 PUSH1 0x24 DUP3 ADD MSTORE PUSH32 0x547261646520776173206E6F742070726F66697461626C652061667465722066 PUSH1 0x44 DUP3 ADD MSTORE PUSH3 0x656573 PUSH1 0xE8 SHL PUSH1 0x64 DUP3 ADD MSTORE PUSH1 0x84 SWAP1 REVERT JUMPDEST PUSH4 0x4E487B71 PUSH1 0xE0 SHL DUP7 MSTORE PUSH1 0x11 PUSH1 0x4 MSTORE PUSH1 0x24 DUP7 REVERT JUMPDEST PUSH2 0x7D9 SWAP2 POP RETURNDATASIZE DUP1 DUP8 DUP4 RETURNDATACOPY PUSH2 0x7D1 DUP2 DUP4 PUSH2 0x103F JUMP JUMPDEST DUP2 ADD SWAP1 PUSH2 0x1184 JUMP JUMPDEST CODESIZE PUSH2 0x57D JUMP JUMPDEST PUSH2 0x7F7 SWAP1 PUSH1 0x20 RETURNDATASIZE PUSH1 0x20 GT PUSH2 0x71C JUMPI PUSH2 0x70D DUP2 DUP4 PUSH2 0x103F JUMP JUMPDEST POP CODESIZE PUSH2 0x525 JUMP JUMPDEST PUSH4 0x4E487B71 PUSH1 0xE0 SHL DUP11 MSTORE PUSH1 0x11 PUSH1 0x4 MSTORE PUSH1 0x24 DUP11 REVERT JUMPDEST PUSH2 0x826 SWAP2 POP RETURNDATASIZE DUP1 DUP12 DUP4 RETURNDATACOPY PUSH2 0x7D1 DUP2 DUP4 PUSH2 0x103F JUMP JUMPDEST CODESIZE PUSH2 0x48D JUMP JUMPDEST PUSH1 0x40 MLOAD RETURNDATASIZE DUP12 DUP3 RETURNDATACOPY RETURNDATASIZE SWAP1 REVERT JUMPDEST PUSH2 0x84F SWAP1 PUSH1 0x20 RETURNDATASIZE PUSH1 0x20 GT PUSH2 0x71C JUMPI PUSH2 0x70D DUP2 DUP4 PUSH2 0x103F JUMP JUMPDEST POP CODESIZE PUSH2 0x42F JUMP JUMPDEST PUSH1 0x40 MLOAD PUSH3 0x461BCD PUSH1 0xE5 SHL DUP2 MSTORE PUSH1 0x20 PUSH1 0x4 DUP3 ADD MSTORE PUSH1 0x21 PUSH1 0x24 DUP3 ADD MSTORE PUSH32 0x507269636520646576696174657320746F6F206D7563682066726F6D20545741 PUSH1 0x44 DUP3 ADD MSTORE PUSH1 0x5 PUSH1 0xFC SHL PUSH1 0x64 DUP3 ADD MSTORE PUSH1 0x84 SWAP1 REVERT JUMPDEST PUSH4 0x4E487B71 PUSH1 0xE0 SHL DUP11 MSTORE PUSH1 0x12 PUSH1 0x4 MSTORE PUSH1 0x24 DUP11 REVERT JUMPDEST SWAP1 PUSH2 0x8C3 SWAP2 PUSH2 0x11FD JUMP JUMPDEST SWAP1 PUSH2 0x3A7 JUMP JUMPDEST PUSH2 0x8DD SWAP2 POP RETURNDATASIZE DUP1 DUP14 DUP4 RETURNDATACOPY PUSH2 0x7D1 DUP2 DUP4 PUSH2 0x103F JUMP JUMPDEST CODESIZE PUSH2 0x38C JUMP JUMPDEST PUSH1 0x40 MLOAD RETURNDATASIZE DUP13 DUP3 RETURNDATACOPY RETURNDATASIZE SWAP1 REVERT JUMPDEST SWAP1 POP PUSH1 0x20 DUP2 RETURNDATASIZE PUSH1 0x20 GT PUSH2 0x91D JUMPI JUMPDEST DUP2 PUSH2 0x909 PUSH1 0x20 SWAP4 DUP4 PUSH2 0x103F JUMP JUMPDEST DUP2 ADD SUB SLT PUSH2 0x918 JUMPI MLOAD CODESIZE PUSH2 0x329 JUMP JUMPDEST PUSH1 0x0 DUP1 REVERT JUMPDEST RETURNDATASIZE SWAP2 POP PUSH2 0x8FC JUMP JUMPDEST PUSH4 0x4E487B71 PUSH1 0xE0 SHL DUP11 MSTORE PUSH1 0x32 PUSH1 0x4 MSTORE PUSH1 0x24 DUP11 REVERT JUMPDEST PUSH4 0x4E487B71 PUSH1 0xE0 SHL DUP12 MSTORE PUSH1 0x32 PUSH1 0x4 MSTORE PUSH1 0x24 DUP12 REVERT JUMPDEST DUP12 DUP1 REVERT JUMPDEST PUSH4 0x4E487B71 PUSH1 0xE0 SHL DUP13 MSTORE PUSH1 0x32 PUSH1 0x4 MSTORE PUSH1 0x24 DUP13 REVERT JUMPDEST PUSH1 0x40 MLOAD PUSH3 0x461BCD PUSH1 0xE5 SHL DUP2 MSTORE PUSH1 0x20 PUSH1 0x4 DUP3 ADD MSTORE PUSH1 0x1B PUSH1 0x24 DUP3 ADD MSTORE PUSH32 0x496E76616C696420706174687320636F6E66696775726174696F6E0000000000 PUSH1 0x44 DUP3 ADD MSTORE PUSH1 0x64 SWAP1 REVERT JUMPDEST PUSH1 0x40 MLOAD PUSH3 0x461BCD PUSH1 0xE5 SHL DUP2 MSTORE PUSH1 0x20 PUSH1 0x4 DUP3 ADD MSTORE PUSH1 0x1C PUSH1 0x24 DUP3 ADD MSTORE PUSH32 0x496E76616C696420726F7574657220636F6E66696775726174696F6E00000000 PUSH1 0x44 DUP3 ADD MSTORE PUSH1 0x64 SWAP1 REVERT JUMPDEST POP PUSH1 0x1 PUSH1 0x1 PUSH1 0xA0 SHL SUB PUSH2 0xA01 DUP11 PUSH2 0x109A JUMP JUMPDEST MLOAD AND ISZERO ISZERO PUSH2 0x278 JUMP JUMPDEST POP PUSH1 0x1 PUSH1 0x1 PUSH1 0xA0 SHL SUB PUSH2 0xA1C DUP11 PUSH2 0x1077 JUMP JUMPDEST MLOAD AND ISZERO ISZERO PUSH2 0x272 JUMP JUMPDEST PUSH1 0x40 MLOAD PUSH3 0x461BCD PUSH1 0xE5 SHL DUP2 MSTORE PUSH1 0x20 PUSH1 0x4 DUP3 ADD MSTORE PUSH1 0x1E PUSH1 0x24 DUP3 ADD MSTORE PUSH32 0x496E76616C696420746F6B656E20616464726573732070726F76696465640000 PUSH1 0x44 DUP3 ADD MSTORE PUSH1 0x64 SWAP1 REVERT JUMPDEST POP PUSH1 0x1 PUSH1 0x1 PUSH1 0xA0 SHL SUB DUP8 AND ISZERO ISZERO PUSH2 0x262 JUMP JUMPDEST DUP13 DUP1 REVERT JUMPDEST DUP4 CALLDATALOAD PUSH1 0x1 PUSH1 0x1 PUSH1 0x40 SHL SUB DUP2 GT PUSH2 0xAB2 JUMPI PUSH1 0x20 SWAP2 PUSH2 0xAA7 DUP12 DUP5 DUP1 SWAP5 DUP8 DUP10 DUP5 ADD SWAP4 ADD ADD ADD PUSH2 0x10FB JUMP JUMPDEST DUP2 MSTORE ADD SWAP4 ADD SWAP3 PUSH2 0x228 JUMP JUMPDEST POP DUP16 DUP1 REVERT JUMPDEST DUP15 DUP1 REVERT JUMPDEST DUP9 DUP1 REVERT JUMPDEST PUSH1 0x40 MLOAD PUSH3 0x461BCD PUSH1 0xE5 SHL DUP2 MSTORE PUSH1 0x20 PUSH1 0x4 DUP3 ADD MSTORE PUSH1 0x33 PUSH1 0x24 DUP3 ADD MSTORE PUSH32 0x5468697320636F6E7472616374206F6E6C792068616E646C65732073696E676C PUSH1 0x44 DUP3 ADD MSTORE PUSH19 0x652D746F6B656E20666C617368206C6F616E73 PUSH1 0x68 SHL PUSH1 0x64 DUP3 ADD MSTORE PUSH1 0x84 SWAP1 REVERT JUMPDEST PUSH1 0x40 MLOAD PUSH3 0x461BCD PUSH1 0xE5 SHL DUP2 MSTORE PUSH1 0x20 PUSH1 0x4 DUP3 ADD MSTORE PUSH1 0x2A PUSH1 0x24 DUP3 ADD MSTORE PUSH32 0x4F6E6C792042616C616E636572205661756C742063616E2063616C6C20746869 PUSH1 0x44 DUP3 ADD MSTORE PUSH10 0x3990333AB731BA34B7B7 PUSH1 0xB1 SHL PUSH1 0x64 DUP3 ADD MSTORE PUSH1 0x84 SWAP1 REVERT JUMPDEST PUSH1 0x40 MLOAD PUSH4 0x3EE5AEB5 PUSH1 0xE0 SHL DUP2 MSTORE PUSH1 0x4 SWAP1 REVERT JUMPDEST DUP8 DUP1 REVERT JUMPDEST DUP6 DUP1 REVERT JUMPDEST DUP4 DUP1 REVERT JUMPDEST POP DUP1 REVERT JUMPDEST POP CALLVALUE PUSH2 0xA3 JUMPI DUP1 PUSH1 0x3 NOT CALLDATASIZE ADD SLT PUSH2 0xA3 JUMPI PUSH1 0x40 MLOAD PUSH32 0x0 PUSH1 0x1 PUSH1 0x1 PUSH1 0xA0 SHL SUB AND DUP2 MSTORE PUSH1 0x20 SWAP1 RETURN JUMPDEST POP CALLVALUE PUSH2 0xA3 JUMPI DUP1 PUSH1 0x3 NOT CALLDATASIZE ADD SLT PUSH2 0xA3 JUMPI PUSH1 0x40 MLOAD PUSH32 0x0 PUSH1 0x1 PUSH1 0x1 PUSH1 0xA0 SHL SUB AND DUP2 MSTORE PUSH1 0x20 SWAP1 RETURN JUMPDEST POP CALLVALUE PUSH2 0xA3 JUMPI PUSH1 0x3 NOT PUSH1 0x60 CALLDATASIZE DUP3 ADD SLT PUSH2 0xB96 JUMPI PUSH2 0xC3F PUSH2 0xF31 JUMP JUMPDEST SWAP1 PUSH1 0x1 PUSH1 0x1 PUSH1 0x40 SHL SUB SWAP1 PUSH1 0x44 CALLDATALOAD DUP3 DUP2 GT PUSH2 0xDEF JUMPI PUSH2 0xC61 SWAP1 CALLDATASIZE SWAP1 PUSH1 0x4 ADD PUSH2 0xF5B JUMP JUMPDEST SWAP1 SWAP4 SWAP1 PUSH1 0x1 PUSH1 0x1 PUSH1 0xA0 SHL SUB SWAP1 PUSH2 0xC9A CALLER PUSH32 0x0 DUP5 AND EQ PUSH2 0xFB8 JUMP JUMPDEST PUSH1 0x40 MLOAD SWAP6 PUSH2 0xCA7 DUP8 PUSH2 0x100E JUMP JUMPDEST PUSH1 0x1 SWAP5 DUP6 DUP9 MSTORE PUSH1 0x20 SWAP5 DUP6 CALLDATASIZE DUP2 DUP12 ADD CALLDATACOPY DUP5 PUSH2 0xCC0 DUP11 PUSH2 0x1077 JUMP JUMPDEST SWAP2 AND SWAP1 MSTORE PUSH1 0x40 MLOAD SWAP6 PUSH2 0xCD1 DUP8 PUSH2 0x100E JUMP JUMPDEST DUP1 DUP8 MSTORE DUP6 DUP8 ADD SWAP5 DUP7 CALLDATASIZE DUP8 CALLDATACOPY PUSH1 0x24 CALLDATALOAD PUSH2 0xCE8 DUP10 PUSH2 0x1077 JUMP JUMPDEST MSTORE PUSH32 0x0 AND SWAP7 DUP8 EXTCODESIZE ISZERO PUSH2 0xDEB JUMPI SWAP2 DUP7 SWAP5 SWAP3 DUP12 SWAP9 SWAP7 SWAP5 SWAP3 PUSH2 0xD48 SWAP12 SWAP9 PUSH1 0x40 MLOAD SWAP13 DUP14 SWAP11 PUSH4 0x2E1C224F PUSH1 0xE1 SHL DUP13 MSTORE ADDRESS PUSH1 0x4 DUP14 ADD MSTORE PUSH1 0x80 PUSH1 0x24 DUP14 ADD MSTORE PUSH1 0x84 DUP13 ADD SWAP1 PUSH2 0x10BE JUMP JUMPDEST SWAP3 DUP5 DUP12 DUP6 SUB ADD PUSH1 0x44 DUP13 ADD MSTORE MLOAD SWAP3 DUP4 DUP2 MSTORE ADD SWAP6 SWAP2 DUP11 JUMPDEST DUP2 DUP2 LT PUSH2 0xDD2 JUMPI POP POP POP POP SWAP3 DUP3 DUP8 SWAP6 SWAP4 DUP7 SWAP4 DUP11 SWAP7 DUP6 DUP6 SUB ADD PUSH1 0x64 DUP7 ADD MSTORE DUP2 DUP5 MSTORE DUP6 DUP5 ADD CALLDATACOPY DUP2 DUP2 ADD DUP5 ADD DUP6 SWAP1 MSTORE PUSH1 0x1F ADD PUSH1 0x1F NOT AND ADD SUB ADD SWAP3 GAS CALL DUP1 ISZERO PUSH2 0xDC7 JUMPI PUSH2 0xDA4 JUMPI DUP3 DUP1 RETURN JUMPDEST DUP2 GT PUSH2 0xDB3 JUMPI PUSH1 0x40 MSTORE CODESIZE DUP1 DUP3 DUP1 RETURN JUMPDEST PUSH4 0x4E487B71 PUSH1 0xE0 SHL DUP3 MSTORE PUSH1 0x41 PUSH1 0x4 MSTORE PUSH1 0x24 DUP3 REVERT JUMPDEST PUSH1 0x40 MLOAD RETURNDATASIZE DUP6 DUP3 RETURNDATACOPY RETURNDATASIZE SWAP1 REVERT JUMPDEST DUP4 MLOAD DUP9 MSTORE DUP15 SWAP12 POP DUP14 SWAP11 POP SWAP7 DUP9 ADD SWAP7 SWAP3 DUP9 ADD SWAP3 DUP3 ADD PUSH2 0xD5D JUMP JUMPDEST DUP11 DUP1 REVERT JUMPDEST DUP5 DUP1 REVERT JUMPDEST POP CALLVALUE PUSH2 0xA3 JUMPI PUSH1 0x20 DUP1 PUSH1 0x3 NOT CALLDATASIZE ADD SLT PUSH2 0xB96 JUMPI PUSH2 0xE0E PUSH2 0xF31 JUMP JUMPDEST PUSH32 0x0 SWAP1 PUSH1 0x1 PUSH1 0x1 PUSH1 0xA0 SHL SUB SWAP1 PUSH2 0xE46 CALLER DUP4 DUP6 AND EQ PUSH2 0xFB8 JUMP JUMPDEST AND SWAP2 PUSH1 0x40 MLOAD PUSH4 0x70A08231 PUSH1 0xE0 SHL DUP2 MSTORE ADDRESS PUSH1 0x4 DUP3 ADD MSTORE DUP2 DUP2 PUSH1 0x24 DUP2 DUP8 GAS STATICCALL SWAP1 DUP2 ISZERO PUSH2 0x723 JUMPI DUP6 SWAP2 PUSH2 0xF04 JUMPI JUMPDEST POP DUP1 PUSH2 0xE7B JUMPI DUP5 DUP1 RETURN JUMPDEST PUSH1 0x40 MLOAD PUSH4 0xA9059CBB PUSH1 0xE0 SHL DUP2 MSTORE PUSH1 0x1 PUSH1 0x1 PUSH1 0xA0 SHL SUB SWAP4 SWAP1 SWAP4 AND PUSH1 0x4 DUP5 ADD MSTORE PUSH1 0x24 DUP4 ADD DUP2 SWAP1 MSTORE DUP2 DUP4 PUSH1 0x44 DUP2 DUP9 DUP9 GAS CALL SWAP3 DUP4 ISZERO PUSH2 0x723 JUMPI PUSH32 0xD65D7B028C704B54BCBE20B09B06F59223A87A757489CBA0AB12AFBB79647239 SWAP4 PUSH2 0xEE7 JUMPI JUMPDEST POP PUSH1 0x40 MLOAD SWAP1 DUP2 MSTORE LOG2 CODESIZE DUP1 DUP1 DUP1 DUP5 DUP1 RETURN JUMPDEST PUSH2 0xEFD SWAP1 DUP4 RETURNDATASIZE DUP6 GT PUSH2 0x71C JUMPI PUSH2 0x70D DUP2 DUP4 PUSH2 0x103F JUMP JUMPDEST POP CODESIZE PUSH2 0xED7 JUMP JUMPDEST SWAP1 POP DUP2 DUP2 DUP2 RETURNDATASIZE DUP4 GT PUSH2 0xF2A JUMPI JUMPDEST PUSH2 0xF1B DUP2 DUP4 PUSH2 0x103F JUMP JUMPDEST DUP2 ADD SUB SLT PUSH2 0xDEF JUMPI MLOAD CODESIZE PUSH2 0xE71 JUMP JUMPDEST POP RETURNDATASIZE PUSH2 0xF11 JUMP JUMPDEST PUSH1 0x4 CALLDATALOAD SWAP1 PUSH1 0x1 PUSH1 0x1 PUSH1 0xA0 SHL SUB DUP3 AND DUP3 SUB PUSH2 0x918 JUMPI JUMP JUMPDEST CALLDATALOAD SWAP1 PUSH1 0x1 PUSH1 0x1 PUSH1 0xA0 SHL SUB DUP3 AND DUP3 SUB PUSH2 0x918 JUMPI JUMP JUMPDEST SWAP2 DUP2 PUSH1 0x1F DUP5 ADD SLT ISZERO PUSH2 0x918 JUMPI DUP3 CALLDATALOAD SWAP2 PUSH1 0x1 PUSH1 0x1 PUSH1 0x40 SHL SUB DUP4 GT PUSH2 0x918 JUMPI PUSH1 0x20 DUP4 DUP2 DUP7 ADD SWAP6 ADD ADD GT PUSH2 0x918 JUMPI JUMP JUMPDEST SWAP2 DUP2 PUSH1 0x1F DUP5 ADD SLT ISZERO PUSH2 0x918 JUMPI DUP3 CALLDATALOAD SWAP2 PUSH1 0x1 PUSH1 0x1 PUSH1 0x40 SHL SUB DUP4 GT PUSH2 0x918 JUMPI PUSH1 0x20 DUP1 DUP6 ADD SWAP5 DUP5 PUSH1 0x5 SHL ADD ADD GT PUSH2 0x918 JUMPI JUMP JUMPDEST ISZERO PUSH2 0xFBF JUMPI JUMP JUMPDEST PUSH1 0x40 MLOAD PUSH3 0x461BCD PUSH1 0xE5 SHL DUP2 MSTORE PUSH1 0x20 PUSH1 0x4 DUP3 ADD MSTORE PUSH1 0x21 PUSH1 0x24 DUP3 ADD MSTORE PUSH32 0x4F6E6C79206F776E65722063616E2063616C6C20746869732066756E6374696F PUSH1 0x44 DUP3 ADD MSTORE PUSH1 0x37 PUSH1 0xF9 SHL PUSH1 0x64 DUP3 ADD MSTORE PUSH1 0x84 SWAP1 REVERT JUMPDEST PUSH1 0x40 DUP2 ADD SWAP1 DUP2 LT PUSH1 0x1 PUSH1 0x1 PUSH1 0x40 SHL SUB DUP3 GT OR PUSH2 0x1029 JUMPI PUSH1 0x40 MSTORE JUMP JUMPDEST PUSH4 0x4E487B71 PUSH1 0xE0 SHL PUSH1 0x0 MSTORE PUSH1 0x41 PUSH1 0x4 MSTORE PUSH1 0x24 PUSH1 0x0 REVERT JUMPDEST SWAP1 PUSH1 0x1F DUP1 NOT SWAP2 ADD AND DUP2 ADD SWAP1 DUP2 LT PUSH1 0x1 PUSH1 0x1 PUSH1 0x40 SHL SUB DUP3 GT OR PUSH2 0x1029 JUMPI PUSH1 0x40 MSTORE JUMP JUMPDEST PUSH1 0x1 PUSH1 0x1 PUSH1 0x40 SHL SUB DUP2 GT PUSH2 0x1029 JUMPI PUSH1 0x5 SHL PUSH1 0x20 ADD SWAP1 JUMP JUMPDEST DUP1 MLOAD ISZERO PUSH2 0x1084 JUMPI PUSH1 0x20 ADD SWAP1 JUMP JUMPDEST PUSH4 0x4E487B71 PUSH1 0xE0 SHL PUSH1 0x0 MSTORE PUSH1 0x32 PUSH1 0x4 MSTORE PUSH1 0x24 PUSH1 0x0 REVERT JUMPDEST DUP1 MLOAD PUSH1 0x1 LT ISZERO PUSH2 0x1084 JUMPI PUSH1 0x40 ADD SWAP1 JUMP JUMPDEST DUP1 MLOAD DUP3 LT ISZERO PUSH2 0x1084 JUMPI PUSH1 0x20 SWAP2 PUSH1 0x5 SHL ADD ADD SWAP1 JUMP JUMPDEST SWAP1 DUP2 MLOAD DUP1 DUP3 MSTORE PUSH1 0x20 DUP1 DUP1 SWAP4 ADD SWAP4 ADD SWAP2 PUSH1 0x0 JUMPDEST DUP3 DUP2 LT PUSH2 0x10DE JUMPI POP POP POP POP SWAP1 JUMP JUMPDEST DUP4 MLOAD PUSH1 0x1 PUSH1 0x1 PUSH1 0xA0 SHL SUB AND DUP6 MSTORE SWAP4 DUP2 ADD SWAP4 SWAP3 DUP2 ADD SWAP3 PUSH1 0x1 ADD PUSH2 0x10D0 JUMP JUMPDEST DUP2 PUSH1 0x1F DUP3 ADD SLT ISZERO PUSH2 0x918 JUMPI DUP1 CALLDATALOAD SWAP2 PUSH2 0x1112 DUP4 PUSH2 0x1060 JUMP JUMPDEST SWAP3 PUSH2 0x1120 PUSH1 0x40 MLOAD SWAP5 DUP6 PUSH2 0x103F JUMP JUMPDEST DUP1 DUP5 MSTORE PUSH1 0x20 SWAP3 DUP4 DUP1 DUP7 ADD SWAP3 PUSH1 0x5 SHL DUP3 ADD ADD SWAP3 DUP4 GT PUSH2 0x918 JUMPI DUP4 ADD SWAP1 JUMPDEST DUP3 DUP3 LT PUSH2 0x114A JUMPI POP POP POP POP SWAP1 JUMP JUMPDEST DUP4 DUP1 SWAP2 PUSH2 0x1156 DUP5 PUSH2 0xF47 JUMP JUMPDEST DUP2 MSTORE ADD SWAP2 ADD SWAP1 PUSH2 0x113C JUMP JUMPDEST SWAP2 SWAP1 DUP3 ADD DUP1 SWAP3 GT PUSH2 0x116E JUMPI JUMP JUMPDEST PUSH4 0x4E487B71 PUSH1 0xE0 SHL PUSH1 0x0 MSTORE PUSH1 0x11 PUSH1 0x4 MSTORE PUSH1 0x24 PUSH1 0x0 REVERT JUMPDEST PUSH1 0x20 SWAP1 DUP2 DUP2 DUP5 SUB SLT PUSH2 0x918 JUMPI DUP1 MLOAD SWAP1 PUSH1 0x1 PUSH1 0x1 PUSH1 0x40 SHL SUB DUP3 GT PUSH2 0x918 JUMPI ADD SWAP2 DUP1 PUSH1 0x1F DUP5 ADD SLT ISZERO PUSH2 0x918 JUMPI DUP3 MLOAD PUSH2 0x11B9 DUP2 PUSH2 0x1060 JUMP JUMPDEST SWAP4 PUSH2 0x11C7 PUSH1 0x40 MLOAD SWAP6 DUP7 PUSH2 0x103F JUMP JUMPDEST DUP2 DUP6 MSTORE DUP4 DUP1 DUP7 ADD SWAP3 PUSH1 0x5 SHL DUP3 ADD ADD SWAP3 DUP4 GT PUSH2 0x918 JUMPI DUP4 ADD SWAP1 JUMPDEST DUP3 DUP3 LT PUSH2 0x11EE JUMPI POP POP POP POP SWAP1 JUMP JUMPDEST DUP2 MLOAD DUP2 MSTORE SWAP1 DUP4 ADD SWAP1 DUP4 ADD PUSH2 0x11E0 JUMP JUMPDEST SWAP2 SWAP1 DUP3 SUB SWAP2 DUP3 GT PUSH2 0x116E JUMPI JUMP JUMPDEST SWAP1 DUP2 PUSH1 0x20 SWAP2 SUB SLT PUSH2 0x918 JUMPI MLOAD DUP1 ISZERO ISZERO DUP2 SUB PUSH2 0x918 JUMPI SWAP1 JUMP JUMPDEST SWAP2 SWAP3 PUSH1 0x80 SWAP4 PUSH2 0x1247 SWAP3 SWAP8 SWAP7 SWAP6 SWAP8 DUP5 MSTORE PUSH1 0x20 DUP5 ADD MSTORE PUSH1 0xA0 PUSH1 0x40 DUP5 ADD MSTORE PUSH1 0xA0 DUP4 ADD SWAP1 PUSH2 0x10BE JUMP JUMPDEST PUSH1 0x1 PUSH1 0x1 PUSH1 0xA0 SHL SUB SWAP1 SWAP6 AND PUSH1 0x60 DUP3 ADD MSTORE ADD MSTORE JUMP INVALID LOG2 PUSH5 0x6970667358 0x22 SLT KECCAK256 0xC0 0x23 DUP6 PUSH31 0xE9D7D45C32FE524D5D3392A76DDE1E1F033F0C4CDC71BEC8F8624AFE64736F PUSH13 0x63430008140033000000000000 "},"methodIdentifiers":{"owner()":"8da5cb5b","receiveFlashLoan(address[],uint256[],uint256[],bytes)":"f04f2707","startFlashloan(address,uint256,bytes)":"8298a90d","twapOracle()":"9043292a","vault()":"fbfa77cf","withdraw(address)":"51cff8d9"}}}}}