{"contracts/contracts/MockRouter.sol":{"MockRouter":{"abi":[{"inputs":[],"name":"WETH","outputs":[{"internalType":"address","name":"","type":"address"}],"stateMutability":"pure","type":"function"},{"inputs":[{"internalType":"address","name":"","type":"address"},{"internalType":"address","name":"","type":"address"},{"internalType":"uint256","name":"","type":"uint256"},{"internalType":"uint256","name":"","type":"uint256"},{"internalType":"uint256","name":"","type":"uint256"},{"internalType":"uint256","name":"","type":"uint256"},{"internalType":"address","name":"","type":"address"},{"internalType":"uint256","name":"","type":"uint256"}],"name":"addLiquidity","outputs":[{"internalType":"uint256","name":"","type":"uint256"},{"internalType":"uint256","name":"","type":"uint256"},{"internalType":"uint256","name":"","type":"uint256"}],"stateMutability":"pure","type":"function"},{"inputs":[{"internalType":"address","name":"","type":"address"},{"internalType":"uint256","name":"","type":"uint256"},{"internalType":"uint256","name":"","type":"uint256"},{"internalType":"uint256","name":"","type":"uint256"},{"internalType":"address","name":"","type":"address"},{"internalType":"uint256","name":"","type":"uint256"}],"name":"addLiquidityETH","outputs":[{"internalType":"uint256","name":"","type":"uint256"},{"internalType":"uint256","name":"","type":"uint256"},{"internalType":"uint256","name":"","type":"uint256"}],"stateMutability":"payable","type":"function"},{"inputs":[],"name":"factory","outputs":[{"internalType":"address","name":"","type":"address"}],"stateMutability":"pure","type":"function"},{"inputs":[{"internalType":"uint256","name":"","type":"uint256"},{"internalType":"uint256","name":"","type":"uint256"},{"internalType":"uint256","name":"","type":"uint256"}],"name":"getAmountIn","outputs":[{"internalType":"uint256","name":"","type":"uint256"}],"stateMutability":"pure","type":"function"},{"inputs":[{"internalType":"uint256","name":"","type":"uint256"},{"internalType":"uint256","name":"","type":"uint256"},{"internalType":"uint256","name":"","type":"uint256"}],"name":"getAmountOut","outputs":[{"internalType":"uint256","name":"","type":"uint256"}],"stateMutability":"pure","type":"function"},{"inputs":[{"internalType":"uint256","name":"","type":"uint256"},{"internalType":"address[]","name":"","type":"address[]"}],"name":"getAmountsIn","outputs":[{"internalType":"uint256[]","name":"","type":"uint256[]"}],"stateMutability":"pure","type":"function"},{"inputs":[{"internalType":"uint256","name":"amountIn","type":"uint256"},{"internalType":"address[]","name":"path","type":"address[]"}],"name":"getAmountsOut","outputs":[{"internalType":"uint256[]","name":"amounts","type":"uint256[]"}],"stateMutability":"view","type":"function"},{"inputs":[{"internalType":"uint256","name":"","type":"uint256"},{"internalType":"uint256","name":"","type":"uint256"},{"internalType":"uint256","name":"","type":"uint256"}],"name":"quote","outputs":[{"internalType":"uint256","name":"","type":"uint256"}],"stateMutability":"pure","type":"function"},{"inputs":[{"internalType":"address","name":"","type":"address"},{"internalType":"address","name":"","type":"address"},{"internalType":"uint256","name":"","type":"uint256"},{"internalType":"uint256","name":"","type":"uint256"},{"internalType":"uint256","name":"","type":"uint256"},{"internalType":"address","name":"","type":"address"},{"internalType":"uint256","name":"","type":"uint256"}],"name":"removeLiquidity","outputs":[{"internalType":"uint256","name":"","type":"uint256"},{"internalType":"uint256","name":"","type":"uint256"}],"stateMutability":"pure","type":"function"},{"inputs":[{"internalType":"address","name":"","type":"address"},{"internalType":"uint256","name":"","type":"uint256"},{"internalType":"uint256","name":"","type":"uint256"},{"internalType":"uint256","name":"","type":"uint256"},{"internalType":"address","name":"","type":"address"},{"internalType":"uint256","name":"","type":"uint256"}],"name":"removeLiquidityETH","outputs":[{"internalType":"uint256","name":"","type":"uint256"},{"internalType":"uint256","name":"","type":"uint256"}],"stateMutability":"pure","type":"function"},{"inputs":[{"internalType":"address","name":"","type":"address"},{"internalType":"uint256","name":"","type":"uint256"},{"internalType":"uint256","name":"","type":"uint256"},{"internalType":"uint256","name":"","type":"uint256"},{"internalType":"address","name":"","type":"address"},{"internalType":"uint256","name":"","type":"uint256"}],"name":"removeLiquidityETHSupportingFeeOnTransferTokens","outputs":[{"internalType":"uint256","name":"","type":"uint256"}],"stateMutability":"pure","type":"function"},{"inputs":[{"internalType":"address","name":"","type":"address"},{"internalType":"uint256","name":"","type":"uint256"},{"internalType":"uint256","name":"","type":"uint256"},{"internalType":"uint256","name":"","type":"uint256"},{"internalType":"address","name":"","type":"address"},{"internalType":"uint256","name":"","type":"uint256"},{"internalType":"bool","name":"","type":"bool"},{"internalType":"uint8","name":"","type":"uint8"},{"internalType":"bytes32","name":"","type":"bytes32"},{"internalType":"bytes32","name":"","type":"bytes32"}],"name":"removeLiquidityETHWithPermit","outputs":[{"internalType":"uint256","name":"","type":"uint256"},{"internalType":"uint256","name":"","type":"uint256"}],"stateMutability":"pure","type":"function"},{"inputs":[{"internalType":"address","name":"","type":"address"},{"internalType":"uint256","name":"","type":"uint256"},{"internalType":"uint256","name":"","type":"uint256"},{"internalType":"uint256","name":"","type":"uint256"},{"internalType":"address","name":"","type":"address"},{"internalType":"uint256","name":"","type":"uint256"},{"internalType":"bool","name":"","type":"bool"},{"internalType":"uint8","name":"","type":"uint8"},{"internalType":"bytes32","name":"","type":"bytes32"},{"internalType":"bytes32","name":"","type":"bytes32"}],"name":"removeLiquidityETHWithPermitSupportingFeeOnTransferTokens","outputs":[{"internalType":"uint256","name":"","type":"uint256"}],"stateMutability":"pure","type":"function"},{"inputs":[{"internalType":"address","name":"","type":"address"},{"internalType":"address","name":"","type":"address"},{"internalType":"uint256","name":"","type":"uint256"},{"internalType":"uint256","name":"","type":"uint256"},{"internalType":"uint256","name":"","type":"uint256"},{"internalType":"address","name":"","type":"address"},{"internalType":"uint256","name":"","type":"uint256"},{"internalType":"bool","name":"","type":"bool"},{"internalType":"uint8","name":"","type":"uint8"},{"internalType":"bytes32","name":"","type":"bytes32"},{"internalType":"bytes32","name":"","type":"bytes32"}],"name":"removeLiquidityWithPermit","outputs":[{"internalType":"uint256","name":"","type":"uint256"},{"internalType":"uint256","name":"","type":"uint256"}],"stateMutability":"pure","type":"function"},{"inputs":[{"internalType":"address[]","name":"path","type":"address[]"},{"internalType":"uint256","name":"amountIn","type":"uint256"},{"internalType":"uint256","name":"amountOut","type":"uint256"}],"name":"setAmountOut","outputs":[],"stateMutability":"nonpayable","type":"function"},{"inputs":[{"internalType":"uint256","name":"","type":"uint256"},{"internalType":"address[]","name":"","type":"address[]"},{"internalType":"address","name":"","type":"address"},{"internalType":"uint256","name":"","type":"uint256"}],"name":"swapETHForExactTokens","outputs":[{"internalType":"uint256[]","name":"","type":"uint256[]"}],"stateMutability":"payable","type":"function"},{"inputs":[{"internalType":"uint256","name":"","type":"uint256"},{"internalType":"address[]","name":"","type":"address[]"},{"internalType":"address","name":"","type":"address"},{"internalType":"uint256","name":"","type":"uint256"}],"name":"swapExactETHForTokens","outputs":[{"internalType":"uint256[]","name":"","type":"uint256[]"}],"stateMutability":"payable","type":"function"},{"inputs":[{"internalType":"uint256","name":"","type":"uint256"},{"internalType":"address[]","name":"","type":"address[]"},{"internalType":"address","name":"","type":"address"},{"internalType":"uint256","name":"","type":"uint256"}],"name":"swapExactETHForTokensSupportingFeeOnTransferTokens","outputs":[],"stateMutability":"payable","type":"function"},{"inputs":[{"internalType":"uint256","name":"","type":"uint256"},{"internalType":"uint256","name":"","type":"uint256"},{"internalType":"address[]","name":"","type":"address[]"},{"internalType":"address","name":"","type":"address"},{"internalType":"uint256","name":"","type":"uint256"}],"name":"swapExactTokensForETH","outputs":[{"internalType":"uint256[]","name":"","type":"uint256[]"}],"stateMutability":"pure","type":"function"},{"inputs":[{"internalType":"uint256","name":"","type":"uint256"},{"internalType":"uint256","name":"","type":"uint256"},{"internalType":"address[]","name":"","type":"address[]"},{"internalType":"address","name":"","type":"address"},{"internalType":"uint256","name":"","type":"uint256"}],"name":"swapExactTokensForETHSupportingFeeOnTransferTokens","outputs":[],"stateMutability":"pure","type":"function"},{"inputs":[{"internalType":"uint256","name":"amountIn","type":"uint256"},{"internalType":"uint256","name":"amountOutMin","type":"uint256"},{"internalType":"address[]","name":"path","type":"address[]"},{"internalType":"address","name":"to","type":"address"},{"internalType":"uint256","name":"deadline","type":"uint256"}],"name":"swapExactTokensForTokens","outputs":[{"internalType":"uint256[]","name":"amounts","type":"uint256[]"}],"stateMutability":"nonpayable","type":"function"},{"inputs":[{"internalType":"uint256","name":"","type":"uint256"},{"internalType":"uint256","name":"","type":"uint256"},{"internalType":"address[]","name":"","type":"address[]"},{"internalType":"address","name":"","type":"address"},{"internalType":"uint256","name":"","type":"uint256"}],"name":"swapExactTokensForTokensSupportingFeeOnTransferTokens","outputs":[],"stateMutability":"pure","type":"function"},{"inputs":[{"internalType":"uint256","name":"","type":"uint256"},{"internalType":"uint256","name":"","type":"uint256"},{"internalType":"address[]","name":"","type":"address[]"},{"internalType":"address","name":"","type":"address"},{"internalType":"uint256","name":"","type":"uint256"}],"name":"swapTokensForExactETH","outputs":[{"internalType":"uint256[]","name":"","type":"uint256[]"}],"stateMutability":"pure","type":"function"},{"inputs":[{"internalType":"uint256","name":"","type":"uint256"},{"internalType":"uint256","name":"","type":"uint256"},{"internalType":"address[]","name":"","type":"address[]"},{"internalType":"address","name":"","type":"address"},{"internalType":"uint256","name":"","type":"uint256"}],"name":"swapTokensForExactTokens","outputs":[{"internalType":"uint256[]","name":"","type":"uint256[]"}],"stateMutability":"pure","type":"function"}],"evm":{"bytecode":{"linkReferences":{},"object":"608080604052346100165761099c908161001c8239f35b600080fdfe6040608081526004908136101561001557600080fd5b600090813560e01c92836302751cec14610598578363054d50d41461027257836318cbafe5146102ed5783631f00ca74146105815783632195995c1461053857836338ed17391461030b5783634a25d94a146102ed5783635b0d5984146102fc5783635c11d795146102ed57836372fd499d1461028657508263791ac947146102775782637ff36ab51461013857826385f8c259146102725782638803dbee14610277578263ad5c46481461022c578263ad615dec14610272578263af2979eb14610263578263b6f9de9514610138578263baa2abde14610231578263c45a01551461022c578263d06ca61f146101b657508163ded9382a14610199578163e8e337001461015f57508063f305d7191461014b5763fb3bdb411461013857600080fd5b6101413661079a565b505050505061092f565b610154366105ee565b50505050505061092f565b3461019657610100366003190112610196576101796105a7565b506101826105c2565b5060c4356001600160a01b0381161461092f575b80fd5b34610196576101a736610734565b5050505050505050505061092f565b34610228579081610224926101ca36610700565b94916102056101d887610852565b96826101e389610884565b526101f786519384926020840196876108b7565b03601f198101835282610802565b5190208152806020522054610219836108a7565b5251918291826106c5565b0390f35b5080fd5b6107e6565b50346101965760e03660031901126101965761024b6105a7565b506102546105c2565b5061025d6105d8565b5061092f565b503461019657610154366105ee565b61062e565b50346101965761015436610676565b346102e95760603660031901126102e95780359067ffffffffffffffff82116102e5576102bc6101f7916102d293369101610645565b92908451928391602083019560243591876108b7565b5190208252816020526044359082205580f35b8380fd5b8280fd5b82346101965761015436610676565b8234610196576101a736610734565b90346102e95761031a36610676565b96939492909161032981610852565b97846103348a610884565b528751966020978881019061034f816101f78a888a876108b7565b5190208b528a8852888b20546103648b6108a7565b5261036e8a6108a7565b51106104e65742116104ad57801561049a576001600160a01b03938990879060648761039987610903565b16918b5194859384926323b872dd60e01b8452338d85015230602485015260448401525af1801561049057610473575b50600110156104605782918886946103e48660449501610903565b166103ee8a6108a7565b518951978896879563a9059cbb60e01b8752169085015260248401525af18015610456576102249550610428575b505051918291826106c5565b8161044792903d1061044f575b61043f8183610802565b810190610917565b50838061041c565b503d610435565b83513d87823e3d90fd5b634e487b7160e01b885260328452602488fd5b61048990873d891161044f5761043f8183610802565b50896103c9565b88513d8c823e3d90fd5b634e487b7160e01b895260328552602489fd5b865162461bcd60e51b81528086018790526013602482015272135bd8dad49bdd5d195c8e8811561412549151606a1b6044820152606490fd5b875162461bcd60e51b8152808701889052602660248201527f4d6f636b526f757465723a20494e53554646494349454e545f4f55545055545f604482015265105353d5539560d21b6064820152608490fd5b823461019657610160366003190112610196576105536105a7565b5061055c6105c2565b506105656105d8565b5060e43580151503610196576101043560ff81161461092f5780fd5b82346101965761059036610700565b50505061092f565b823461019657610154366105ee565b600435906001600160a01b03821682036105bd57565b600080fd5b602435906001600160a01b03821682036105bd57565b60a435906001600160a01b03821682036105bd57565b60c09060031901126105bd576001600160a01b0360043581811681036105bd579160243591604435916064359160843590811681036105bd579060a43590565b346105bd5760603660031901121561092f57600080fd5b9181601f840112156105bd5782359167ffffffffffffffff83116105bd576020808501948460051b0101116105bd57565b60a06003198201126105bd5760043591602435916044359067ffffffffffffffff82116105bd576106a991600401610645565b90916064356001600160a01b03811681036105bd579060843590565b6020908160408183019282815285518094520193019160005b8281106106ec575050505090565b8351855293810193928101926001016106de565b9060406003198301126105bd57600435916024359067ffffffffffffffff82116105bd5761073091600401610645565b9091565b6101409060031901126105bd576001600160a01b0360043581811681036105bd579160243591604435916064359160843590811681036105bd579060a4359060c43580151581036105bd579060e43560ff811681036105bd579061010435906101243590565b9060806003198301126105bd57600435916024359067ffffffffffffffff82116105bd576107ca91600401610645565b90916044356001600160a01b03811681036105bd579060643590565b346105bd5760003660031901126105bd57602060405160008152f35b90601f8019910116810190811067ffffffffffffffff82111761082457604052565b634e487b7160e01b600052604160045260246000fd5b67ffffffffffffffff81116108245760051b60200190565b9061085c8261083a565b6108696040519182610802565b828152809261087a601f199161083a565b0190602036910137565b8051156108915760200190565b634e487b7160e01b600052603260045260246000fd5b8051600110156108915760400190565b939290919391600094855b8181106108d55750505081526020019150565b90919384359060018060a01b0382168092036108ff579081526020908101940191906001016108c2565b8780fd5b356001600160a01b03811681036105bd5790565b908160209103126105bd575180151581036105bd5790565b60405162461bcd60e51b815260206004820152600f60248201526e139bdd081a5b5c1b195b595b9d1959608a1b6044820152606490fdfea26469706673582212209ece218c74997f690ef5139d630a6ffccbd8fcd2263ec3df53d3bbca193e1ee864736f6c63430008140033","opcodes":"PUSH1 0x80 DUP1 PUSH1 0x40 MSTORE CALLVALUE PUSH2 0x16 JUMPI PUSH2 0x99C SWAP1 DUP2 PUSH2 0x1C DUP3 CODECOPY RETURN JUMPDEST PUSH1 0x0 DUP1 REVERT INVALID PUSH1 0x40 PUSH1 0x80 DUP2 MSTORE PUSH1 0x4 SWAP1 DUP2 CALLDATASIZE LT ISZERO PUSH2 0x15 JUMPI PUSH1 0x0 DUP1 REVERT JUMPDEST PUSH1 0x0 SWAP1 DUP2 CALLDATALOAD PUSH1 0xE0 SHR SWAP3 DUP4 PUSH4 0x2751CEC EQ PUSH2 0x598 JUMPI DUP4 PUSH4 0x54D50D4 EQ PUSH2 0x272 JUMPI DUP4 PUSH4 0x18CBAFE5 EQ PUSH2 0x2ED JUMPI DUP4 PUSH4 0x1F00CA74 EQ PUSH2 0x581 JUMPI DUP4 PUSH4 0x2195995C EQ PUSH2 0x538 JUMPI DUP4 PUSH4 0x38ED1739 EQ PUSH2 0x30B JUMPI DUP4 PUSH4 0x4A25D94A EQ PUSH2 0x2ED JUMPI DUP4 PUSH4 0x5B0D5984 EQ PUSH2 0x2FC JUMPI DUP4 PUSH4 0x5C11D795 EQ PUSH2 0x2ED JUMPI DUP4 PUSH4 0x72FD499D EQ PUSH2 0x286 JUMPI POP DUP3 PUSH4 0x791AC947 EQ PUSH2 0x277 JUMPI DUP3 PUSH4 0x7FF36AB5 EQ PUSH2 0x138 JUMPI DUP3 PUSH4 0x85F8C259 EQ PUSH2 0x272 JUMPI DUP3 PUSH4 0x8803DBEE EQ PUSH2 0x277 JUMPI DUP3 PUSH4 0xAD5C4648 EQ PUSH2 0x22C JUMPI DUP3 PUSH4 0xAD615DEC EQ PUSH2 0x272 JUMPI DUP3 PUSH4 0xAF2979EB EQ PUSH2 0x263 JUMPI DUP3 PUSH4 0xB6F9DE95 EQ PUSH2 0x138 JUMPI DUP3 PUSH4 0xBAA2ABDE EQ PUSH2 0x231 JUMPI DUP3 PUSH4 0xC45A0155 EQ PUSH2 0x22C JUMPI DUP3 PUSH4 0xD06CA61F EQ PUSH2 0x1B6 JUMPI POP DUP2 PUSH4 0xDED9382A EQ PUSH2 0x199 JUMPI DUP2 PUSH4 0xE8E33700 EQ PUSH2 0x15F JUMPI POP DUP1 PUSH4 0xF305D719 EQ PUSH2 0x14B JUMPI PUSH4 0xFB3BDB41 EQ PUSH2 0x138 JUMPI PUSH1 0x0 DUP1 REVERT JUMPDEST PUSH2 0x141 CALLDATASIZE PUSH2 0x79A JUMP JUMPDEST POP POP POP POP POP PUSH2 0x92F JUMP JUMPDEST PUSH2 0x154 CALLDATASIZE PUSH2 0x5EE JUMP JUMPDEST POP POP POP POP POP POP PUSH2 0x92F JUMP JUMPDEST CALLVALUE PUSH2 0x196 JUMPI PUSH2 0x100 CALLDATASIZE PUSH1 0x3 NOT ADD SLT PUSH2 0x196 JUMPI PUSH2 0x179 PUSH2 0x5A7 JUMP JUMPDEST POP PUSH2 0x182 PUSH2 0x5C2 JUMP JUMPDEST POP PUSH1 0xC4 CALLDATALOAD PUSH1 0x1 PUSH1 0x1 PUSH1 0xA0 SHL SUB DUP2 AND EQ PUSH2 0x92F JUMPI JUMPDEST DUP1 REVERT JUMPDEST CALLVALUE PUSH2 0x196 JUMPI PUSH2 0x1A7 CALLDATASIZE PUSH2 0x734 JUMP JUMPDEST POP POP POP POP POP POP POP POP POP POP PUSH2 0x92F JUMP JUMPDEST CALLVALUE PUSH2 0x228 JUMPI SWAP1 DUP2 PUSH2 0x224 SWAP3 PUSH2 0x1CA CALLDATASIZE PUSH2 0x700 JUMP JUMPDEST SWAP5 SWAP2 PUSH2 0x205 PUSH2 0x1D8 DUP8 PUSH2 0x852 JUMP JUMPDEST SWAP7 DUP3 PUSH2 0x1E3 DUP10 PUSH2 0x884 JUMP JUMPDEST MSTORE PUSH2 0x1F7 DUP7 MLOAD SWAP4 DUP5 SWAP3 PUSH1 0x20 DUP5 ADD SWAP7 DUP8 PUSH2 0x8B7 JUMP JUMPDEST SUB PUSH1 0x1F NOT DUP2 ADD DUP4 MSTORE DUP3 PUSH2 0x802 JUMP JUMPDEST MLOAD SWAP1 KECCAK256 DUP2 MSTORE DUP1 PUSH1 0x20 MSTORE KECCAK256 SLOAD PUSH2 0x219 DUP4 PUSH2 0x8A7 JUMP JUMPDEST MSTORE MLOAD SWAP2 DUP3 SWAP2 DUP3 PUSH2 0x6C5 JUMP JUMPDEST SUB SWAP1 RETURN JUMPDEST POP DUP1 REVERT JUMPDEST PUSH2 0x7E6 JUMP JUMPDEST POP CALLVALUE PUSH2 0x196 JUMPI PUSH1 0xE0 CALLDATASIZE PUSH1 0x3 NOT ADD SLT PUSH2 0x196 JUMPI PUSH2 0x24B PUSH2 0x5A7 JUMP JUMPDEST POP PUSH2 0x254 PUSH2 0x5C2 JUMP JUMPDEST POP PUSH2 0x25D PUSH2 0x5D8 JUMP JUMPDEST POP PUSH2 0x92F JUMP JUMPDEST POP CALLVALUE PUSH2 0x196 JUMPI PUSH2 0x154 CALLDATASIZE PUSH2 0x5EE JUMP JUMPDEST PUSH2 0x62E JUMP JUMPDEST POP CALLVALUE PUSH2 0x196 JUMPI PUSH2 0x154 CALLDATASIZE PUSH2 0x676 JUMP JUMPDEST CALLVALUE PUSH2 0x2E9 JUMPI PUSH1 0x60 CALLDATASIZE PUSH1 0x3 NOT ADD SLT PUSH2 0x2E9 JUMPI DUP1 CALLDATALOAD SWAP1 PUSH8 0xFFFFFFFFFFFFFFFF DUP3 GT PUSH2 0x2E5 JUMPI PUSH2 0x2BC PUSH2 0x1F7 SWAP2 PUSH2 0x2D2 SWAP4 CALLDATASIZE SWAP2 ADD PUSH2 0x645 JUMP JUMPDEST SWAP3 SWAP1 DUP5 MLOAD SWAP3 DUP4 SWAP2 PUSH1 0x20 DUP4 ADD SWAP6 PUSH1 0x24 CALLDATALOAD SWAP2 DUP8 PUSH2 0x8B7 JUMP JUMPDEST MLOAD SWAP1 KECCAK256 DUP3 MSTORE DUP2 PUSH1 0x20 MSTORE PUSH1 0x44 CALLDATALOAD SWAP1 DUP3 KECCAK256 SSTORE DUP1 RETURN JUMPDEST DUP4 DUP1 REVERT JUMPDEST DUP3 DUP1 REVERT JUMPDEST DUP3 CALLVALUE PUSH2 0x196 JUMPI PUSH2 0x154 CALLDATASIZE PUSH2 0x676 JUMP JUMPDEST DUP3 CALLVALUE PUSH2 0x196 JUMPI PUSH2 0x1A7 CALLDATASIZE PUSH2 0x734 JUMP JUMPDEST SWAP1 CALLVALUE PUSH2 0x2E9 JUMPI PUSH2 0x31A CALLDATASIZE PUSH2 0x676 JUMP JUMPDEST SWAP7 SWAP4 SWAP5 SWAP3 SWAP1 SWAP2 PUSH2 0x329 DUP2 PUSH2 0x852 JUMP JUMPDEST SWAP8 DUP5 PUSH2 0x334 DUP11 PUSH2 0x884 JUMP JUMPDEST MSTORE DUP8 MLOAD SWAP7 PUSH1 0x20 SWAP8 DUP9 DUP2 ADD SWAP1 PUSH2 0x34F DUP2 PUSH2 0x1F7 DUP11 DUP9 DUP11 DUP8 PUSH2 0x8B7 JUMP JUMPDEST MLOAD SWAP1 KECCAK256 DUP12 MSTORE DUP11 DUP9 MSTORE DUP9 DUP12 KECCAK256 SLOAD PUSH2 0x364 DUP12 PUSH2 0x8A7 JUMP JUMPDEST MSTORE PUSH2 0x36E DUP11 PUSH2 0x8A7 JUMP JUMPDEST MLOAD LT PUSH2 0x4E6 JUMPI TIMESTAMP GT PUSH2 0x4AD JUMPI DUP1 ISZERO PUSH2 0x49A JUMPI PUSH1 0x1 PUSH1 0x1 PUSH1 0xA0 SHL SUB SWAP4 DUP10 SWAP1 DUP8 SWAP1 PUSH1 0x64 DUP8 PUSH2 0x399 DUP8 PUSH2 0x903 JUMP JUMPDEST AND SWAP2 DUP12 MLOAD SWAP5 DUP6 SWAP4 DUP5 SWAP3 PUSH4 0x23B872DD PUSH1 0xE0 SHL DUP5 MSTORE CALLER DUP14 DUP6 ADD MSTORE ADDRESS PUSH1 0x24 DUP6 ADD MSTORE PUSH1 0x44 DUP5 ADD MSTORE GAS CALL DUP1 ISZERO PUSH2 0x490 JUMPI PUSH2 0x473 JUMPI JUMPDEST POP PUSH1 0x1 LT ISZERO PUSH2 0x460 JUMPI DUP3 SWAP2 DUP9 DUP7 SWAP5 PUSH2 0x3E4 DUP7 PUSH1 0x44 SWAP6 ADD PUSH2 0x903 JUMP JUMPDEST AND PUSH2 0x3EE DUP11 PUSH2 0x8A7 JUMP JUMPDEST MLOAD DUP10 MLOAD SWAP8 DUP9 SWAP7 DUP8 SWAP6 PUSH4 0xA9059CBB PUSH1 0xE0 SHL DUP8 MSTORE AND SWAP1 DUP6 ADD MSTORE PUSH1 0x24 DUP5 ADD MSTORE GAS CALL DUP1 ISZERO PUSH2 0x456 JUMPI PUSH2 0x224 SWAP6 POP PUSH2 0x428 JUMPI JUMPDEST POP POP MLOAD SWAP2 DUP3 SWAP2 DUP3 PUSH2 0x6C5 JUMP JUMPDEST DUP2 PUSH2 0x447 SWAP3 SWAP1 RETURNDATASIZE LT PUSH2 0x44F JUMPI JUMPDEST PUSH2 0x43F DUP2 DUP4 PUSH2 0x802 JUMP JUMPDEST DUP2 ADD SWAP1 PUSH2 0x917 JUMP JUMPDEST POP DUP4 DUP1 PUSH2 0x41C JUMP JUMPDEST POP RETURNDATASIZE PUSH2 0x435 JUMP JUMPDEST DUP4 MLOAD RETURNDATASIZE DUP8 DUP3 RETURNDATACOPY RETURNDATASIZE SWAP1 REVERT JUMPDEST PUSH4 0x4E487B71 PUSH1 0xE0 SHL DUP9 MSTORE PUSH1 0x32 DUP5 MSTORE PUSH1 0x24 DUP9 REVERT JUMPDEST PUSH2 0x489 SWAP1 DUP8 RETURNDATASIZE DUP10 GT PUSH2 0x44F JUMPI PUSH2 0x43F DUP2 DUP4 PUSH2 0x802 JUMP JUMPDEST POP DUP10 PUSH2 0x3C9 JUMP JUMPDEST DUP9 MLOAD RETURNDATASIZE DUP13 DUP3 RETURNDATACOPY RETURNDATASIZE SWAP1 REVERT JUMPDEST PUSH4 0x4E487B71 PUSH1 0xE0 SHL DUP10 MSTORE PUSH1 0x32 DUP6 MSTORE PUSH1 0x24 DUP10 REVERT JUMPDEST DUP7 MLOAD PUSH3 0x461BCD PUSH1 0xE5 SHL DUP2 MSTORE DUP1 DUP7 ADD DUP8 SWAP1 MSTORE PUSH1 0x13 PUSH1 0x24 DUP3 ADD MSTORE PUSH19 0x135BD8DAD49BDD5D195C8E8811561412549151 PUSH1 0x6A SHL PUSH1 0x44 DUP3 ADD MSTORE PUSH1 0x64 SWAP1 REVERT JUMPDEST DUP8 MLOAD PUSH3 0x461BCD PUSH1 0xE5 SHL DUP2 MSTORE DUP1 DUP8 ADD DUP9 SWAP1 MSTORE PUSH1 0x26 PUSH1 0x24 DUP3 ADD MSTORE PUSH32 0x4D6F636B526F757465723A20494E53554646494349454E545F4F55545055545F PUSH1 0x44 DUP3 ADD MSTORE PUSH6 0x105353D55395 PUSH1 0xD2 SHL PUSH1 0x64 DUP3 ADD MSTORE PUSH1 0x84 SWAP1 REVERT JUMPDEST DUP3 CALLVALUE PUSH2 0x196 JUMPI PUSH2 0x160 CALLDATASIZE PUSH1 0x3 NOT ADD SLT PUSH2 0x196 JUMPI PUSH2 0x553 PUSH2 0x5A7 JUMP JUMPDEST POP PUSH2 0x55C PUSH2 0x5C2 JUMP JUMPDEST POP PUSH2 0x565 PUSH2 0x5D8 JUMP JUMPDEST POP PUSH1 0xE4 CALLDATALOAD DUP1 ISZERO ISZERO SUB PUSH2 0x196 JUMPI PUSH2 0x104 CALLDATALOAD PUSH1 0xFF DUP2 AND EQ PUSH2 0x92F JUMPI DUP1 REVERT JUMPDEST DUP3 CALLVALUE PUSH2 0x196 JUMPI PUSH2 0x590 CALLDATASIZE PUSH2 0x700 JUMP JUMPDEST POP POP POP PUSH2 0x92F JUMP JUMPDEST DUP3 CALLVALUE PUSH2 0x196 JUMPI PUSH2 0x154 CALLDATASIZE PUSH2 0x5EE JUMP JUMPDEST PUSH1 0x4 CALLDATALOAD SWAP1 PUSH1 0x1 PUSH1 0x1 PUSH1 0xA0 SHL SUB DUP3 AND DUP3 SUB PUSH2 0x5BD JUMPI JUMP JUMPDEST PUSH1 0x0 DUP1 REVERT JUMPDEST PUSH1 0x24 CALLDATALOAD SWAP1 PUSH1 0x1 PUSH1 0x1 PUSH1 0xA0 SHL SUB DUP3 AND DUP3 SUB PUSH2 0x5BD JUMPI JUMP JUMPDEST PUSH1 0xA4 CALLDATALOAD SWAP1 PUSH1 0x1 PUSH1 0x1 PUSH1 0xA0 SHL SUB DUP3 AND DUP3 SUB PUSH2 0x5BD JUMPI JUMP JUMPDEST PUSH1 0xC0 SWAP1 PUSH1 0x3 NOT ADD SLT PUSH2 0x5BD JUMPI PUSH1 0x1 PUSH1 0x1 PUSH1 0xA0 SHL SUB PUSH1 0x4 CALLDATALOAD DUP2 DUP2 AND DUP2 SUB PUSH2 0x5BD JUMPI SWAP2 PUSH1 0x24 CALLDATALOAD SWAP2 PUSH1 0x44 CALLDATALOAD SWAP2 PUSH1 0x64 CALLDATALOAD SWAP2 PUSH1 0x84 CALLDATALOAD SWAP1 DUP2 AND DUP2 SUB PUSH2 0x5BD JUMPI SWAP1 PUSH1 0xA4 CALLDATALOAD SWAP1 JUMP JUMPDEST CALLVALUE PUSH2 0x5BD JUMPI PUSH1 0x60 CALLDATASIZE PUSH1 0x3 NOT ADD SLT ISZERO PUSH2 0x92F JUMPI PUSH1 0x0 DUP1 REVERT JUMPDEST SWAP2 DUP2 PUSH1 0x1F DUP5 ADD SLT ISZERO PUSH2 0x5BD JUMPI DUP3 CALLDATALOAD SWAP2 PUSH8 0xFFFFFFFFFFFFFFFF DUP4 GT PUSH2 0x5BD JUMPI PUSH1 0x20 DUP1 DUP6 ADD SWAP5 DUP5 PUSH1 0x5 SHL ADD ADD GT PUSH2 0x5BD JUMPI JUMP JUMPDEST PUSH1 0xA0 PUSH1 0x3 NOT DUP3 ADD SLT PUSH2 0x5BD JUMPI PUSH1 0x4 CALLDATALOAD SWAP2 PUSH1 0x24 CALLDATALOAD SWAP2 PUSH1 0x44 CALLDATALOAD SWAP1 PUSH8 0xFFFFFFFFFFFFFFFF DUP3 GT PUSH2 0x5BD JUMPI PUSH2 0x6A9 SWAP2 PUSH1 0x4 ADD PUSH2 0x645 JUMP JUMPDEST SWAP1 SWAP2 PUSH1 0x64 CALLDATALOAD PUSH1 0x1 PUSH1 0x1 PUSH1 0xA0 SHL SUB DUP2 AND DUP2 SUB PUSH2 0x5BD JUMPI SWAP1 PUSH1 0x84 CALLDATALOAD SWAP1 JUMP JUMPDEST PUSH1 0x20 SWAP1 DUP2 PUSH1 0x40 DUP2 DUP4 ADD SWAP3 DUP3 DUP2 MSTORE DUP6 MLOAD DUP1 SWAP5 MSTORE ADD SWAP4 ADD SWAP2 PUSH1 0x0 JUMPDEST DUP3 DUP2 LT PUSH2 0x6EC JUMPI POP POP POP POP SWAP1 JUMP JUMPDEST DUP4 MLOAD DUP6 MSTORE SWAP4 DUP2 ADD SWAP4 SWAP3 DUP2 ADD SWAP3 PUSH1 0x1 ADD PUSH2 0x6DE JUMP JUMPDEST SWAP1 PUSH1 0x40 PUSH1 0x3 NOT DUP4 ADD SLT PUSH2 0x5BD JUMPI PUSH1 0x4 CALLDATALOAD SWAP2 PUSH1 0x24 CALLDATALOAD SWAP1 PUSH8 0xFFFFFFFFFFFFFFFF DUP3 GT PUSH2 0x5BD JUMPI PUSH2 0x730 SWAP2 PUSH1 0x4 ADD PUSH2 0x645 JUMP JUMPDEST SWAP1 SWAP2 JUMP JUMPDEST PUSH2 0x140 SWAP1 PUSH1 0x3 NOT ADD SLT PUSH2 0x5BD JUMPI PUSH1 0x1 PUSH1 0x1 PUSH1 0xA0 SHL SUB PUSH1 0x4 CALLDATALOAD DUP2 DUP2 AND DUP2 SUB PUSH2 0x5BD JUMPI SWAP2 PUSH1 0x24 CALLDATALOAD SWAP2 PUSH1 0x44 CALLDATALOAD SWAP2 PUSH1 0x64 CALLDATALOAD SWAP2 PUSH1 0x84 CALLDATALOAD SWAP1 DUP2 AND DUP2 SUB PUSH2 0x5BD JUMPI SWAP1 PUSH1 0xA4 CALLDATALOAD SWAP1 PUSH1 0xC4 CALLDATALOAD DUP1 ISZERO ISZERO DUP2 SUB PUSH2 0x5BD JUMPI SWAP1 PUSH1 0xE4 CALLDATALOAD PUSH1 0xFF DUP2 AND DUP2 SUB PUSH2 0x5BD JUMPI SWAP1 PUSH2 0x104 CALLDATALOAD SWAP1 PUSH2 0x124 CALLDATALOAD SWAP1 JUMP JUMPDEST SWAP1 PUSH1 0x80 PUSH1 0x3 NOT DUP4 ADD SLT PUSH2 0x5BD JUMPI PUSH1 0x4 CALLDATALOAD SWAP2 PUSH1 0x24 CALLDATALOAD SWAP1 PUSH8 0xFFFFFFFFFFFFFFFF DUP3 GT PUSH2 0x5BD JUMPI PUSH2 0x7CA SWAP2 PUSH1 0x4 ADD PUSH2 0x645 JUMP JUMPDEST SWAP1 SWAP2 PUSH1 0x44 CALLDATALOAD PUSH1 0x1 PUSH1 0x1 PUSH1 0xA0 SHL SUB DUP2 AND DUP2 SUB PUSH2 0x5BD JUMPI SWAP1 PUSH1 0x64 CALLDATALOAD SWAP1 JUMP JUMPDEST CALLVALUE PUSH2 0x5BD JUMPI PUSH1 0x0 CALLDATASIZE PUSH1 0x3 NOT ADD SLT PUSH2 0x5BD JUMPI PUSH1 0x20 PUSH1 0x40 MLOAD PUSH1 0x0 DUP2 MSTORE RETURN JUMPDEST SWAP1 PUSH1 0x1F DUP1 NOT SWAP2 ADD AND DUP2 ADD SWAP1 DUP2 LT PUSH8 0xFFFFFFFFFFFFFFFF DUP3 GT OR PUSH2 0x824 JUMPI PUSH1 0x40 MSTORE JUMP JUMPDEST PUSH4 0x4E487B71 PUSH1 0xE0 SHL PUSH1 0x0 MSTORE PUSH1 0x41 PUSH1 0x4 MSTORE PUSH1 0x24 PUSH1 0x0 REVERT JUMPDEST PUSH8 0xFFFFFFFFFFFFFFFF DUP2 GT PUSH2 0x824 JUMPI PUSH1 0x5 SHL PUSH1 0x20 ADD SWAP1 JUMP JUMPDEST SWAP1 PUSH2 0x85C DUP3 PUSH2 0x83A JUMP JUMPDEST PUSH2 0x869 PUSH1 0x40 MLOAD SWAP2 DUP3 PUSH2 0x802 JUMP JUMPDEST DUP3 DUP2 MSTORE DUP1 SWAP3 PUSH2 0x87A PUSH1 0x1F NOT SWAP2 PUSH2 0x83A JUMP JUMPDEST ADD SWAP1 PUSH1 0x20 CALLDATASIZE SWAP2 ADD CALLDATACOPY JUMP JUMPDEST DUP1 MLOAD ISZERO PUSH2 0x891 JUMPI PUSH1 0x20 ADD SWAP1 JUMP JUMPDEST PUSH4 0x4E487B71 PUSH1 0xE0 SHL PUSH1 0x0 MSTORE PUSH1 0x32 PUSH1 0x4 MSTORE PUSH1 0x24 PUSH1 0x0 REVERT JUMPDEST DUP1 MLOAD PUSH1 0x1 LT ISZERO PUSH2 0x891 JUMPI PUSH1 0x40 ADD SWAP1 JUMP JUMPDEST SWAP4 SWAP3 SWAP1 SWAP2 SWAP4 SWAP2 PUSH1 0x0 SWAP5 DUP6 JUMPDEST DUP2 DUP2 LT PUSH2 0x8D5 JUMPI POP POP POP DUP2 MSTORE PUSH1 0x20 ADD SWAP2 POP JUMP JUMPDEST SWAP1 SWAP2 SWAP4 DUP5 CALLDATALOAD SWAP1 PUSH1 0x1 DUP1 PUSH1 0xA0 SHL SUB DUP3 AND DUP1 SWAP3 SUB PUSH2 0x8FF JUMPI SWAP1 DUP2 MSTORE PUSH1 0x20 SWAP1 DUP2 ADD SWAP5 ADD SWAP2 SWAP1 PUSH1 0x1 ADD PUSH2 0x8C2 JUMP JUMPDEST DUP8 DUP1 REVERT JUMPDEST CALLDATALOAD PUSH1 0x1 PUSH1 0x1 PUSH1 0xA0 SHL SUB DUP2 AND DUP2 SUB PUSH2 0x5BD JUMPI SWAP1 JUMP JUMPDEST SWAP1 DUP2 PUSH1 0x20 SWAP2 SUB SLT PUSH2 0x5BD JUMPI MLOAD DUP1 ISZERO ISZERO DUP2 SUB PUSH2 0x5BD JUMPI SWAP1 JUMP JUMPDEST PUSH1 0x40 MLOAD PUSH3 0x461BCD PUSH1 0xE5 SHL DUP2 MSTORE PUSH1 0x20 PUSH1 0x4 DUP3 ADD MSTORE PUSH1 0xF PUSH1 0x24 DUP3 ADD MSTORE PUSH15 0x139BDD081A5B5C1B195B595B9D1959 PUSH1 0x8A SHL PUSH1 0x44 DUP3 ADD MSTORE PUSH1 0x64 SWAP1 REVERT INVALID LOG2 PUSH5 0x6970667358 0x22 SLT KECCAK256 SWAP15 0xCE 0x21 DUP13 PUSH21 0x997F690EF5139D630A6FFCCBD8FCD2263EC3DF53D3 0xBB 0xCA NOT RETURNDATACOPY 0x1E 0xE8 PUSH5 0x736F6C6343 STOP ADDMOD EQ STOP CALLER "},"methodIdentifiers":{"WETH()":"ad5c4648","addLiquidity(address,address,uint256,uint256,uint256,uint256,address,uint256)":"e8e33700","addLiquidityETH(address,uint256,uint256,uint256,address,uint256)":"f305d719","factory()":"c45a0155","getAmountIn(uint256,uint256,uint256)":"85f8c259","getAmountOut(uint256,uint256,uint256)":"054d50d4","getAmountsIn(uint256,address[])":"1f00ca74","getAmountsOut(uint256,address[])":"d06ca61f","quote(uint256,uint256,uint256)":"ad615dec","removeLiquidity(address,address,uint256,uint256,uint256,address,uint256)":"baa2abde","removeLiquidityETH(address,uint256,uint256,uint256,address,uint256)":"02751cec","removeLiquidityETHSupportingFeeOnTransferTokens(address,uint256,uint256,uint256,address,uint256)":"af2979eb","removeLiquidityETHWithPermit(address,uint256,uint256,uint256,address,uint256,bool,uint8,bytes32,bytes32)":"ded9382a","removeLiquidityETHWithPermitSupportingFeeOnTransferTokens(address,uint256,uint256,uint256,address,uint256,bool,uint8,bytes32,bytes32)":"5b0d5984","removeLiquidityWithPermit(address,address,uint256,uint256,uint256,address,uint256,bool,uint8,bytes32,bytes32)":"2195995c","setAmountOut(address[],uint256,uint256)":"72fd499d","swapETHForExactTokens(uint256,address[],address,uint256)":"fb3bdb41","swapExactETHForTokens(uint256,address[],address,uint256)":"7ff36ab5","swapExactETHForTokensSupportingFeeOnTransferTokens(uint256,address[],address,uint256)":"b6f9de95","swapExactTokensForETH(uint256,uint256,address[],address,uint256)":"18cbafe5","swapExactTokensForETHSupportingFeeOnTransferTokens(uint256,uint256,address[],address,uint256)":"791ac947","swapExactTokensForTokens(uint256,uint256,address[],address,uint256)":"38ed1739","swapExactTokensForTokensSupportingFeeOnTransferTokens(uint256,uint256,address[],address,uint256)":"5c11d795","swapTokensForExactETH(uint256,uint256,address[],address,uint256)":"4a25d94a","swapTokensForExactTokens(uint256,uint256,address[],address,uint256)":"8803dbee"}}}}}