{"contracts/contracts/UniswapV2TwapOracle.sol":{"UniswapV2TwapOracle":{"abi":[{"inputs":[],"stateMutability":"nonpayable","type":"constructor"},{"inputs":[{"internalType":"address","name":"tokenIn","type":"address"},{"internalType":"uint256","name":"amountIn","type":"uint256"},{"internalType":"address","name":"tokenOut","type":"address"},{"internalType":"uint24","name":"duration","type":"uint24"}],"name":"consult","outputs":[{"internalType":"uint256","name":"amountOut","type":"uint256"}],"stateMutability":"view","type":"function"}],"evm":{"bytecode":{"linkReferences":{},"object":"608080604052346100165761010c908161001c8239f35b600080fdfe6080806040526004361015601257600080fd5b600090813560e01c6375604c4014602857600080fd5b34607f576080366003190112607f576001600160a01b036004358181168103607b576044359182168203607b576064359362ffffff851685036078575092607491602094602435906083565b8152f35b80fd5b8380fd5b5080fd5b6001600160a01b039081161515939290918460cd575b508360c2575b50508160b4575b5060af57600090565b600090565b62ffffff91501615153860a6565b16151591503880609f565b1515935038609956fea26469706673582212207bc1cabfe8b8f8d2ade12067b8755c64453e9abe9fb1bbff34ac6cd0390e95b564736f6c63430008140033","opcodes":"PUSH1 0x80 DUP1 PUSH1 0x40 MSTORE CALLVALUE PUSH2 0x16 JUMPI PUSH2 0x10C SWAP1 DUP2 PUSH2 0x1C DUP3 CODECOPY RETURN JUMPDEST PUSH1 0x0 DUP1 REVERT INVALID PUSH1 0x80 DUP1 PUSH1 0x40 MSTORE PUSH1 0x4 CALLDATASIZE LT ISZERO PUSH1 0x12 JUMPI PUSH1 0x0 DUP1 REVERT JUMPDEST PUSH1 0x0 SWAP1 DUP2 CALLDATALOAD PUSH1 0xE0 SHR PUSH4 0x75604C40 EQ PUSH1 0x28 JUMPI PUSH1 0x0 DUP1 REVERT JUMPDEST CALLVALUE PUSH1 0x7F JUMPI PUSH1 0x80 CALLDATASIZE PUSH1 0x3 NOT ADD SLT PUSH1 0x7F JUMPI PUSH1 0x1 PUSH1 0x1 PUSH1 0xA0 SHL SUB PUSH1 0x4 CALLDATALOAD DUP2 DUP2 AND DUP2 SUB PUSH1 0x7B JUMPI PUSH1 0x44 CALLDATALOAD SWAP2 DUP3 AND DUP3 SUB PUSH1 0x7B JUMPI PUSH1 0x64 CALLDATALOAD SWAP4 PUSH3 0xFFFFFF DUP6 AND DUP6 SUB PUSH1 0x78 JUMPI POP SWAP3 PUSH1 0x74 SWAP2 PUSH1 0x20 SWAP5 PUSH1 0x24 CALLDATALOAD SWAP1 PUSH1 0x83 JUMP JUMPDEST DUP2 MSTORE RETURN JUMPDEST DUP1 REVERT JUMPDEST DUP4 DUP1 REVERT JUMPDEST POP DUP1 REVERT JUMPDEST PUSH1 0x1 PUSH1 0x1 PUSH1 0xA0 SHL SUB SWAP1 DUP2 AND ISZERO ISZERO SWAP4 SWAP3 SWAP1 SWAP2 DUP5 PUSH1 0xCD JUMPI JUMPDEST POP DUP4 PUSH1 0xC2 JUMPI JUMPDEST POP POP DUP2 PUSH1 0xB4 JUMPI JUMPDEST POP PUSH1 0xAF JUMPI PUSH1 0x0 SWAP1 JUMP JUMPDEST PUSH1 0x0 SWAP1 JUMP JUMPDEST PUSH3 0xFFFFFF SWAP2 POP AND ISZERO ISZERO CODESIZE PUSH1 0xA6 JUMP JUMPDEST AND ISZERO ISZERO SWAP2 POP CODESIZE DUP1 PUSH1 0x9F JUMP JUMPDEST ISZERO ISZERO SWAP4 POP CODESIZE PUSH1 0x99 JUMP INVALID LOG2 PUSH5 0x6970667358 0x22 SLT KECCAK256 PUSH28 0xC1CABFE8B8F8D2ADE12067B8755C64453E9ABE9FB1BBFF34AC6CD039 0xE SWAP6 0xB5 PUSH5 0x736F6C6343 STOP ADDMOD EQ STOP CALLER "},"methodIdentifiers":{"consult(address,uint256,address,uint24)":"75604c40"}}}}}