{
  "_format": "hh-sol-artifact-1",
  "contractName": "UniswapV2TwapOracle",
  "sourceName": "contracts/contracts/UniswapV2TwapOracle.sol",
  "abi": [
    {
      "inputs": [
        {
          "internalType": "address",
          "name": "_factory",
          "type": "address"
        }
      ],
      "stateMutability": "nonpayable",
      "type": "constructor"
    },
    {
      "inputs": [],
      "name": "PERIOD",
      "outputs": [
        {
          "internalType": "uint24",
          "name": "",
          "type": "uint24"
        }
      ],
      "stateMutability": "view",
      "type": "function"
    },
    {
      "inputs": [
        {
          "internalType": "address",
          "name": "tokenIn",
          "type": "address"
        },
        {
          "internalType": "uint256",
          "name": "amountIn",
          "type": "uint256"
        },
        {
          "internalType": "address",
          "name": "tokenOut",
          "type": "address"
        }
      ],
      "name": "consult",
      "outputs": [
        {
          "internalType": "uint256",
          "name": "amountOut",
          "type": "uint256"
        }
      ],
      "stateMutability": "view",
      "type": "function"
    },
    {
      "inputs": [],
      "name": "factory",
      "outputs": [
        {
          "internalType": "address",
          "name": "",
          "type": "address"
        }
      ],
      "stateMutability": "view",
      "type": "function"
    },
    {
      "inputs": [
        {
          "internalType": "address",
          "name": "",
          "type": "address"
        }
      ],
      "name": "pairObservations",
      "outputs": [
        {
          "internalType": "uint32",
          "name": "blockTimestamp",
          "type": "uint32"
        },
        {
          "internalType": "uint256",
          "name": "price0Cumulative",
          "type": "uint256"
        },
        {
          "internalType": "uint256",
          "name": "price1Cumulative",
          "type": "uint256"
        }
      ],
      "stateMutability": "view",
      "type": "function"
    },
    {
      "inputs": [
        {
          "internalType": "address",
          "name": "tokenA",
          "type": "address"
        },
        {
          "internalType": "address",
          "name": "tokenB",
          "type": "address"
        }
      ],
      "name": "update",
      "outputs": [],
      "stateMutability": "nonpayable",
      "type": "function"
    }
  ],
  "bytecode": "0x60a03461007757601f6107e438819003918201601f19168301916001600160401b0383118484101761007c5780849260209460405283398101031261007757516001600160a01b0381168103610077576080526040516107519081610093823960805181818160b10152818161013b01526104630152f35b600080fd5b634e487b7160e01b600052604160045260246000fdfe608060408181526004918236101561001657600080fd5b600092833560e01c918263402e1abf14610393575081638c86f1e4146100fc57508063b4d1d795146100e0578063c45a01551461009d5763c640752d1461005c57600080fd5b3461009957366003190112610096576100736103e5565b6024356001600160a01b03811681036100925761008f91610454565b80f35b8280fd5b80fd5b5080fd5b5034610099578160031936011261009957517f00000000000000000000000000000000000000000000000000000000000000006001600160a01b03168152602090f35b5034610099578160031936011261009957602090516102588152f35b83915034610099576060366003190112610099576101186103e5565b926024803593604435936001600160a01b038086168603610092578061015f878a7f00000000000000000000000000000000000000000000000000000000000000006105cc565b16808452602098899285845287862092885161017a81610400565b63ffffffff916002838754169687845260018101549884019889520154958b830196875215610358578a51635909c0d560e01b815294939291908e868a81845afa958615610311578f90918a989796959493928c9761031b575b508d51635a3d549360e01b815298899182905afa968715610311578f8b986102dd575b5050518116428216038181116102cb57169a6102588c106102895761021d829184610683565b50169116146000146102765750610236925051906106f8565b868102968188041490151715610266578415610256575050505191048152f35b634e487b7160e01b825260129052fd5b634e487b7160e01b825260119052fd5b9150506102849151906106f8565b610236565b8a5162461bcd60e51b81528089018f9052601f818c01527f4f7261636c653a204e4f545f454e4f5547485f54494d455f454c4150534544006044820152606490fd5b634e487b7160e01b8a52601189528a8afd5b9080929850813d831161030a575b6102f58183610432565b81010312610306575195818f6101f7565b8980fd5b503d6102eb565b8c513d8c823e3d90fd5b92939495965096975081813d8311610351575b6103388183610432565b8101031261030657908e899796959493925195386101d4565b503d61032e565b8a5162461bcd60e51b81528089018f90526016818c01527527b930b1b6329d102727afa7a129a2a92b20aa24a7a760511b6044820152606490fd5b849084346100925760203660031901126100925760609281906001600160a01b036103bc6103e5565b16815280602052209063ffffffff82541691600260018201549101549284526020840152820152f35b600435906001600160a01b03821682036103fb57565b600080fd5b6060810190811067ffffffffffffffff82111761041c57604052565b634e487b7160e01b600052604160045260246000fd5b90601f8019910116810190811067ffffffffffffffff82111761041c57604052565b6001600160a01b0391610487917f00000000000000000000000000000000000000000000000000000000000000006105cc565b166040805190635909c0d560e01b82526020918281600481875afa9081156105c157600091610594575b508151635a3d549360e01b8152918383600481885afa9283156105895760009361055a575b508460005260008452806000209063ffffffff9182815416156105485782905416421461054057600060029582519761050e89610400565b844216895281890195865283890196875282525260002094511663ffffffff1985541617845551600184015551910155565b505050505050565b50600060029582519761050e89610400565b90928482813d8311610582575b6105718183610432565b8101031261009657505191386104d6565b503d610567565b50513d6000823e3d90fd5b908382813d83116105ba575b6105aa8183610432565b81010312610096575051386104b1565b503d6105a0565b82513d6000823e3d90fd5b916105d691610683565b919060405160208101916bffffffffffffffffffffffff199485809260601b16845260601b1660348201526028815261060e81610400565b51902060405192602084019260ff60f81b845260601b16602184015260358301527f96e8ac4277198ff8b6f785478aa9a39f403cb768dd02cbee326c3e7da348845f6055830152605582526080820182811067ffffffffffffffff82111761041c57604052905190206001600160a01b031690565b6001600160a01b038281169082168082146106a55710156106a15791565b9091565b60405162461bcd60e51b815260206004820152602560248201527f556e697377617056324c6962726172793a204944454e544943414c5f41444452604482015264455353455360d81b6064820152608490fd5b9190820391821161070557565b634e487b7160e01b600052601160045260246000fdfea264697066735822122044c947f9f2b9a6ad8b082c2ebc627000243f80f3c29bd29bd53d4a596dc987d064736f6c63430008140033",
  "linkReferences": {},
  "deployedLinkReferences": {}
}