{"abi":[{"type":"constructor","inputs":[],"stateMutability":"nonpayable"},{"type":"function","name":"MIN_UPDATE_DELAY","inputs":[],"outputs":[{"name":"","type":"uint32","internalType":"uint32"}],"stateMutability":"view"},{"type":"function","name":"consult","inputs":[{"name":"factory","type":"address","internalType":"address"},{"name":"tokenIn","type":"address","internalType":"address"},{"name":"amountIn","type":"uint256","internalType":"uint256"},{"name":"tokenOut","type":"address","internalType":"address"}],"outputs":[{"name":"amountOut","type":"uint256","internalType":"uint256"}],"stateMutability":"view"},{"type":"function","name":"pairData","inputs":[{"name":"","type":"address","internalType":"address"},{"name":"","type":"address","internalType":"address"}],"outputs":[{"name":"token0","type":"address","internalType":"address"},{"name":"blockTimestampLast","type":"uint32","internalType":"uint32"},{"name":"price0CumulativeLast","type":"uint256","internalType":"uint256"},{"name":"price1CumulativeLast","type":"uint256","internalType":"uint256"}],"stateMutability":"view"},{"type":"function","name":"update","inputs":[{"name":"factory","type":"address","internalType":"address"},{"name":"tokenA","type":"address","internalType":"address"},{"name":"tokenB","type":"address","internalType":"address"}],"outputs":[],"stateMutability":"nonpayable"}],"bytecode":{"object":"0x608060405234601c57600e6020565b6112db61002b82396112db90f35b6026565b60405190565b5f80fdfe60806040526004361015610013575b61046b565b61001d5f3561005c565b80631eb4252314610057578063518a5bce146100525780635416c8181461004d5763f4d696400361000e57610432565b61037f565b6102ea565b6100e9565b60e01c90565b60405190565b5f80fd5b5f80fd5b60018060a01b031690565b61008490610070565b90565b6100908161007b565b0361009757565b5f80fd5b905035906100a882610087565b565b90916060828403126100df576100dc6100c5845f850161009b565b936100d3816020860161009b565b9360400161009b565b90565b61006c565b5f0190565b34610118576101026100fc3660046100aa565b91610724565b61010a610062565b80610114816100e4565b0390f35b610068565b91906040838203126101455780610139610142925f860161009b565b9360200161009b565b90565b61006c565b90565b61016161015c61016692610070565b61014a565b610070565b90565b6101729061014d565b90565b61017e90610169565b90565b9061018b90610175565b5f5260205260405f2090565b906101a190610175565b5f5260205260405f2090565b5f1c90565b60018060a01b031690565b6101c96101ce916101ad565b6101b2565b90565b6101db90546101bd565b90565b60a01c90565b63ffffffff1690565b6101f96101fe916101de565b6101e4565b90565b61020b90546101ed565b90565b90565b61021d610222916101ad565b61020e565b90565b61022f9054610211565b90565b90610240610245925f610181565b610197565b906102515f83016101d1565b9161025d5f8201610201565b91610276600261026f60018501610225565b9301610225565b90565b6102829061007b565b9052565b63ffffffff1690565b61029890610286565b9052565b90565b6102a89061029c565b9052565b6102e16102e8946102d76060949897956102cd608086019a5f870190610279565b602085019061028f565b604083019061029f565b019061029f565b565b3461031f5761031b61030661030036600461011d565b90610232565b90610312949294610062565b948594856102ac565b0390f35b610068565b5f91031261032e57565b61006c565b90565b61034a61034561034f92610333565b61014a565b610286565b90565b61035c600a610336565b90565b610367610352565b90565b919061037d905f6020850194019061028f565b565b346103af5761038f366004610324565b6103ab61039a61035f565b6103a2610062565b9182918261036a565b0390f35b610068565b6103bd8161029c565b036103c457565b5f80fd5b905035906103d5826103b4565b565b608081830312610418576103ed825f830161009b565b926104156103fe846020850161009b565b9361040c81604086016103c8565b9360600161009b565b90565b61006c565b9190610430905f6020850194019061029f565b565b34610466576104626104516104483660046103d7565b92919091610b6a565b610459610062565b9182918261041d565b0390f35b610068565b5f80fd5b90565b61048661048161048b92610286565b61014a565b61029c565b90565b634e487b7160e01b5f52601160045260245ffd5b6104b16104b79193929361029c565b9261029c565b82039182116104c257565b61048e565b60209181520190565b5f7f4f7261636c653a205550444154455f434f4f4c444f574e000000000000000000910152565b61050460176020926104c7565b61050d816104d0565b0190565b6105269060208101905f8183039101526104f7565b90565b1561053057565b610538610062565b62461bcd60e51b81528061054e60048201610511565b0390fd5b5f1b90565b906105635f1991610552565b9181191691161790565b61058161057c6105869261029c565b61014a565b61029c565b90565b90565b906105a161059c6105a89261056d565b610589565b8254610557565b9055565b60a01b90565b906105c463ffffffff60a01b916105ac565b9181191691161790565b6105e26105dd6105e792610286565b61014a565b610286565b90565b90565b906106026105fd610609926105ce565b6105ea565b82546105b2565b9055565b90565b61062461061f6106299261060d565b61014a565b610070565b90565b61063590610610565b90565b6106419061014d565b90565b61064d90610638565b90565b61065990610169565b90565b601f801991011690565b634e487b7160e01b5f52604160045260245ffd5b906106849061065c565b810190811067ffffffffffffffff82111761069e57604052565b610666565b60e01b90565b905051906106b682610087565b565b906020828203126106d1576106ce915f016106a9565b90565b61006c565b6106de610062565b3d5f823e3d90fd5b906106f760018060a01b0391610552565b9181191691161790565b90565b9061071961071461072092610175565b610701565b82546106e6565b9055565b9161074361073c61074f9361074a9386919091610df4565b935f610181565b8390610197565b61046f565b61078f61076f426107696107645f8601610201565b610472565b906104a2565b61078861078261077d610352565b610472565b9161029c565b1015610529565b61079882610f65565b919091906107a75f8501610201565b6107b96107b384610286565b91610286565b146108aa576107e3926107d26107db926001870161058c565b6002850161058c565b5f83016105ed565b6107ee5f82016101d1565b6108086108026107fd5f61062c565b61007b565b9161007b565b14610812575b5050565b602061082861082361083e94610644565b610650565b630dfe168190610836610062565b9485926106a3565b8252818061084e600482016100e4565b03915afa9081156108a55761086c925f92610873575b505f01610704565b5f8061080e565b5f9192506108979060203d811161089e575b61088f818361067a565b8101906106b8565b9190610864565b503d610885565b6106d6565b5050505050565b5f90565b906108bf9061007b565b9052565b906108cd90610286565b9052565b906108db9061029c565b9052565b906108f26108eb610062565b928361067a565b565b6108fe60806108df565b90565b9061096761095e60026109126108f4565b946109296109215f83016101d1565b5f88016108b5565b6109406109375f8301610201565b602088016108c3565b61095861094f60018301610225565b604088016108d1565b01610225565b606084016108d1565b565b61097290610901565b90565b61097f9051610286565b90565b61099661099161099b9261060d565b61014a565b610286565b90565b5f7f4f7261636c653a20504149525f4e4f545f494e495449414c495a454400000000910152565b6109d2601c6020926104c7565b6109db8161099e565b0190565b6109f49060208101905f8183039101526109c5565b90565b156109fe57565b610a06610062565b62461bcd60e51b815280610a1c600482016109df565b0390fd5b610a34610a2f610a399261029c565b61014a565b610286565b90565b610a48610a4e91610286565b91610286565b90039063ffffffff8211610a5e57565b61048e565b5f7f4f7261636c653a204e4f5f4e45575f4f42534552564154494f4e000000000000910152565b610a97601a6020926104c7565b610aa081610a63565b0190565b610ab99060208101905f818303910152610a8a565b90565b15610ac357565b610acb610062565b62461bcd60e51b815280610ae160048201610aa4565b0390fd5b610aef905161029c565b90565b634e487b7160e01b5f52601260045260245ffd5b610b12610b189161029c565b9161029c565b908115610b23570490565b610af2565b610b32905161007b565b90565b610b44610b4a9193929361029c565b9261029c565b91610b5683820261029c565b928184041490151715610b6557565b61048e565b610c7b610c75610c705f610bdd610baf610baa610ba3610b9c8a610c689c9b9d610b926108b1565b508b919091610df4565b9885610181565b8890610197565b610969565b95610bd8610bbf60208901610975565b610bd1610bcb86610982565b91610286565b14156109f7565b610f65565b509790610c62610c5c610c49610c3a610c0b8b610c056020610bfe42610a20565b9201610975565b90610a3c565b94610c2886610c22610c1c8b610982565b91610286565b11610abc565b610c3460408d01610ae5565b906104a2565b610c4385610472565b90610b06565b9a610c5660608b01610ae5565b906104a2565b91610472565b90610b06565b979401610b28565b61007b565b9161007b565b145f14610c9957610c959291610c9091610b35565b610b06565b905b565b610cab92610ca691610b35565b610b06565b90610c97565b5f90565b60601b90565b610cc490610cb5565b90565b610cd090610cbb565b90565b610cdf610ce49161007b565b610cc7565b9052565b601481610cfa610d0293839695610cd3565b018092610cd3565b0190565b60200190565b5190565b905090565b5f60ff60f81b910152565b610d2c60018092610d10565b610d3581610d15565b0190565b90565b90565b610d4b610d5091610d39565b610d3c565b9052565b5f7f96e8ac4277198ff8b6f785478aa9a39f403cb768dd02cbee326c3e7da348845f910152565b610d8760208092610d10565b610d9081610d54565b0190565b91610dbb6014602093610db3610dac610dc197610d20565b8092610cd3565b018092610d3f565b01610d7b565b90565b610dd0610dd5916101ad565b61056d565b90565b610dec610de7610df19261029c565b61014a565b610070565b90565b610e42610e7c610e9492610e17610e9e96610e9996610e11610cb1565b5061122c565b9390939193610e33610e27610062565b93849260208401610ce8565b6020820181038252038261067a565b610e54610e4e82610d0c565b91610d06565b2091610e6d610e61610062565b93849260208401610d94565b6020820181038252038261067a565b610e8e610e8882610d0c565b91610d06565b20610dc4565b610dd8565b610169565b90565b5f90565b90505190610eb2826103b4565b565b90602082820312610ecd57610eca915f01610ea5565b90565b61006c565b6dffffffffffffffffffffffffffff1690565b610eee81610ed2565b03610ef557565b5f80fd5b90505190610f0682610ee5565b565b610f1181610286565b03610f1857565b5f80fd5b90505190610f2982610f08565b565b9091606082840312610f6057610f5d610f46845f8501610ef9565b93610f548160208601610ef9565b93604001610f1c565b90565b61006c565b610f8990610f716108b1565b50610f7a6108b1565b50610f83610ea1565b50610644565b610fad6020610f9783610650565b635909c0d590610fa5610062565b9384926106a3565b82528180610fbd600482016100e4565b03915afa9081156110fd575f916110cf575b5091610ff56020610fdf84610650565b635a3d549390610fed610062565b9384926106a3565b82528180611005600482016100e4565b03915afa80156110ca5761102760609161103d935f9161109c575b5094610650565b630902f1ac90611035610062565b9384926106a3565b8252818061104d600482016100e4565b03915afa908115611097575f808093915050611068575b5090565b611089915060603d8111611090575b611081818361067a565b810190610f2b565b9150611064565b503d611077565b6106d6565b6110bd915060203d81116110c3575b6110b5818361067a565b810190610eb4565b5f611020565b503d6110ab565b6106d6565b6110f0915060203d81116110f6575b6110e8818361067a565b810190610eb4565b5f610fcf565b503d6110de565b6106d6565b60207f4553534553000000000000000000000000000000000000000000000000000000917f556e697377617056324c6962726172793a204944454e544943414c5f414444525f8201520152565b61115c60256040926104c7565b61116581611102565b0190565b61117e9060208101905f81830391015261114f565b90565b1561118857565b611190610062565b62461bcd60e51b8152806111a660048201611169565b0390fd5b5f7f556e697377617056324c6962726172793a205a45524f5f414444524553530000910152565b6111de601e6020926104c7565b6111e7816111aa565b0190565b6112009060208101905f8183039101526111d1565b90565b1561120a57565b611212610062565b62461bcd60e51b815280611228600482016111eb565b0390fd5b611234610cb1565b5061123d610cb1565b5061125b8161125461124e8561007b565b9161007b565b1415611181565b8061126e6112688461007b565b9161007b565b105f146112a057905b909161129e8361129761129161128c5f61062c565b61007b565b9161007b565b1415611203565b565b61127756fea264697066735822122072d8acfd94fb77788c61c9934e11ccb19ea7768840694054c55325a545331f7e64736f6c634300081e0033","linkReferences":{}},"methodIdentifiers":{"MIN_UPDATE_DELAY()":"5416c818","consult(address,address,uint256,address)":"f4d69640","pairData(address,address)":"518a5bce","update(address,address,address)":"1eb42523"},"id":2}