{"abi":[{"type":"constructor","inputs":[{"name":"_vault","type":"address","internalType":"address"},{"name":"_twapOracle","type":"address","internalType":"address"}],"stateMutability":"nonpayable"},{"type":"function","name":"owner","inputs":[],"outputs":[{"name":"","type":"address","internalType":"address"}],"stateMutability":"view"},{"type":"function","name":"pause","inputs":[],"outputs":[],"stateMutability":"nonpayable"},{"type":"function","name":"paused","inputs":[],"outputs":[{"name":"","type":"bool","internalType":"bool"}],"stateMutability":"view"},{"type":"function","name":"receiveFlashLoan","inputs":[{"name":"tokens","type":"address[]","internalType":"address[]"},{"name":"amounts","type":"uint256[]","internalType":"uint256[]"},{"name":"feeAmounts","type":"uint256[]","internalType":"uint256[]"},{"name":"userData","type":"bytes","internalType":"bytes"}],"outputs":[],"stateMutability":"nonpayable"},{"type":"function","name":"startFlashloan","inputs":[{"name":"token","type":"address","internalType":"address"},{"name":"amount","type":"uint256","internalType":"uint256"},{"name":"userData","type":"bytes","internalType":"bytes"}],"outputs":[],"stateMutability":"nonpayable"},{"type":"function","name":"twapOracle","inputs":[],"outputs":[{"name":"","type":"address","internalType":"contract UniswapV2TwapOracle"}],"stateMutability":"view"},{"type":"function","name":"unpause","inputs":[],"outputs":[],"stateMutability":"nonpayable"},{"type":"function","name":"vault","inputs":[],"outputs":[{"name":"","type":"address","internalType":"contract IVault"}],"stateMutability":"view"},{"type":"function","name":"withdraw","inputs":[{"name":"tokenAddress","type":"address","internalType":"address"}],"outputs":[],"stateMutability":"nonpayable"},{"type":"event","name":"FlashLoanExecuted","inputs":[{"name":"token","type":"address","indexed":true,"internalType":"address"},{"name":"loanAmount","type":"uint256","indexed":false,"internalType":"uint256"},{"name":"netProfit","type":"int256","indexed":false,"internalType":"int256"}],"anonymous":false},{"type":"event","name":"Paused","inputs":[{"name":"account","type":"address","indexed":false,"internalType":"address"}],"anonymous":false},{"type":"event","name":"ProfitWithdrawal","inputs":[{"name":"token","type":"address","indexed":true,"internalType":"address"},{"name":"amount","type":"uint256","indexed":false,"internalType":"uint256"}],"anonymous":false},{"type":"event","name":"Unpaused","inputs":[{"name":"account","type":"address","indexed":false,"internalType":"address"}],"anonymous":false},{"type":"error","name":"EnforcedPause","inputs":[]},{"type":"error","name":"ExpectedPause","inputs":[]},{"type":"error","name":"ReentrancyGuardReentrantCall","inputs":[]}],"bytecode":{"object":"0x60e060405234801561000f575f5ffd5b50604051612a3f380380612a3f83398181016040528101906100319190610188565b600161004f6100446100f860201b60201c565b61012160201b60201c565b5f01819055503373ffffffffffffffffffffffffffffffffffffffff1660808173ffffffffffffffffffffffffffffffffffffffff16815250508173ffffffffffffffffffffffffffffffffffffffff1660a08173ffffffffffffffffffffffffffffffffffffffff16815250508073ffffffffffffffffffffffffffffffffffffffff1660c08173ffffffffffffffffffffffffffffffffffffffff168152505050506101c6565b5f7f9b779b17422d0df92223018b32b4d1fa46e071723d6817e2486d003becc55f005f1b905090565b5f819050919050565b5f5ffd5b5f73ffffffffffffffffffffffffffffffffffffffff82169050919050565b5f6101578261012e565b9050919050565b6101678161014d565b8114610171575f5ffd5b50565b5f815190506101828161015e565b92915050565b5f5f6040838503121561019e5761019d61012a565b5b5f6101ab85828601610174565b92505060206101bc85828601610174565b9150509250929050565b60805160a05160c05161281061022f5f395f81816106b00152818161075f0152610f7601525f818161055f0152818161096d01528181610ab501526112b401525f81816101770152818161020f01528181610340015281816105f4015261068c01526128105ff3fe608060405234801561000f575f5ffd5b5060043610610091575f3560e01c80638456cb59116100645780638456cb59146100f55780638da5cb5b146100ff5780639043292a1461011d578063f04f27071461013b578063fbfa77cf1461015757610091565b80633f4ba83a1461009557806351cff8d91461009f5780635c975abb146100bb5780638298a90d146100d9575b5f5ffd5b61009d610175565b005b6100b960048036038101906100b49190611492565b61020d565b005b6100c3610412565b6040516100d091906114d7565b60405180910390f35b6100f360048036038101906100ee9190611584565b610426565b005b6100fd6105f2565b005b61010761068a565b6040516101149190611604565b60405180910390f35b6101256106ae565b6040516101329190611678565b60405180910390f35b6101556004803603810190610150919061173b565b6106d2565b005b61015f61096b565b60405161016c919061183f565b60405180910390f35b7f000000000000000000000000000000000000000000000000000000000000000073ffffffffffffffffffffffffffffffffffffffff163373ffffffffffffffffffffffffffffffffffffffff1614610203576040517f08c379a00000000000000000000000000000000000000000000000000000000081526004016101fa906118d8565b60405180910390fd5b61020b61098f565b565b7f000000000000000000000000000000000000000000000000000000000000000073ffffffffffffffffffffffffffffffffffffffff163373ffffffffffffffffffffffffffffffffffffffff161461029b576040517f08c379a0000000000000000000000000000000000000000000000000000000008152600401610292906118d8565b60405180910390fd5b5f8190505f8173ffffffffffffffffffffffffffffffffffffffff166370a08231306040518263ffffffff1660e01b81526004016102d99190611604565b602060405180830381865afa1580156102f4573d5f5f3e3d5ffd5b505050506040513d601f19601f82011682018060405250810190610318919061190a565b90505f81111561040d578173ffffffffffffffffffffffffffffffffffffffff1663a9059cbb7f0000000000000000000000000000000000000000000000000000000000000000836040518363ffffffff1660e01b815260040161037d929190611944565b6020604051808303815f875af1158015610399573d5f5f3e3d5ffd5b505050506040513d601f19601f820116820180604052508101906103bd9190611995565b508273ffffffffffffffffffffffffffffffffffffffff167fd65d7b028c704b54bcbe20b09b06f59223a87a757489cba0ab12afbb796472398260405161040491906119c0565b60405180910390a25b505050565b5f5f5f9054906101000a900460ff16905090565b61042e6109ef565b5f600167ffffffffffffffff81111561044a576104496119d9565b5b6040519080825280602002602001820160405280156104785781602001602082028036833780820191505090505b50905084815f8151811061048f5761048e611a06565b5b602002602001019073ffffffffffffffffffffffffffffffffffffffff16908173ffffffffffffffffffffffffffffffffffffffff16815250505f600167ffffffffffffffff8111156104e5576104e46119d9565b5b6040519080825280602002602001820160405280156105135781602001602082028036833780820191505090505b50905084815f8151811061052a57610529611a06565b5b6020026020010181815250505f33858560405160200161054c93929190611a8d565b60405160208183030381529060405290507f000000000000000000000000000000000000000000000000000000000000000073ffffffffffffffffffffffffffffffffffffffff16635c38449e308585856040518563ffffffff1660e01b81526004016105bc9493929190611c7b565b5f604051808303815f87803b1580156105d3575f5ffd5b505af11580156105e5573d5f5f3e3d5ffd5b5050505050505050505050565b7f000000000000000000000000000000000000000000000000000000000000000073ffffffffffffffffffffffffffffffffffffffff163373ffffffffffffffffffffffffffffffffffffffff1614610680576040517f08c379a0000000000000000000000000000000000000000000000000000000008152600401610677906118d8565b60405180910390fd5b610688610a30565b565b7f000000000000000000000000000000000000000000000000000000000000000081565b7f000000000000000000000000000000000000000000000000000000000000000081565b6106da610a91565b5f5f83838101906106eb9190611dfb565b915091506106f98a8a610ab3565b5f8180602001905181019061070e91906120f8565b905061071981610b8b565b5f5f6107278b8b8b8b610d79565b915091505f6107368484610dd1565b9050610743848483610f67565b5f61074f8583856110a8565b90505f8560c0015111156107ed577f000000000000000000000000000000000000000000000000000000000000000073ffffffffffffffffffffffffffffffffffffffff1663c640752d865f015187602001516040518363ffffffff1660e01b81526004016107bf92919061213f565b5f604051808303815f87803b1580156107d6575f5ffd5b505af11580156107e8573d5f5f3e3d5ffd5b505050505b61081f8f8f5f81811061080357610802611a06565b5b90506020020160208101906108189190611492565b8285611253565b5f838261082c9190612193565b90505f8111156108da578f8f5f81811061084957610848611a06565b5b905060200201602081019061085e9190611492565b73ffffffffffffffffffffffffffffffffffffffff1663a9059cbb89836040518363ffffffff1660e01b8152600401610898929190611944565b6020604051808303815f875af11580156108b4573d5f5f3e3d5ffd5b505050506040513d601f19601f820116820180604052508101906108d89190611995565b505b8f8f5f8181106108ed576108ec611a06565b5b90506020020160208101906109029190611492565b73ffffffffffffffffffffffffffffffffffffffff167f1736d858cebb9f1fc945933505f6898d6f81e41ee20cfb09e7031c9a817240c686836040516109499291906121de565b60405180910390a25050505050505050610961611337565b5050505050505050565b7f000000000000000000000000000000000000000000000000000000000000000081565b610997611351565b5f5f5f6101000a81548160ff0219169083151502179055507f5db9ee0a495bf2e6ff9c91a7834c1ba4fdd244a5e8aa4e537bd38aeae4b073aa6109d8611391565b6040516109e59190611604565b60405180910390a1565b6109f7610412565b15610a2e576040517fd93c066500000000000000000000000000000000000000000000000000000000815260040160405180910390fd5b565b610a386109ef565b60015f5f6101000a81548160ff0219169083151502179055507f62e78cea01bee320cd4e420270b5ea74000d11b0c9f74754ebdbfc544b05a258610a7a611391565b604051610a879190611604565b60405180910390a1565b610a99611398565b6002610aab610aa66113d9565b611402565b5f0181905550565b7f000000000000000000000000000000000000000000000000000000000000000073ffffffffffffffffffffffffffffffffffffffff163373ffffffffffffffffffffffffffffffffffffffff1614610b41576040517f08c379a0000000000000000000000000000000000000000000000000000000008152600401610b3890612275565b60405180910390fd5b60018282905014610b87576040517f08c379a0000000000000000000000000000000000000000000000000000000008152600401610b7e90612303565b60405180910390fd5b5050565b5f73ffffffffffffffffffffffffffffffffffffffff16815f015173ffffffffffffffffffffffffffffffffffffffff1614158015610bfa57505f73ffffffffffffffffffffffffffffffffffffffff16816020015173ffffffffffffffffffffffffffffffffffffffff1614155b610c39576040517f08c379a0000000000000000000000000000000000000000000000000000000008152600401610c309061236b565b60405180910390fd5b6002816040015151148015610c9857505f73ffffffffffffffffffffffffffffffffffffffff1681604001515f81518110610c7757610c76611a06565b5b602002602001015173ffffffffffffffffffffffffffffffffffffffff1614155b8015610cef57505f73ffffffffffffffffffffffffffffffffffffffff168160400151600181518110610cce57610ccd611a06565b5b602002602001015173ffffffffffffffffffffffffffffffffffffffff1614155b610d2e576040517f08c379a0000000000000000000000000000000000000000000000000000000008152600401610d25906123d3565b60405180910390fd5b600281606001515114610d76576040517f08c379a0000000000000000000000000000000000000000000000000000000008152600401610d6d9061243b565b60405180910390fd5b50565b5f5f5f86865f818110610d8f57610d8e611a06565b5b9050602002013590505f85855f818110610dac57610dab611a06565b5b905060200201359050818183610dc29190612459565b93509350505094509492505050565b5f825f015173ffffffffffffffffffffffffffffffffffffffff1663095ea7b384604001515f81518110610e0857610e07611a06565b5b6020026020010151846040518363ffffffff1660e01b8152600401610e2e929190611944565b6020604051808303815f875af1158015610e4a573d5f5f3e3d5ffd5b505050506040513d601f19601f82011682018060405250810190610e6e9190611995565b505f83604001515f81518110610e8757610e86611a06565b5b602002602001015173ffffffffffffffffffffffffffffffffffffffff166338ed1739848660a0015187606001515f81518110610ec757610ec6611a06565b5b602002602001015130426040518663ffffffff1660e01b8152600401610ef195949392919061248c565b5f604051808303815f875af1158015610f0c573d5f5f3e3d5ffd5b505050506040513d5f823e3d601f19601f82011682018060405250810190610f3491906125a4565b90508060018251610f459190612193565b81518110610f5657610f55611a06565b5b602002602001015191505092915050565b5f8360c0015111156110a3575f7f000000000000000000000000000000000000000000000000000000000000000073ffffffffffffffffffffffffffffffffffffffff16638c86f1e4855f01518587602001516040518463ffffffff1660e01b8152600401610fd8939291906125eb565b602060405180830381865afa158015610ff3573d5f5f3e3d5ffd5b505050506040513d601f19601f82011682018060405250810190611017919061190a565b90505f81831161103257828261102d9190612193565b61103f565b818361103e9190612193565b5b90508460c0015182612710836110559190612620565b61105f919061268e565b11156110a0576040517f08c379a00000000000000000000000000000000000000000000000000000000081526004016110979061272e565b60405180910390fd5b50505b505050565b5f836020015173ffffffffffffffffffffffffffffffffffffffff1663095ea7b385604001516001815181106110e1576110e0611a06565b5b6020026020010151856040518363ffffffff1660e01b8152600401611107929190611944565b6020604051808303815f875af1158015611123573d5f5f3e3d5ffd5b505050506040513d601f19601f820116820180604052508101906111479190611995565b505f8460800151836111599190612459565b90505f856040015160018151811061117457611173611a06565b5b602002602001015173ffffffffffffffffffffffffffffffffffffffff166338ed1739868489606001516001815181106111b1576111b0611a06565b5b602002602001015130426040518663ffffffff1660e01b81526004016111db95949392919061248c565b5f604051808303815f875af11580156111f6573d5f5f3e3d5ffd5b505050506040513d5f823e3d601f19601f8201168201806040525081019061121e91906125a4565b9050806001825161122f9190612193565b815181106112405761123f611a06565b5b6020026020010151925050509392505050565b80821015611296576040517f08c379a000000000000000000000000000000000000000000000000000000000815260040161128d906127bc565b60405180910390fd5b8273ffffffffffffffffffffffffffffffffffffffff1663a9059cbb7f0000000000000000000000000000000000000000000000000000000000000000836040518363ffffffff1660e01b81526004016112f1929190611944565b6020604051808303815f875af115801561130d573d5f5f3e3d5ffd5b505050506040513d601f19601f820116820180604052508101906113319190611995565b50505050565b60016113496113446113d9565b611402565b5f0181905550565b611359610412565b61138f576040517f8dfc202b00000000000000000000000000000000000000000000000000000000815260040160405180910390fd5b565b5f33905090565b6113a061140b565b156113d7576040517f3ee5aeb500000000000000000000000000000000000000000000000000000000815260040160405180910390fd5b565b5f7f9b779b17422d0df92223018b32b4d1fa46e071723d6817e2486d003becc55f005f1b905090565b5f819050919050565b5f600261141e6114196113d9565b611402565b5f015414905090565b5f604051905090565b5f5ffd5b5f5ffd5b5f73ffffffffffffffffffffffffffffffffffffffff82169050919050565b5f61146182611438565b9050919050565b61147181611457565b811461147b575f5ffd5b50565b5f8135905061148c81611468565b92915050565b5f602082840312156114a7576114a6611430565b5b5f6114b48482850161147e565b91505092915050565b5f8115159050919050565b6114d1816114bd565b82525050565b5f6020820190506114ea5f8301846114c8565b92915050565b5f819050919050565b611502816114f0565b811461150c575f5ffd5b50565b5f8135905061151d816114f9565b92915050565b5f5ffd5b5f5ffd5b5f5ffd5b5f5f83601f84011261154457611543611523565b5b8235905067ffffffffffffffff81111561156157611560611527565b5b60208301915083600182028301111561157d5761157c61152b565b5b9250929050565b5f5f5f5f6060858703121561159c5761159b611430565b5b5f6115a98782880161147e565b94505060206115ba8782880161150f565b935050604085013567ffffffffffffffff8111156115db576115da611434565b5b6115e78782880161152f565b925092505092959194509250565b6115fe81611457565b82525050565b5f6020820190506116175f8301846115f5565b92915050565b5f819050919050565b5f61164061163b61163684611438565b61161d565b611438565b9050919050565b5f61165182611626565b9050919050565b5f61166282611647565b9050919050565b61167281611658565b82525050565b5f60208201905061168b5f830184611669565b92915050565b5f5f83601f8401126116a6576116a5611523565b5b8235905067ffffffffffffffff8111156116c3576116c2611527565b5b6020830191508360208202830111156116df576116de61152b565b5b9250929050565b5f5f83601f8401126116fb576116fa611523565b5b8235905067ffffffffffffffff81111561171857611717611527565b5b6020830191508360208202830111156117345761173361152b565b5b9250929050565b5f5f5f5f5f5f5f5f6080898b03121561175757611756611430565b5b5f89013567ffffffffffffffff81111561177457611773611434565b5b6117808b828c01611691565b9850985050602089013567ffffffffffffffff8111156117a3576117a2611434565b5b6117af8b828c016116e6565b9650965050604089013567ffffffffffffffff8111156117d2576117d1611434565b5b6117de8b828c016116e6565b9450945050606089013567ffffffffffffffff81111561180157611800611434565b5b61180d8b828c0161152f565b92509250509295985092959890939650565b5f61182982611647565b9050919050565b6118398161181f565b82525050565b5f6020820190506118525f830184611830565b92915050565b5f82825260208201905092915050565b7f4f6e6c79206f776e65722063616e2063616c6c20746869732066756e6374696f5f8201527f6e00000000000000000000000000000000000000000000000000000000000000602082015250565b5f6118c2602183611858565b91506118cd82611868565b604082019050919050565b5f6020820190508181035f8301526118ef816118b6565b9050919050565b5f81519050611904816114f9565b92915050565b5f6020828403121561191f5761191e611430565b5b5f61192c848285016118f6565b91505092915050565b61193e816114f0565b82525050565b5f6040820190506119575f8301856115f5565b6119646020830184611935565b9392505050565b611974816114bd565b811461197e575f5ffd5b50565b5f8151905061198f8161196b565b92915050565b5f602082840312156119aa576119a9611430565b5b5f6119b784828501611981565b91505092915050565b5f6020820190506119d35f830184611935565b92915050565b7f4e487b71000000000000000000000000000000000000000000000000000000005f52604160045260245ffd5b7f4e487b71000000000000000000000000000000000000000000000000000000005f52603260045260245ffd5b5f82825260208201905092915050565b828183375f83830152505050565b5f601f19601f8301169050919050565b5f611a6c8385611a33565b9350611a79838584611a43565b611a8283611a51565b840190509392505050565b5f604082019050611aa05f8301866115f5565b8181036020830152611ab3818486611a61565b9050949350505050565b5f81519050919050565b5f82825260208201905092915050565b5f819050602082019050919050565b611aef81611457565b82525050565b5f611b008383611ae6565b60208301905092915050565b5f602082019050919050565b5f611b2282611abd565b611b2c8185611ac7565b9350611b3783611ad7565b805f5b83811015611b67578151611b4e8882611af5565b9750611b5983611b0c565b925050600181019050611b3a565b5085935050505092915050565b5f81519050919050565b5f82825260208201905092915050565b5f819050602082019050919050565b611ba6816114f0565b82525050565b5f611bb78383611b9d565b60208301905092915050565b5f602082019050919050565b5f611bd982611b74565b611be38185611b7e565b9350611bee83611b8e565b805f5b83811015611c1e578151611c058882611bac565b9750611c1083611bc3565b925050600181019050611bf1565b5085935050505092915050565b5f81519050919050565b8281835e5f83830152505050565b5f611c4d82611c2b565b611c578185611a33565b9350611c67818560208601611c35565b611c7081611a51565b840191505092915050565b5f608082019050611c8e5f8301876115f5565b8181036020830152611ca08186611b18565b90508181036040830152611cb48185611bcf565b90508181036060830152611cc88184611c43565b905095945050505050565b5f611cdd82611438565b9050919050565b611ced81611cd3565b8114611cf7575f5ffd5b50565b5f81359050611d0881611ce4565b92915050565b5f5ffd5b611d1b82611a51565b810181811067ffffffffffffffff82111715611d3a57611d396119d9565b5b80604052505050565b5f611d4c611427565b9050611d588282611d12565b919050565b5f67ffffffffffffffff821115611d7757611d766119d9565b5b611d8082611a51565b9050602081019050919050565b5f611d9f611d9a84611d5d565b611d43565b905082815260208101848484011115611dbb57611dba611d0e565b5b611dc6848285611a43565b509392505050565b5f82601f830112611de257611de1611523565b5b8135611df2848260208601611d8d565b91505092915050565b5f5f60408385031215611e1157611e10611430565b5b5f611e1e85828601611cfa565b925050602083013567ffffffffffffffff811115611e3f57611e3e611434565b5b611e4b85828601611dce565b9150509250929050565b5f5ffd5b5f5ffd5b5f81519050611e6b81611468565b92915050565b5f67ffffffffffffffff821115611e8b57611e8a6119d9565b5b602082029050602081019050919050565b5f611eae611ea984611e71565b611d43565b90508083825260208201905060208402830185811115611ed157611ed061152b565b5b835b81811015611efa5780611ee68882611e5d565b845260208401935050602081019050611ed3565b5050509392505050565b5f82601f830112611f1857611f17611523565b5b8151611f28848260208601611e9c565b91505092915050565b5f67ffffffffffffffff821115611f4b57611f4a6119d9565b5b602082029050602081019050919050565b5f611f6e611f6984611f31565b611d43565b90508083825260208201905060208402830185811115611f9157611f9061152b565b5b835b81811015611fd857805167ffffffffffffffff811115611fb657611fb5611523565b5b808601611fc38982611f04565b85526020850194505050602081019050611f93565b5050509392505050565b5f82601f830112611ff657611ff5611523565b5b8151612006848260208601611f5c565b91505092915050565b5f60e0828403121561202457612023611e55565b5b61202e60e0611d43565b90505f61203d84828501611e5d565b5f83015250602061205084828501611e5d565b602083015250604082015167ffffffffffffffff81111561207457612073611e59565b5b61208084828501611f04565b604083015250606082015167ffffffffffffffff8111156120a4576120a3611e59565b5b6120b084828501611fe2565b60608301525060806120c4848285016118f6565b60808301525060a06120d8848285016118f6565b60a08301525060c06120ec848285016118f6565b60c08301525092915050565b5f6020828403121561210d5761210c611430565b5b5f82015167ffffffffffffffff81111561212a57612129611434565b5b6121368482850161200f565b91505092915050565b5f6040820190506121525f8301856115f5565b61215f60208301846115f5565b9392505050565b7f4e487b71000000000000000000000000000000000000000000000000000000005f52601160045260245ffd5b5f61219d826114f0565b91506121a8836114f0565b92508282039050818111156121c0576121bf612166565b5b92915050565b5f819050919050565b6121d8816121c6565b82525050565b5f6040820190506121f15f830185611935565b6121fe60208301846121cf565b9392505050565b7f4f6e6c792042616c616e636572205661756c742063616e2063616c6c207468695f8201527f732066756e6374696f6e00000000000000000000000000000000000000000000602082015250565b5f61225f602a83611858565b915061226a82612205565b604082019050919050565b5f6020820190508181035f83015261228c81612253565b9050919050565b7f5468697320636f6e7472616374206f6e6c792068616e646c65732073696e676c5f8201527f652d746f6b656e20666c617368206c6f616e7300000000000000000000000000602082015250565b5f6122ed603383611858565b91506122f882612293565b604082019050919050565b5f6020820190508181035f83015261231a816122e1565b9050919050565b7f496e76616c696420746f6b656e20616464726573732070726f766964656400005f82015250565b5f612355601e83611858565b915061236082612321565b602082019050919050565b5f6020820190508181035f83015261238281612349565b9050919050565b7f496e76616c696420726f7574657220636f6e66696775726174696f6e000000005f82015250565b5f6123bd601c83611858565b91506123c882612389565b602082019050919050565b5f6020820190508181035f8301526123ea816123b1565b9050919050565b7f496e76616c696420706174687320636f6e66696775726174696f6e00000000005f82015250565b5f612425601b83611858565b9150612430826123f1565b602082019050919050565b5f6020820190508181035f83015261245281612419565b9050919050565b5f612463826114f0565b915061246e836114f0565b925082820190508082111561248657612485612166565b5b92915050565b5f60a08201905061249f5f830188611935565b6124ac6020830187611935565b81810360408301526124be8186611b18565b90506124cd60608301856115f5565b6124da6080830184611935565b9695505050505050565b5f67ffffffffffffffff8211156124fe576124fd6119d9565b5b602082029050602081019050919050565b5f61252161251c846124e4565b611d43565b905080838252602082019050602084028301858111156125445761254361152b565b5b835b8181101561256d578061255988826118f6565b845260208401935050602081019050612546565b5050509392505050565b5f82601f83011261258b5761258a611523565b5b815161259b84826020860161250f565b91505092915050565b5f602082840312156125b9576125b8611430565b5b5f82015167ffffffffffffffff8111156125d6576125d5611434565b5b6125e284828501612577565b91505092915050565b5f6060820190506125fe5f8301866115f5565b61260b6020830185611935565b61261860408301846115f5565b949350505050565b5f61262a826114f0565b9150612635836114f0565b9250828202612643816114f0565b9150828204841483151761265a57612659612166565b5b5092915050565b7f4e487b71000000000000000000000000000000000000000000000000000000005f52601260045260245ffd5b5f612698826114f0565b91506126a3836114f0565b9250826126b3576126b2612661565b5b828204905092915050565b7f507269636520646576696174657320746f6f206d7563682066726f6d205457415f8201527f5000000000000000000000000000000000000000000000000000000000000000602082015250565b5f612718602183611858565b9150612723826126be565b604082019050919050565b5f6020820190508181035f8301526127458161270c565b9050919050565b7f547261646520776173206e6f742070726f66697461626c6520616674657220665f8201527f6565730000000000000000000000000000000000000000000000000000000000602082015250565b5f6127a6602383611858565b91506127b18261274c565b604082019050919050565b5f6020820190508181035f8301526127d38161279a565b905091905056fea264697066735822122099e50fe43d53ab5db54660d02a4013865fba1e55a78678ec2fcaf3045366f03764736f6c634300081e0033","linkReferences":{}},"methodIdentifiers":{"owner()":"8da5cb5b","pause()":"8456cb59","paused()":"5c975abb","receiveFlashLoan(address[],uint256[],uint256[],bytes)":"f04f2707","startFlashloan(address,uint256,bytes)":"8298a90d","twapOracle()":"9043292a","unpause()":"3f4ba83a","vault()":"fbfa77cf","withdraw(address)":"51cff8d9"},"id":24}