{
  "_format": "hh-sol-artifact-1",
  "contractName": "MockVault",
  "sourceName": "contracts/contracts/MockVault.sol",
  "abi": [
    {
      "inputs": [
        {
          "internalType": "address",
          "name": "recipient",
          "type": "address"
        },
        {
          "internalType": "address[]",
          "name": "tokens",
          "type": "address[]"
        },
        {
          "internalType": "uint256[]",
          "name": "amounts",
          "type": "uint256[]"
        },
        {
          "internalType": "bytes",
          "name": "userData",
          "type": "bytes"
        }
      ],
      "name": "flashLoan",
      "outputs": [],
      "stateMutability": "nonpayable",
      "type": "function"
    }
  ],
  "bytecode": "0x608080604052346100165761044a908161001c8239f35b600080fdfe6080604052600436101561001257600080fd5b6000803560e01c635c38449e1461002857600080fd5b34610365576080366003190112610365576004356001600160a01b03811681036103615760243567ffffffffffffffff811161035d5761006c903690600401610368565b919060443567ffffffffffffffff81116103595761008e903690600401610368565b9167ffffffffffffffff60643511610355573660236064350112156103555767ffffffffffffffff6064356004013511610355573660246064356004013560643501011161035557855b85811061028457506100e9856103fc565b926100f760405194856103c4565b858452601f19610106876103fc565b013660208601376001600160a01b0385163b156102525760405163f04f270760e01b815260806004820152608481018790529560a48701929088905b808210610256575050508582036003190160248701528082526001600160fb1b038111610252579185939187959360051b80926020830137016020604081830192601c878203016044880152845180945201920190855b818110610236575050508360208480936003198282030160648301526064356004013581526064356004013560246064350184830137600460643501358181018401859052601f01601f1916010301926001600160a01b03165af1801561022b57610202575080f35b67ffffffffffffffff81116102175760405280f35b634e487b7160e01b82526041600452602482fd5b6040513d84823e3d90fd5b8251845288965087955060209384019390920191600101610199565b8680fd5b90919384359060018060a01b03821680920361028057602081600193829352019501920190610142565b8a80fd5b61028f81878461039e565b356001600160a01b0381169081900361033f57876102ae83878761039e565b60405163a9059cbb60e01b81526001600160a01b03891660048201529035602482015291602091829184916044918391905af1801561034a57610313575b505060001981146102ff576001016100d8565b634e487b7160e01b87526011600452602487fd5b81813d8311610343575b61032781836103c4565b8101031261033f5751801515036102525738806102ec565b8780fd5b503d61031d565b6040513d8b823e3d90fd5b8580fd5b8480fd5b8280fd5b5080fd5b80fd5b9181601f840112156103995782359167ffffffffffffffff8311610399576020808501948460051b01011161039957565b600080fd5b91908110156103ae5760051b0190565b634e487b7160e01b600052603260045260246000fd5b90601f8019910116810190811067ffffffffffffffff8211176103e657604052565b634e487b7160e01b600052604160045260246000fd5b67ffffffffffffffff81116103e65760051b6020019056fea26469706673582212201fff7856c3faf002ff78f6c03d7a7083b8355736ca05440869f1d54bd5e39a9964736f6c63430008140033",
  "linkReferences": {},
  "deployedLinkReferences": {}
}